{
	"MyCryptoBank.sol": {
		"MyCryptoBank": {
			"abi": [
				{
					"inputs": [
						{
							"internalType": "uint256",
							"name": "maxBalance_",
							"type": "uint256"
						},
						{
							"internalType": "address",
							"name": "admin_",
							"type": "address"
						}
					],
					"stateMutability": "nonpayable",
					"type": "constructor"
				},
				{
					"anonymous": false,
					"inputs": [
						{
							"indexed": false,
							"internalType": "address",
							"name": "user_",
							"type": "address"
						},
						{
							"indexed": false,
							"internalType": "uint256",
							"name": "amount_",
							"type": "uint256"
						}
					],
					"name": "DepositEth",
					"type": "event"
				},
				{
					"anonymous": false,
					"inputs": [
						{
							"indexed": false,
							"internalType": "address",
							"name": "user_",
							"type": "address"
						},
						{
							"indexed": false,
							"internalType": "uint256",
							"name": "amount_",
							"type": "uint256"
						}
					],
					"name": "WithdrawEth",
					"type": "event"
				},
				{
					"inputs": [],
					"name": "admin",
					"outputs": [
						{
							"internalType": "address",
							"name": "",
							"type": "address"
						}
					],
					"stateMutability": "view",
					"type": "function"
				},
				{
					"inputs": [],
					"name": "deposit",
					"outputs": [],
					"stateMutability": "payable",
					"type": "function"
				},
				{
					"inputs": [],
					"name": "maxBalance",
					"outputs": [
						{
							"internalType": "uint256",
							"name": "",
							"type": "uint256"
						}
					],
					"stateMutability": "view",
					"type": "function"
				},
				{
					"inputs": [
						{
							"internalType": "uint256",
							"name": "newMaxBalance_",
							"type": "uint256"
						}
					],
					"name": "modifyBalance",
					"outputs": [],
					"stateMutability": "nonpayable",
					"type": "function"
				},
				{
					"inputs": [
						{
							"internalType": "address",
							"name": "",
							"type": "address"
						}
					],
					"name": "userBalance",
					"outputs": [
						{
							"internalType": "uint256",
							"name": "",
							"type": "uint256"
						}
					],
					"stateMutability": "view",
					"type": "function"
				},
				{
					"inputs": [
						{
							"internalType": "uint256",
							"name": "amount_",
							"type": "uint256"
						}
					],
					"name": "withdraw",
					"outputs": [],
					"stateMutability": "nonpayable",
					"type": "function"
				}
			],
			"devdoc": {
				"kind": "dev",
				"methods": {},
				"version": 1
			},
			"evm": {
				"assembly": "    /* \"MyCryptoBank.sol\":335:1813  contract MyCryptoBank{... */\n  mstore(0x40, 0x80)\n    /* \"MyCryptoBank.sol\":767:887  constructor(uint256 maxBalance_, address admin_){... */\n  callvalue\n  dup1\n  iszero\n  tag_1\n  jumpi\n  0x00\n  dup1\n  revert\ntag_1:\n  pop\n  mload(0x40)\n  sub(codesize, bytecodeSize)\n  dup1\n  bytecodeSize\n  dup4\n  codecopy\n  dup2\n  dup2\n  add\n  0x40\n  mstore\n  dup2\n  add\n  swap1\n  tag_2\n  swap2\n  swap1\n  tag_3\n  jump\t// in\ntag_2:\n    /* \"MyCryptoBank.sol\":841:852  maxBalance_ */\n  dup2\n    /* \"MyCryptoBank.sol\":828:838  maxBalance */\n  0x00\n    /* \"MyCryptoBank.sol\":828:852  maxBalance = maxBalance_ */\n  dup2\n  swap1\n  sstore\n  pop\n    /* \"MyCryptoBank.sol\":871:877  admin_ */\n  dup1\n    /* \"MyCryptoBank.sol\":863:868  admin */\n  0x01\n  0x00\n    /* \"MyCryptoBank.sol\":863:877  admin = admin_ */\n  0x0100\n  exp\n  dup2\n  sload\n  dup2\n  0xffffffffffffffffffffffffffffffffffffffff\n  mul\n  not\n  and\n  swap1\n  dup4\n  0xffffffffffffffffffffffffffffffffffffffff\n  and\n  mul\n  or\n  swap1\n  sstore\n  pop\n    /* \"MyCryptoBank.sol\":767:887  constructor(uint256 maxBalance_, address admin_){... */\n  pop\n  pop\n    /* \"MyCryptoBank.sol\":335:1813  contract MyCryptoBank{... */\n  jump(tag_6)\n    /* \"#utility.yul\":88:205   */\ntag_8:\n    /* \"#utility.yul\":197:198   */\n  0x00\n    /* \"#utility.yul\":194:195   */\n  dup1\n    /* \"#utility.yul\":187:199   */\n  revert\n    /* \"#utility.yul\":334:411   */\ntag_10:\n    /* \"#utility.yul\":371:378   */\n  0x00\n    /* \"#utility.yul\":400:405   */\n  dup2\n    /* \"#utility.yul\":389:405   */\n  swap1\n  pop\n    /* \"#utility.yul\":334:411   */\n  swap2\n  swap1\n  pop\n  jump\t// out\n    /* \"#utility.yul\":417:539   */\ntag_11:\n    /* \"#utility.yul\":490:514   */\n  tag_23\n    /* \"#utility.yul\":508:513   */\n  dup2\n    /* \"#utility.yul\":490:514   */\n  tag_10\n  jump\t// in\ntag_23:\n    /* \"#utility.yul\":483:488   */\n  dup2\n    /* \"#utility.yul\":480:515   */\n  eq\n    /* \"#utility.yul\":470:533   */\n  tag_24\n  jumpi\n    /* \"#utility.yul\":529:530   */\n  0x00\n    /* \"#utility.yul\":526:527   */\n  dup1\n    /* \"#utility.yul\":519:531   */\n  revert\n    /* \"#utility.yul\":470:533   */\ntag_24:\n    /* \"#utility.yul\":417:539   */\n  pop\n  jump\t// out\n    /* \"#utility.yul\":545:688   */\ntag_12:\n    /* \"#utility.yul\":602:607   */\n  0x00\n    /* \"#utility.yul\":633:639   */\n  dup2\n    /* \"#utility.yul\":627:640   */\n  mload\n    /* \"#utility.yul\":618:640   */\n  swap1\n  pop\n    /* \"#utility.yul\":649:682   */\n  tag_26\n    /* \"#utility.yul\":676:681   */\n  dup2\n    /* \"#utility.yul\":649:682   */\n  tag_11\n  jump\t// in\ntag_26:\n    /* \"#utility.yul\":545:688   */\n  swap3\n  swap2\n  pop\n  pop\n  jump\t// out\n    /* \"#utility.yul\":694:820   */\ntag_13:\n    /* \"#utility.yul\":731:738   */\n  0x00\n    /* \"#utility.yul\":771:813   */\n  0xffffffffffffffffffffffffffffffffffffffff\n    /* \"#utility.yul\":764:769   */\n  dup3\n    /* \"#utility.yul\":760:814   */\n  and\n    /* \"#utility.yul\":749:814   */\n  swap1\n  pop\n    /* \"#utility.yul\":694:820   */\n  swap2\n  swap1\n  pop\n  jump\t// out\n    /* \"#utility.yul\":826:922   */\ntag_14:\n    /* \"#utility.yul\":863:870   */\n  0x00\n    /* \"#utility.yul\":892:916   */\n  tag_29\n    /* \"#utility.yul\":910:915   */\n  dup3\n    /* \"#utility.yul\":892:916   */\n  tag_13\n  jump\t// in\ntag_29:\n    /* \"#utility.yul\":881:916   */\n  swap1\n  pop\n    /* \"#utility.yul\":826:922   */\n  swap2\n  swap1\n  pop\n  jump\t// out\n    /* \"#utility.yul\":928:1050   */\ntag_15:\n    /* \"#utility.yul\":1001:1025   */\n  tag_31\n    /* \"#utility.yul\":1019:1024   */\n  dup2\n    /* \"#utility.yul\":1001:1025   */\n  tag_14\n  jump\t// in\ntag_31:\n    /* \"#utility.yul\":994:999   */\n  dup2\n    /* \"#utility.yul\":991:1026   */\n  eq\n    /* \"#utility.yul\":981:1044   */\n  tag_32\n  jumpi\n    /* \"#utility.yul\":1040:1041   */\n  0x00\n    /* \"#utility.yul\":1037:1038   */\n  dup1\n    /* \"#utility.yul\":1030:1042   */\n  revert\n    /* \"#utility.yul\":981:1044   */\ntag_32:\n    /* \"#utility.yul\":928:1050   */\n  pop\n  jump\t// out\n    /* \"#utility.yul\":1056:1199   */\ntag_16:\n    /* \"#utility.yul\":1113:1118   */\n  0x00\n    /* \"#utility.yul\":1144:1150   */\n  dup2\n    /* \"#utility.yul\":1138:1151   */\n  mload\n    /* \"#utility.yul\":1129:1151   */\n  swap1\n  pop\n    /* \"#utility.yul\":1160:1193   */\n  tag_34\n    /* \"#utility.yul\":1187:1192   */\n  dup2\n    /* \"#utility.yul\":1160:1193   */\n  tag_15\n  jump\t// in\ntag_34:\n    /* \"#utility.yul\":1056:1199   */\n  swap3\n  swap2\n  pop\n  pop\n  jump\t// out\n    /* \"#utility.yul\":1205:1712   */\ntag_3:\n    /* \"#utility.yul\":1284:1290   */\n  0x00\n    /* \"#utility.yul\":1292:1298   */\n  dup1\n    /* \"#utility.yul\":1341:1343   */\n  0x40\n    /* \"#utility.yul\":1329:1338   */\n  dup4\n    /* \"#utility.yul\":1320:1327   */\n  dup6\n    /* \"#utility.yul\":1316:1339   */\n  sub\n    /* \"#utility.yul\":1312:1344   */\n  slt\n    /* \"#utility.yul\":1309:1428   */\n  iszero\n  tag_36\n  jumpi\n    /* \"#utility.yul\":1347:1426   */\n  tag_37\n  tag_8\n  jump\t// in\ntag_37:\n    /* \"#utility.yul\":1309:1428   */\ntag_36:\n    /* \"#utility.yul\":1467:1468   */\n  0x00\n    /* \"#utility.yul\":1492:1556   */\n  tag_38\n    /* \"#utility.yul\":1548:1555   */\n  dup6\n    /* \"#utility.yul\":1539:1545   */\n  dup3\n    /* \"#utility.yul\":1528:1537   */\n  dup7\n    /* \"#utility.yul\":1524:1546   */\n  add\n    /* \"#utility.yul\":1492:1556   */\n  tag_12\n  jump\t// in\ntag_38:\n    /* \"#utility.yul\":1482:1556   */\n  swap3\n  pop\n    /* \"#utility.yul\":1438:1566   */\n  pop\n    /* \"#utility.yul\":1605:1607   */\n  0x20\n    /* \"#utility.yul\":1631:1695   */\n  tag_39\n    /* \"#utility.yul\":1687:1694   */\n  dup6\n    /* \"#utility.yul\":1678:1684   */\n  dup3\n    /* \"#utility.yul\":1667:1676   */\n  dup7\n    /* \"#utility.yul\":1663:1685   */\n  add\n    /* \"#utility.yul\":1631:1695   */\n  tag_16\n  jump\t// in\ntag_39:\n    /* \"#utility.yul\":1621:1695   */\n  swap2\n  pop\n    /* \"#utility.yul\":1576:1705   */\n  pop\n    /* \"#utility.yul\":1205:1712   */\n  swap3\n  pop\n  swap3\n  swap1\n  pop\n  jump\t// out\n    /* \"MyCryptoBank.sol\":335:1813  contract MyCryptoBank{... */\ntag_6:\n  dataSize(sub_0)\n  dup1\n  dataOffset(sub_0)\n  0x00\n  codecopy\n  0x00\n  return\nstop\n\nsub_0: assembly {\n        /* \"MyCryptoBank.sol\":335:1813  contract MyCryptoBank{... */\n      mstore(0x40, 0x80)\n      jumpi(tag_1, lt(calldatasize, 0x04))\n      shr(0xe0, calldataload(0x00))\n      dup1\n      0x0103c92b\n      eq\n      tag_2\n      jumpi\n      dup1\n      0x2e1a7d4d\n      eq\n      tag_3\n      jumpi\n      dup1\n      0x73ad468a\n      eq\n      tag_4\n      jumpi\n      dup1\n      0x9b274b4f\n      eq\n      tag_5\n      jumpi\n      dup1\n      0xd0e30db0\n      eq\n      tag_6\n      jumpi\n      dup1\n      0xf851a440\n      eq\n      tag_7\n      jumpi\n    tag_1:\n      0x00\n      dup1\n      revert\n        /* \"MyCryptoBank.sol\":444:488  mapping(address=>uint256) public userBalance */\n    tag_2:\n      callvalue\n      dup1\n      iszero\n      tag_8\n      jumpi\n      0x00\n      dup1\n      revert\n    tag_8:\n      pop\n      tag_9\n      0x04\n      dup1\n      calldatasize\n      sub\n      dup2\n      add\n      swap1\n      tag_10\n      swap2\n      swap1\n      tag_11\n      jump\t// in\n    tag_10:\n      tag_12\n      jump\t// in\n    tag_9:\n      mload(0x40)\n      tag_13\n      swap2\n      swap1\n      tag_14\n      jump\t// in\n    tag_13:\n      mload(0x40)\n      dup1\n      swap2\n      sub\n      swap1\n      return\n        /* \"MyCryptoBank.sol\":1226:1655  function withdraw(uint256 amount_) external{... */\n    tag_3:\n      callvalue\n      dup1\n      iszero\n      tag_15\n      jumpi\n      0x00\n      dup1\n      revert\n    tag_15:\n      pop\n      tag_16\n      0x04\n      dup1\n      calldatasize\n      sub\n      dup2\n      add\n      swap1\n      tag_17\n      swap2\n      swap1\n      tag_18\n      jump\t// in\n    tag_17:\n      tag_19\n      jump\t// in\n    tag_16:\n      stop\n        /* \"MyCryptoBank.sol\":385:410  uint256 public maxBalance */\n    tag_4:\n      callvalue\n      dup1\n      iszero\n      tag_20\n      jumpi\n      0x00\n      dup1\n      revert\n    tag_20:\n      pop\n      tag_21\n      tag_22\n      jump\t// in\n    tag_21:\n      mload(0x40)\n      tag_23\n      swap2\n      swap1\n      tag_14\n      jump\t// in\n    tag_23:\n      mload(0x40)\n      dup1\n      swap2\n      sub\n      swap1\n      return\n        /* \"MyCryptoBank.sol\":1691:1804  function modifyBalance(uint256 newMaxBalance_) external onlyAdmin{... */\n    tag_5:\n      callvalue\n      dup1\n      iszero\n      tag_24\n      jumpi\n      0x00\n      dup1\n      revert\n    tag_24:\n      pop\n      tag_25\n      0x04\n      dup1\n      calldatasize\n      sub\n      dup2\n      add\n      swap1\n      tag_26\n      swap2\n      swap1\n      tag_18\n      jump\t// in\n    tag_26:\n      tag_27\n      jump\t// in\n    tag_25:\n      stop\n        /* \"MyCryptoBank.sol\":939:1193  function deposit() external payable {... */\n    tag_6:\n      tag_28\n      tag_29\n      jump\t// in\n    tag_28:\n      stop\n        /* \"MyCryptoBank.sol\":417:437  address public admin */\n    tag_7:\n      callvalue\n      dup1\n      iszero\n      tag_30\n      jumpi\n      0x00\n      dup1\n      revert\n    tag_30:\n      pop\n      tag_31\n      tag_32\n      jump\t// in\n    tag_31:\n      mload(0x40)\n      tag_33\n      swap2\n      swap1\n      tag_34\n      jump\t// in\n    tag_33:\n      mload(0x40)\n      dup1\n      swap2\n      sub\n      swap1\n      return\n        /* \"MyCryptoBank.sol\":444:488  mapping(address=>uint256) public userBalance */\n    tag_12:\n      mstore(0x20, 0x02)\n      dup1\n      0x00\n      mstore\n      keccak256(0x00, 0x40)\n      0x00\n      swap2\n      pop\n      swap1\n      pop\n      sload\n      dup2\n      jump\t// out\n        /* \"MyCryptoBank.sol\":1226:1655  function withdraw(uint256 amount_) external{... */\n    tag_19:\n        /* \"MyCryptoBank.sol\":1301:1312  userBalance */\n      0x02\n        /* \"MyCryptoBank.sol\":1301:1324  userBalance[msg.sender] */\n      0x00\n        /* \"MyCryptoBank.sol\":1313:1323  msg.sender */\n      caller\n        /* \"MyCryptoBank.sol\":1301:1324  userBalance[msg.sender] */\n      0xffffffffffffffffffffffffffffffffffffffff\n      and\n      0xffffffffffffffffffffffffffffffffffffffff\n      and\n      dup2\n      mstore\n      0x20\n      add\n      swap1\n      dup2\n      mstore\n      0x20\n      add\n      0x00\n      keccak256\n      sload\n        /* \"MyCryptoBank.sol\":1290:1297  amount_ */\n      dup2\n        /* \"MyCryptoBank.sol\":1290:1324  amount_ <= userBalance[msg.sender] */\n      gt\n      iszero\n        /* \"MyCryptoBank.sol\":1282:1371  require(amount_ <= userBalance[msg.sender],\"Cannot withdraw more than available balance\") */\n      tag_36\n      jumpi\n      mload(0x40)\n      0x08c379a000000000000000000000000000000000000000000000000000000000\n      dup2\n      mstore\n      0x04\n      add\n      tag_37\n      swap1\n      tag_38\n      jump\t// in\n    tag_37:\n      mload(0x40)\n      dup1\n      swap2\n      sub\n      swap1\n      revert\n    tag_36:\n        /* \"MyCryptoBank.sol\":1438:1445  amount_ */\n      dup1\n        /* \"MyCryptoBank.sol\":1413:1424  userBalance */\n      0x02\n        /* \"MyCryptoBank.sol\":1413:1436  userBalance[msg.sender] */\n      0x00\n        /* \"MyCryptoBank.sol\":1425:1435  msg.sender */\n      caller\n        /* \"MyCryptoBank.sol\":1413:1436  userBalance[msg.sender] */\n      0xffffffffffffffffffffffffffffffffffffffff\n      and\n      0xffffffffffffffffffffffffffffffffffffffff\n      and\n      dup2\n      mstore\n      0x20\n      add\n      swap1\n      dup2\n      mstore\n      0x20\n      add\n      0x00\n      keccak256\n      0x00\n        /* \"MyCryptoBank.sol\":1413:1445  userBalance[msg.sender]-=amount_ */\n      dup3\n      dup3\n      sload\n      tag_39\n      swap2\n      swap1\n      tag_40\n      jump\t// in\n    tag_39:\n      swap3\n      pop\n      pop\n      dup2\n      swap1\n      sstore\n      pop\n        /* \"MyCryptoBank.sol\":1494:1506  bool success */\n      0x00\n        /* \"MyCryptoBank.sol\":1511:1521  msg.sender */\n      caller\n        /* \"MyCryptoBank.sol\":1511:1526  msg.sender.call */\n      0xffffffffffffffffffffffffffffffffffffffff\n      and\n        /* \"MyCryptoBank.sol\":1533:1540  amount_ */\n      dup3\n        /* \"MyCryptoBank.sol\":1511:1545  msg.sender.call{value:amount_}(\"\") */\n      mload(0x40)\n      tag_41\n      swap1\n      tag_42\n      jump\t// in\n    tag_41:\n      0x00\n      mload(0x40)\n      dup1\n      dup4\n      sub\n      dup2\n      dup6\n      dup8\n      gas\n      call\n      swap3\n      pop\n      pop\n      pop\n      returndatasize\n      dup1\n      0x00\n      dup2\n      eq\n      tag_45\n      jumpi\n      mload(0x40)\n      swap2\n      pop\n      and(add(returndatasize, 0x3f), not(0x1f))\n      dup3\n      add\n      0x40\n      mstore\n      returndatasize\n      dup3\n      mstore\n      returndatasize\n      0x00\n      0x20\n      dup5\n      add\n      returndatacopy\n      jump(tag_44)\n    tag_45:\n      0x60\n      swap2\n      pop\n    tag_44:\n      pop\n        /* \"MyCryptoBank.sol\":1493:1545  (bool success,) = msg.sender.call{value:amount_}(\"\") */\n      pop\n      swap1\n      pop\n        /* \"MyCryptoBank.sol\":1566:1573  success */\n      dup1\n        /* \"MyCryptoBank.sol\":1558:1593  require(success, \"Withdraw failed\") */\n      tag_46\n      jumpi\n      mload(0x40)\n      0x08c379a000000000000000000000000000000000000000000000000000000000\n      dup2\n      mstore\n      0x04\n      add\n      tag_47\n      swap1\n      tag_48\n      jump\t// in\n    tag_47:\n      mload(0x40)\n      dup1\n      swap2\n      sub\n      swap1\n      revert\n    tag_46:\n        /* \"MyCryptoBank.sol\":1611:1643  WithdrawEth(msg.sender, amount_) */\n      0xccbd99ba6da8f29b2a4f65e474e3c3973564d356c162c08d45f3dc7f0cb5b3aa\n        /* \"MyCryptoBank.sol\":1623:1633  msg.sender */\n      caller\n        /* \"MyCryptoBank.sol\":1635:1642  amount_ */\n      dup4\n        /* \"MyCryptoBank.sol\":1611:1643  WithdrawEth(msg.sender, amount_) */\n      mload(0x40)\n      tag_49\n      swap3\n      swap2\n      swap1\n      tag_50\n      jump\t// in\n    tag_49:\n      mload(0x40)\n      dup1\n      swap2\n      sub\n      swap1\n      log1\n        /* \"MyCryptoBank.sol\":1269:1655  {... */\n      pop\n        /* \"MyCryptoBank.sol\":1226:1655  function withdraw(uint256 amount_) external{... */\n      pop\n      jump\t// out\n        /* \"MyCryptoBank.sol\":385:410  uint256 public maxBalance */\n    tag_22:\n      sload(0x00)\n      dup2\n      jump\t// out\n        /* \"MyCryptoBank.sol\":1691:1804  function modifyBalance(uint256 newMaxBalance_) external onlyAdmin{... */\n    tag_27:\n        /* \"MyCryptoBank.sol\":568:573  admin */\n      0x01\n      0x00\n      swap1\n      sload\n      swap1\n      0x0100\n      exp\n      swap1\n      div\n      0xffffffffffffffffffffffffffffffffffffffff\n      and\n        /* \"MyCryptoBank.sol\":556:573  msg.sender==admin */\n      0xffffffffffffffffffffffffffffffffffffffff\n      and\n        /* \"MyCryptoBank.sol\":556:566  msg.sender */\n      caller\n        /* \"MyCryptoBank.sol\":556:573  msg.sender==admin */\n      0xffffffffffffffffffffffffffffffffffffffff\n      and\n      eq\n        /* \"MyCryptoBank.sol\":548:589  require(msg.sender==admin,\"Unauthorized\") */\n      tag_52\n      jumpi\n      mload(0x40)\n      0x08c379a000000000000000000000000000000000000000000000000000000000\n      dup2\n      mstore\n      0x04\n      add\n      tag_53\n      swap1\n      tag_54\n      jump\t// in\n    tag_53:\n      mload(0x40)\n      dup1\n      swap2\n      sub\n      swap1\n      revert\n    tag_52:\n        /* \"MyCryptoBank.sol\":1782:1796  newMaxBalance_ */\n      dup1\n        /* \"MyCryptoBank.sol\":1769:1779  maxBalance */\n      0x00\n        /* \"MyCryptoBank.sol\":1769:1796  maxBalance = newMaxBalance_ */\n      dup2\n      swap1\n      sstore\n      pop\n        /* \"MyCryptoBank.sol\":1691:1804  function modifyBalance(uint256 newMaxBalance_) external onlyAdmin{... */\n      pop\n      jump\t// out\n        /* \"MyCryptoBank.sol\":939:1193  function deposit() external payable {... */\n    tag_29:\n        /* \"MyCryptoBank.sol\":1033:1043  maxBalance */\n      sload(0x00)\n        /* \"MyCryptoBank.sol\":1020:1029  msg.value */\n      callvalue\n        /* \"MyCryptoBank.sol\":994:1005  userBalance */\n      0x02\n        /* \"MyCryptoBank.sol\":994:1017  userBalance[msg.sender] */\n      0x00\n        /* \"MyCryptoBank.sol\":1006:1016  msg.sender */\n      caller\n        /* \"MyCryptoBank.sol\":994:1017  userBalance[msg.sender] */\n      0xffffffffffffffffffffffffffffffffffffffff\n      and\n      0xffffffffffffffffffffffffffffffffffffffff\n      and\n      dup2\n      mstore\n      0x20\n      add\n      swap1\n      dup2\n      mstore\n      0x20\n      add\n      0x00\n      keccak256\n      sload\n        /* \"MyCryptoBank.sol\":994:1029  userBalance[msg.sender] + msg.value */\n      tag_57\n      swap2\n      swap1\n      tag_58\n      jump\t// in\n    tag_57:\n        /* \"MyCryptoBank.sol\":994:1043  userBalance[msg.sender] + msg.value <= maxBalance */\n      gt\n      iszero\n        /* \"MyCryptoBank.sol\":986:1047  require(userBalance[msg.sender] + msg.value <= maxBalance,\"\") */\n      tag_59\n      jumpi\n      mload(0x40)\n      0x08c379a000000000000000000000000000000000000000000000000000000000\n      dup2\n      mstore\n      0x04\n      add\n      tag_60\n      swap1\n      tag_61\n      jump\t// in\n    tag_60:\n      mload(0x40)\n      dup1\n      swap2\n      sub\n      swap1\n      revert\n    tag_59:\n        /* \"MyCryptoBank.sol\":1085:1094  msg.value */\n      callvalue\n        /* \"MyCryptoBank.sol\":1058:1069  userBalance */\n      0x02\n        /* \"MyCryptoBank.sol\":1058:1081  userBalance[msg.sender] */\n      0x00\n        /* \"MyCryptoBank.sol\":1070:1080  msg.sender */\n      caller\n        /* \"MyCryptoBank.sol\":1058:1081  userBalance[msg.sender] */\n      0xffffffffffffffffffffffffffffffffffffffff\n      and\n      0xffffffffffffffffffffffffffffffffffffffff\n      and\n      dup2\n      mstore\n      0x20\n      add\n      swap1\n      dup2\n      mstore\n      0x20\n      add\n      0x00\n      keccak256\n      0x00\n        /* \"MyCryptoBank.sol\":1058:1094  userBalance[msg.sender] += msg.value */\n      dup3\n      dup3\n      sload\n      tag_62\n      swap2\n      swap1\n      tag_58\n      jump\t// in\n    tag_62:\n      swap3\n      pop\n      pop\n      dup2\n      swap1\n      sstore\n      pop\n        /* \"MyCryptoBank.sol\":1150:1183  DepositEth(msg.sender, msg.value) */\n      0x7034bb05cfe54b0d147fc0574ed166101e7f0313eb404e113974fbe2a998ca83\n        /* \"MyCryptoBank.sol\":1161:1171  msg.sender */\n      caller\n        /* \"MyCryptoBank.sol\":1173:1182  msg.value */\n      callvalue\n        /* \"MyCryptoBank.sol\":1150:1183  DepositEth(msg.sender, msg.value) */\n      mload(0x40)\n      tag_63\n      swap3\n      swap2\n      swap1\n      tag_50\n      jump\t// in\n    tag_63:\n      mload(0x40)\n      dup1\n      swap2\n      sub\n      swap1\n      log1\n        /* \"MyCryptoBank.sol\":939:1193  function deposit() external payable {... */\n      jump\t// out\n        /* \"MyCryptoBank.sol\":417:437  address public admin */\n    tag_32:\n      0x01\n      0x00\n      swap1\n      sload\n      swap1\n      0x0100\n      exp\n      swap1\n      div\n      0xffffffffffffffffffffffffffffffffffffffff\n      and\n      dup2\n      jump\t// out\n        /* \"#utility.yul\":88:205   */\n    tag_65:\n        /* \"#utility.yul\":197:198   */\n      0x00\n        /* \"#utility.yul\":194:195   */\n      dup1\n        /* \"#utility.yul\":187:199   */\n      revert\n        /* \"#utility.yul\":334:460   */\n    tag_67:\n        /* \"#utility.yul\":371:378   */\n      0x00\n        /* \"#utility.yul\":411:453   */\n      0xffffffffffffffffffffffffffffffffffffffff\n        /* \"#utility.yul\":404:409   */\n      dup3\n        /* \"#utility.yul\":400:454   */\n      and\n        /* \"#utility.yul\":389:454   */\n      swap1\n      pop\n        /* \"#utility.yul\":334:460   */\n      swap2\n      swap1\n      pop\n      jump\t// out\n        /* \"#utility.yul\":466:562   */\n    tag_68:\n        /* \"#utility.yul\":503:510   */\n      0x00\n        /* \"#utility.yul\":532:556   */\n      tag_94\n        /* \"#utility.yul\":550:555   */\n      dup3\n        /* \"#utility.yul\":532:556   */\n      tag_67\n      jump\t// in\n    tag_94:\n        /* \"#utility.yul\":521:556   */\n      swap1\n      pop\n        /* \"#utility.yul\":466:562   */\n      swap2\n      swap1\n      pop\n      jump\t// out\n        /* \"#utility.yul\":568:690   */\n    tag_69:\n        /* \"#utility.yul\":641:665   */\n      tag_96\n        /* \"#utility.yul\":659:664   */\n      dup2\n        /* \"#utility.yul\":641:665   */\n      tag_68\n      jump\t// in\n    tag_96:\n        /* \"#utility.yul\":634:639   */\n      dup2\n        /* \"#utility.yul\":631:666   */\n      eq\n        /* \"#utility.yul\":621:684   */\n      tag_97\n      jumpi\n        /* \"#utility.yul\":680:681   */\n      0x00\n        /* \"#utility.yul\":677:678   */\n      dup1\n        /* \"#utility.yul\":670:682   */\n      revert\n        /* \"#utility.yul\":621:684   */\n    tag_97:\n        /* \"#utility.yul\":568:690   */\n      pop\n      jump\t// out\n        /* \"#utility.yul\":696:835   */\n    tag_70:\n        /* \"#utility.yul\":742:747   */\n      0x00\n        /* \"#utility.yul\":780:786   */\n      dup2\n        /* \"#utility.yul\":767:787   */\n      calldataload\n        /* \"#utility.yul\":758:787   */\n      swap1\n      pop\n        /* \"#utility.yul\":796:829   */\n      tag_99\n        /* \"#utility.yul\":823:828   */\n      dup2\n        /* \"#utility.yul\":796:829   */\n      tag_69\n      jump\t// in\n    tag_99:\n        /* \"#utility.yul\":696:835   */\n      swap3\n      swap2\n      pop\n      pop\n      jump\t// out\n        /* \"#utility.yul\":841:1170   */\n    tag_11:\n        /* \"#utility.yul\":900:906   */\n      0x00\n        /* \"#utility.yul\":949:951   */\n      0x20\n        /* \"#utility.yul\":937:946   */\n      dup3\n        /* \"#utility.yul\":928:935   */\n      dup5\n        /* \"#utility.yul\":924:947   */\n      sub\n        /* \"#utility.yul\":920:952   */\n      slt\n        /* \"#utility.yul\":917:1036   */\n      iszero\n      tag_101\n      jumpi\n        /* \"#utility.yul\":955:1034   */\n      tag_102\n      tag_65\n      jump\t// in\n    tag_102:\n        /* \"#utility.yul\":917:1036   */\n    tag_101:\n        /* \"#utility.yul\":1075:1076   */\n      0x00\n        /* \"#utility.yul\":1100:1153   */\n      tag_103\n        /* \"#utility.yul\":1145:1152   */\n      dup5\n        /* \"#utility.yul\":1136:1142   */\n      dup3\n        /* \"#utility.yul\":1125:1134   */\n      dup6\n        /* \"#utility.yul\":1121:1143   */\n      add\n        /* \"#utility.yul\":1100:1153   */\n      tag_70\n      jump\t// in\n    tag_103:\n        /* \"#utility.yul\":1090:1153   */\n      swap2\n      pop\n        /* \"#utility.yul\":1046:1163   */\n      pop\n        /* \"#utility.yul\":841:1170   */\n      swap3\n      swap2\n      pop\n      pop\n      jump\t// out\n        /* \"#utility.yul\":1176:1253   */\n    tag_71:\n        /* \"#utility.yul\":1213:1220   */\n      0x00\n        /* \"#utility.yul\":1242:1247   */\n      dup2\n        /* \"#utility.yul\":1231:1247   */\n      swap1\n      pop\n        /* \"#utility.yul\":1176:1253   */\n      swap2\n      swap1\n      pop\n      jump\t// out\n        /* \"#utility.yul\":1259:1377   */\n    tag_72:\n        /* \"#utility.yul\":1346:1370   */\n      tag_106\n        /* \"#utility.yul\":1364:1369   */\n      dup2\n        /* \"#utility.yul\":1346:1370   */\n      tag_71\n      jump\t// in\n    tag_106:\n        /* \"#utility.yul\":1341:1344   */\n      dup3\n        /* \"#utility.yul\":1334:1371   */\n      mstore\n        /* \"#utility.yul\":1259:1377   */\n      pop\n      pop\n      jump\t// out\n        /* \"#utility.yul\":1383:1605   */\n    tag_14:\n        /* \"#utility.yul\":1476:1480   */\n      0x00\n        /* \"#utility.yul\":1514:1516   */\n      0x20\n        /* \"#utility.yul\":1503:1512   */\n      dup3\n        /* \"#utility.yul\":1499:1517   */\n      add\n        /* \"#utility.yul\":1491:1517   */\n      swap1\n      pop\n        /* \"#utility.yul\":1527:1598   */\n      tag_108\n        /* \"#utility.yul\":1595:1596   */\n      0x00\n        /* \"#utility.yul\":1584:1593   */\n      dup4\n        /* \"#utility.yul\":1580:1597   */\n      add\n        /* \"#utility.yul\":1571:1577   */\n      dup5\n        /* \"#utility.yul\":1527:1598   */\n      tag_72\n      jump\t// in\n    tag_108:\n        /* \"#utility.yul\":1383:1605   */\n      swap3\n      swap2\n      pop\n      pop\n      jump\t// out\n        /* \"#utility.yul\":1611:1733   */\n    tag_73:\n        /* \"#utility.yul\":1684:1708   */\n      tag_110\n        /* \"#utility.yul\":1702:1707   */\n      dup2\n        /* \"#utility.yul\":1684:1708   */\n      tag_71\n      jump\t// in\n    tag_110:\n        /* \"#utility.yul\":1677:1682   */\n      dup2\n        /* \"#utility.yul\":1674:1709   */\n      eq\n        /* \"#utility.yul\":1664:1727   */\n      tag_111\n      jumpi\n        /* \"#utility.yul\":1723:1724   */\n      0x00\n        /* \"#utility.yul\":1720:1721   */\n      dup1\n        /* \"#utility.yul\":1713:1725   */\n      revert\n        /* \"#utility.yul\":1664:1727   */\n    tag_111:\n        /* \"#utility.yul\":1611:1733   */\n      pop\n      jump\t// out\n        /* \"#utility.yul\":1739:1878   */\n    tag_74:\n        /* \"#utility.yul\":1785:1790   */\n      0x00\n        /* \"#utility.yul\":1823:1829   */\n      dup2\n        /* \"#utility.yul\":1810:1830   */\n      calldataload\n        /* \"#utility.yul\":1801:1830   */\n      swap1\n      pop\n        /* \"#utility.yul\":1839:1872   */\n      tag_113\n        /* \"#utility.yul\":1866:1871   */\n      dup2\n        /* \"#utility.yul\":1839:1872   */\n      tag_73\n      jump\t// in\n    tag_113:\n        /* \"#utility.yul\":1739:1878   */\n      swap3\n      swap2\n      pop\n      pop\n      jump\t// out\n        /* \"#utility.yul\":1884:2213   */\n    tag_18:\n        /* \"#utility.yul\":1943:1949   */\n      0x00\n        /* \"#utility.yul\":1992:1994   */\n      0x20\n        /* \"#utility.yul\":1980:1989   */\n      dup3\n        /* \"#utility.yul\":1971:1978   */\n      dup5\n        /* \"#utility.yul\":1967:1990   */\n      sub\n        /* \"#utility.yul\":1963:1995   */\n      slt\n        /* \"#utility.yul\":1960:2079   */\n      iszero\n      tag_115\n      jumpi\n        /* \"#utility.yul\":1998:2077   */\n      tag_116\n      tag_65\n      jump\t// in\n    tag_116:\n        /* \"#utility.yul\":1960:2079   */\n    tag_115:\n        /* \"#utility.yul\":2118:2119   */\n      0x00\n        /* \"#utility.yul\":2143:2196   */\n      tag_117\n        /* \"#utility.yul\":2188:2195   */\n      dup5\n        /* \"#utility.yul\":2179:2185   */\n      dup3\n        /* \"#utility.yul\":2168:2177   */\n      dup6\n        /* \"#utility.yul\":2164:2186   */\n      add\n        /* \"#utility.yul\":2143:2196   */\n      tag_74\n      jump\t// in\n    tag_117:\n        /* \"#utility.yul\":2133:2196   */\n      swap2\n      pop\n        /* \"#utility.yul\":2089:2206   */\n      pop\n        /* \"#utility.yul\":1884:2213   */\n      swap3\n      swap2\n      pop\n      pop\n      jump\t// out\n        /* \"#utility.yul\":2219:2337   */\n    tag_75:\n        /* \"#utility.yul\":2306:2330   */\n      tag_119\n        /* \"#utility.yul\":2324:2329   */\n      dup2\n        /* \"#utility.yul\":2306:2330   */\n      tag_68\n      jump\t// in\n    tag_119:\n        /* \"#utility.yul\":2301:2304   */\n      dup3\n        /* \"#utility.yul\":2294:2331   */\n      mstore\n        /* \"#utility.yul\":2219:2337   */\n      pop\n      pop\n      jump\t// out\n        /* \"#utility.yul\":2343:2565   */\n    tag_34:\n        /* \"#utility.yul\":2436:2440   */\n      0x00\n        /* \"#utility.yul\":2474:2476   */\n      0x20\n        /* \"#utility.yul\":2463:2472   */\n      dup3\n        /* \"#utility.yul\":2459:2477   */\n      add\n        /* \"#utility.yul\":2451:2477   */\n      swap1\n      pop\n        /* \"#utility.yul\":2487:2558   */\n      tag_121\n        /* \"#utility.yul\":2555:2556   */\n      0x00\n        /* \"#utility.yul\":2544:2553   */\n      dup4\n        /* \"#utility.yul\":2540:2557   */\n      add\n        /* \"#utility.yul\":2531:2537   */\n      dup5\n        /* \"#utility.yul\":2487:2558   */\n      tag_75\n      jump\t// in\n    tag_121:\n        /* \"#utility.yul\":2343:2565   */\n      swap3\n      swap2\n      pop\n      pop\n      jump\t// out\n        /* \"#utility.yul\":2571:2740   */\n    tag_76:\n        /* \"#utility.yul\":2655:2666   */\n      0x00\n        /* \"#utility.yul\":2689:2695   */\n      dup3\n        /* \"#utility.yul\":2684:2687   */\n      dup3\n        /* \"#utility.yul\":2677:2696   */\n      mstore\n        /* \"#utility.yul\":2729:2733   */\n      0x20\n        /* \"#utility.yul\":2724:2727   */\n      dup3\n        /* \"#utility.yul\":2720:2734   */\n      add\n        /* \"#utility.yul\":2705:2734   */\n      swap1\n      pop\n        /* \"#utility.yul\":2571:2740   */\n      swap3\n      swap2\n      pop\n      pop\n      jump\t// out\n        /* \"#utility.yul\":2746:2976   */\n    tag_77:\n        /* \"#utility.yul\":2886:2920   */\n      0x43616e6e6f74207769746864726177206d6f7265207468616e20617661696c61\n        /* \"#utility.yul\":2882:2883   */\n      0x00\n        /* \"#utility.yul\":2874:2880   */\n      dup3\n        /* \"#utility.yul\":2870:2884   */\n      add\n        /* \"#utility.yul\":2863:2921   */\n      mstore\n        /* \"#utility.yul\":2955:2968   */\n      0x626c652062616c616e6365000000000000000000000000000000000000000000\n        /* \"#utility.yul\":2950:2952   */\n      0x20\n        /* \"#utility.yul\":2942:2948   */\n      dup3\n        /* \"#utility.yul\":2938:2953   */\n      add\n        /* \"#utility.yul\":2931:2969   */\n      mstore\n        /* \"#utility.yul\":2746:2976   */\n      pop\n      jump\t// out\n        /* \"#utility.yul\":2982:3348   */\n    tag_78:\n        /* \"#utility.yul\":3124:3127   */\n      0x00\n        /* \"#utility.yul\":3145:3212   */\n      tag_125\n        /* \"#utility.yul\":3209:3211   */\n      0x2b\n        /* \"#utility.yul\":3204:3207   */\n      dup4\n        /* \"#utility.yul\":3145:3212   */\n      tag_76\n      jump\t// in\n    tag_125:\n        /* \"#utility.yul\":3138:3212   */\n      swap2\n      pop\n        /* \"#utility.yul\":3221:3314   */\n      tag_126\n        /* \"#utility.yul\":3310:3313   */\n      dup3\n        /* \"#utility.yul\":3221:3314   */\n      tag_77\n      jump\t// in\n    tag_126:\n        /* \"#utility.yul\":3339:3341   */\n      0x40\n        /* \"#utility.yul\":3334:3337   */\n      dup3\n        /* \"#utility.yul\":3330:3342   */\n      add\n        /* \"#utility.yul\":3323:3342   */\n      swap1\n      pop\n        /* \"#utility.yul\":2982:3348   */\n      swap2\n      swap1\n      pop\n      jump\t// out\n        /* \"#utility.yul\":3354:3773   */\n    tag_38:\n        /* \"#utility.yul\":3520:3524   */\n      0x00\n        /* \"#utility.yul\":3558:3560   */\n      0x20\n        /* \"#utility.yul\":3547:3556   */\n      dup3\n        /* \"#utility.yul\":3543:3561   */\n      add\n        /* \"#utility.yul\":3535:3561   */\n      swap1\n      pop\n        /* \"#utility.yul\":3607:3616   */\n      dup2\n        /* \"#utility.yul\":3601:3605   */\n      dup2\n        /* \"#utility.yul\":3597:3617   */\n      sub\n        /* \"#utility.yul\":3593:3594   */\n      0x00\n        /* \"#utility.yul\":3582:3591   */\n      dup4\n        /* \"#utility.yul\":3578:3595   */\n      add\n        /* \"#utility.yul\":3571:3618   */\n      mstore\n        /* \"#utility.yul\":3635:3766   */\n      tag_128\n        /* \"#utility.yul\":3761:3765   */\n      dup2\n        /* \"#utility.yul\":3635:3766   */\n      tag_78\n      jump\t// in\n    tag_128:\n        /* \"#utility.yul\":3627:3766   */\n      swap1\n      pop\n        /* \"#utility.yul\":3354:3773   */\n      swap2\n      swap1\n      pop\n      jump\t// out\n        /* \"#utility.yul\":3779:3959   */\n    tag_79:\n        /* \"#utility.yul\":3827:3904   */\n      0x4e487b7100000000000000000000000000000000000000000000000000000000\n        /* \"#utility.yul\":3824:3825   */\n      0x00\n        /* \"#utility.yul\":3817:3905   */\n      mstore\n        /* \"#utility.yul\":3924:3928   */\n      0x11\n        /* \"#utility.yul\":3921:3922   */\n      0x04\n        /* \"#utility.yul\":3914:3929   */\n      mstore\n        /* \"#utility.yul\":3948:3952   */\n      0x24\n        /* \"#utility.yul\":3945:3946   */\n      0x00\n        /* \"#utility.yul\":3938:3953   */\n      revert\n        /* \"#utility.yul\":3965:4159   */\n    tag_40:\n        /* \"#utility.yul\":4005:4009   */\n      0x00\n        /* \"#utility.yul\":4025:4045   */\n      tag_131\n        /* \"#utility.yul\":4043:4044   */\n      dup3\n        /* \"#utility.yul\":4025:4045   */\n      tag_71\n      jump\t// in\n    tag_131:\n        /* \"#utility.yul\":4020:4045   */\n      swap2\n      pop\n        /* \"#utility.yul\":4059:4079   */\n      tag_132\n        /* \"#utility.yul\":4077:4078   */\n      dup4\n        /* \"#utility.yul\":4059:4079   */\n      tag_71\n      jump\t// in\n    tag_132:\n        /* \"#utility.yul\":4054:4079   */\n      swap3\n      pop\n        /* \"#utility.yul\":4103:4104   */\n      dup3\n        /* \"#utility.yul\":4100:4101   */\n      dup3\n        /* \"#utility.yul\":4096:4105   */\n      sub\n        /* \"#utility.yul\":4088:4105   */\n      swap1\n      pop\n        /* \"#utility.yul\":4127:4128   */\n      dup2\n        /* \"#utility.yul\":4121:4125   */\n      dup2\n        /* \"#utility.yul\":4118:4129   */\n      gt\n        /* \"#utility.yul\":4115:4152   */\n      iszero\n      tag_133\n      jumpi\n        /* \"#utility.yul\":4132:4150   */\n      tag_134\n      tag_79\n      jump\t// in\n    tag_134:\n        /* \"#utility.yul\":4115:4152   */\n    tag_133:\n        /* \"#utility.yul\":3965:4159   */\n      swap3\n      swap2\n      pop\n      pop\n      jump\t// out\n        /* \"#utility.yul\":4165:4312   */\n    tag_80:\n        /* \"#utility.yul\":4266:4277   */\n      0x00\n        /* \"#utility.yul\":4303:4306   */\n      dup2\n        /* \"#utility.yul\":4288:4306   */\n      swap1\n      pop\n        /* \"#utility.yul\":4165:4312   */\n      swap3\n      swap2\n      pop\n      pop\n      jump\t// out\n        /* \"#utility.yul\":4318:4432   */\n    tag_81:\n      pop\n      jump\t// out\n        /* \"#utility.yul\":4438:4836   */\n    tag_82:\n        /* \"#utility.yul\":4597:4600   */\n      0x00\n        /* \"#utility.yul\":4618:4701   */\n      tag_138\n        /* \"#utility.yul\":4699:4700   */\n      0x00\n        /* \"#utility.yul\":4694:4697   */\n      dup4\n        /* \"#utility.yul\":4618:4701   */\n      tag_80\n      jump\t// in\n    tag_138:\n        /* \"#utility.yul\":4611:4701   */\n      swap2\n      pop\n        /* \"#utility.yul\":4710:4803   */\n      tag_139\n        /* \"#utility.yul\":4799:4802   */\n      dup3\n        /* \"#utility.yul\":4710:4803   */\n      tag_81\n      jump\t// in\n    tag_139:\n        /* \"#utility.yul\":4828:4829   */\n      0x00\n        /* \"#utility.yul\":4823:4826   */\n      dup3\n        /* \"#utility.yul\":4819:4830   */\n      add\n        /* \"#utility.yul\":4812:4830   */\n      swap1\n      pop\n        /* \"#utility.yul\":4438:4836   */\n      swap2\n      swap1\n      pop\n      jump\t// out\n        /* \"#utility.yul\":4842:5221   */\n    tag_42:\n        /* \"#utility.yul\":5026:5029   */\n      0x00\n        /* \"#utility.yul\":5048:5195   */\n      tag_141\n        /* \"#utility.yul\":5191:5194   */\n      dup3\n        /* \"#utility.yul\":5048:5195   */\n      tag_82\n      jump\t// in\n    tag_141:\n        /* \"#utility.yul\":5041:5195   */\n      swap2\n      pop\n        /* \"#utility.yul\":5212:5215   */\n      dup2\n        /* \"#utility.yul\":5205:5215   */\n      swap1\n      pop\n        /* \"#utility.yul\":4842:5221   */\n      swap2\n      swap1\n      pop\n      jump\t// out\n        /* \"#utility.yul\":5227:5392   */\n    tag_83:\n        /* \"#utility.yul\":5367:5384   */\n      0x5769746864726177206661696c65640000000000000000000000000000000000\n        /* \"#utility.yul\":5363:5364   */\n      0x00\n        /* \"#utility.yul\":5355:5361   */\n      dup3\n        /* \"#utility.yul\":5351:5365   */\n      add\n        /* \"#utility.yul\":5344:5385   */\n      mstore\n        /* \"#utility.yul\":5227:5392   */\n      pop\n      jump\t// out\n        /* \"#utility.yul\":5398:5764   */\n    tag_84:\n        /* \"#utility.yul\":5540:5543   */\n      0x00\n        /* \"#utility.yul\":5561:5628   */\n      tag_144\n        /* \"#utility.yul\":5625:5627   */\n      0x0f\n        /* \"#utility.yul\":5620:5623   */\n      dup4\n        /* \"#utility.yul\":5561:5628   */\n      tag_76\n      jump\t// in\n    tag_144:\n        /* \"#utility.yul\":5554:5628   */\n      swap2\n      pop\n        /* \"#utility.yul\":5637:5730   */\n      tag_145\n        /* \"#utility.yul\":5726:5729   */\n      dup3\n        /* \"#utility.yul\":5637:5730   */\n      tag_83\n      jump\t// in\n    tag_145:\n        /* \"#utility.yul\":5755:5757   */\n      0x20\n        /* \"#utility.yul\":5750:5753   */\n      dup3\n        /* \"#utility.yul\":5746:5758   */\n      add\n        /* \"#utility.yul\":5739:5758   */\n      swap1\n      pop\n        /* \"#utility.yul\":5398:5764   */\n      swap2\n      swap1\n      pop\n      jump\t// out\n        /* \"#utility.yul\":5770:6189   */\n    tag_48:\n        /* \"#utility.yul\":5936:5940   */\n      0x00\n        /* \"#utility.yul\":5974:5976   */\n      0x20\n        /* \"#utility.yul\":5963:5972   */\n      dup3\n        /* \"#utility.yul\":5959:5977   */\n      add\n        /* \"#utility.yul\":5951:5977   */\n      swap1\n      pop\n        /* \"#utility.yul\":6023:6032   */\n      dup2\n        /* \"#utility.yul\":6017:6021   */\n      dup2\n        /* \"#utility.yul\":6013:6033   */\n      sub\n        /* \"#utility.yul\":6009:6010   */\n      0x00\n        /* \"#utility.yul\":5998:6007   */\n      dup4\n        /* \"#utility.yul\":5994:6011   */\n      add\n        /* \"#utility.yul\":5987:6034   */\n      mstore\n        /* \"#utility.yul\":6051:6182   */\n      tag_147\n        /* \"#utility.yul\":6177:6181   */\n      dup2\n        /* \"#utility.yul\":6051:6182   */\n      tag_84\n      jump\t// in\n    tag_147:\n        /* \"#utility.yul\":6043:6182   */\n      swap1\n      pop\n        /* \"#utility.yul\":5770:6189   */\n      swap2\n      swap1\n      pop\n      jump\t// out\n        /* \"#utility.yul\":6195:6527   */\n    tag_50:\n        /* \"#utility.yul\":6316:6320   */\n      0x00\n        /* \"#utility.yul\":6354:6356   */\n      0x40\n        /* \"#utility.yul\":6343:6352   */\n      dup3\n        /* \"#utility.yul\":6339:6357   */\n      add\n        /* \"#utility.yul\":6331:6357   */\n      swap1\n      pop\n        /* \"#utility.yul\":6367:6438   */\n      tag_149\n        /* \"#utility.yul\":6435:6436   */\n      0x00\n        /* \"#utility.yul\":6424:6433   */\n      dup4\n        /* \"#utility.yul\":6420:6437   */\n      add\n        /* \"#utility.yul\":6411:6417   */\n      dup6\n        /* \"#utility.yul\":6367:6438   */\n      tag_75\n      jump\t// in\n    tag_149:\n        /* \"#utility.yul\":6448:6520   */\n      tag_150\n        /* \"#utility.yul\":6516:6518   */\n      0x20\n        /* \"#utility.yul\":6505:6514   */\n      dup4\n        /* \"#utility.yul\":6501:6519   */\n      add\n        /* \"#utility.yul\":6492:6498   */\n      dup5\n        /* \"#utility.yul\":6448:6520   */\n      tag_72\n      jump\t// in\n    tag_150:\n        /* \"#utility.yul\":6195:6527   */\n      swap4\n      swap3\n      pop\n      pop\n      pop\n      jump\t// out\n        /* \"#utility.yul\":6533:6695   */\n    tag_85:\n        /* \"#utility.yul\":6673:6687   */\n      0x556e617574686f72697a65640000000000000000000000000000000000000000\n        /* \"#utility.yul\":6669:6670   */\n      0x00\n        /* \"#utility.yul\":6661:6667   */\n      dup3\n        /* \"#utility.yul\":6657:6671   */\n      add\n        /* \"#utility.yul\":6650:6688   */\n      mstore\n        /* \"#utility.yul\":6533:6695   */\n      pop\n      jump\t// out\n        /* \"#utility.yul\":6701:7067   */\n    tag_86:\n        /* \"#utility.yul\":6843:6846   */\n      0x00\n        /* \"#utility.yul\":6864:6931   */\n      tag_153\n        /* \"#utility.yul\":6928:6930   */\n      0x0c\n        /* \"#utility.yul\":6923:6926   */\n      dup4\n        /* \"#utility.yul\":6864:6931   */\n      tag_76\n      jump\t// in\n    tag_153:\n        /* \"#utility.yul\":6857:6931   */\n      swap2\n      pop\n        /* \"#utility.yul\":6940:7033   */\n      tag_154\n        /* \"#utility.yul\":7029:7032   */\n      dup3\n        /* \"#utility.yul\":6940:7033   */\n      tag_85\n      jump\t// in\n    tag_154:\n        /* \"#utility.yul\":7058:7060   */\n      0x20\n        /* \"#utility.yul\":7053:7056   */\n      dup3\n        /* \"#utility.yul\":7049:7061   */\n      add\n        /* \"#utility.yul\":7042:7061   */\n      swap1\n      pop\n        /* \"#utility.yul\":6701:7067   */\n      swap2\n      swap1\n      pop\n      jump\t// out\n        /* \"#utility.yul\":7073:7492   */\n    tag_54:\n        /* \"#utility.yul\":7239:7243   */\n      0x00\n        /* \"#utility.yul\":7277:7279   */\n      0x20\n        /* \"#utility.yul\":7266:7275   */\n      dup3\n        /* \"#utility.yul\":7262:7280   */\n      add\n        /* \"#utility.yul\":7254:7280   */\n      swap1\n      pop\n        /* \"#utility.yul\":7326:7335   */\n      dup2\n        /* \"#utility.yul\":7320:7324   */\n      dup2\n        /* \"#utility.yul\":7316:7336   */\n      sub\n        /* \"#utility.yul\":7312:7313   */\n      0x00\n        /* \"#utility.yul\":7301:7310   */\n      dup4\n        /* \"#utility.yul\":7297:7314   */\n      add\n        /* \"#utility.yul\":7290:7337   */\n      mstore\n        /* \"#utility.yul\":7354:7485   */\n      tag_156\n        /* \"#utility.yul\":7480:7484   */\n      dup2\n        /* \"#utility.yul\":7354:7485   */\n      tag_86\n      jump\t// in\n    tag_156:\n        /* \"#utility.yul\":7346:7485   */\n      swap1\n      pop\n        /* \"#utility.yul\":7073:7492   */\n      swap2\n      swap1\n      pop\n      jump\t// out\n        /* \"#utility.yul\":7498:7689   */\n    tag_58:\n        /* \"#utility.yul\":7538:7541   */\n      0x00\n        /* \"#utility.yul\":7557:7577   */\n      tag_158\n        /* \"#utility.yul\":7575:7576   */\n      dup3\n        /* \"#utility.yul\":7557:7577   */\n      tag_71\n      jump\t// in\n    tag_158:\n        /* \"#utility.yul\":7552:7577   */\n      swap2\n      pop\n        /* \"#utility.yul\":7591:7611   */\n      tag_159\n        /* \"#utility.yul\":7609:7610   */\n      dup4\n        /* \"#utility.yul\":7591:7611   */\n      tag_71\n      jump\t// in\n    tag_159:\n        /* \"#utility.yul\":7586:7611   */\n      swap3\n      pop\n        /* \"#utility.yul\":7634:7635   */\n      dup3\n        /* \"#utility.yul\":7631:7632   */\n      dup3\n        /* \"#utility.yul\":7627:7636   */\n      add\n        /* \"#utility.yul\":7620:7636   */\n      swap1\n      pop\n        /* \"#utility.yul\":7655:7658   */\n      dup1\n        /* \"#utility.yul\":7652:7653   */\n      dup3\n        /* \"#utility.yul\":7649:7659   */\n      gt\n        /* \"#utility.yul\":7646:7682   */\n      iszero\n      tag_160\n      jumpi\n        /* \"#utility.yul\":7662:7680   */\n      tag_161\n      tag_79\n      jump\t// in\n    tag_161:\n        /* \"#utility.yul\":7646:7682   */\n    tag_160:\n        /* \"#utility.yul\":7498:7689   */\n      swap3\n      swap2\n      pop\n      pop\n      jump\t// out\n        /* \"#utility.yul\":7695:8059   */\n    tag_87:\n        /* \"#utility.yul\":7837:7840   */\n      0x00\n        /* \"#utility.yul\":7858:7924   */\n      tag_163\n        /* \"#utility.yul\":7922:7923   */\n      0x00\n        /* \"#utility.yul\":7917:7920   */\n      dup4\n        /* \"#utility.yul\":7858:7924   */\n      tag_76\n      jump\t// in\n    tag_163:\n        /* \"#utility.yul\":7851:7924   */\n      swap2\n      pop\n        /* \"#utility.yul\":7933:8026   */\n      tag_164\n        /* \"#utility.yul\":8022:8025   */\n      dup3\n        /* \"#utility.yul\":7933:8026   */\n      tag_81\n      jump\t// in\n    tag_164:\n        /* \"#utility.yul\":8051:8052   */\n      0x00\n        /* \"#utility.yul\":8046:8049   */\n      dup3\n        /* \"#utility.yul\":8042:8053   */\n      add\n        /* \"#utility.yul\":8035:8053   */\n      swap1\n      pop\n        /* \"#utility.yul\":7695:8059   */\n      swap2\n      swap1\n      pop\n      jump\t// out\n        /* \"#utility.yul\":8065:8484   */\n    tag_61:\n        /* \"#utility.yul\":8231:8235   */\n      0x00\n        /* \"#utility.yul\":8269:8271   */\n      0x20\n        /* \"#utility.yul\":8258:8267   */\n      dup3\n        /* \"#utility.yul\":8254:8272   */\n      add\n        /* \"#utility.yul\":8246:8272   */\n      swap1\n      pop\n        /* \"#utility.yul\":8318:8327   */\n      dup2\n        /* \"#utility.yul\":8312:8316   */\n      dup2\n        /* \"#utility.yul\":8308:8328   */\n      sub\n        /* \"#utility.yul\":8304:8305   */\n      0x00\n        /* \"#utility.yul\":8293:8302   */\n      dup4\n        /* \"#utility.yul\":8289:8306   */\n      add\n        /* \"#utility.yul\":8282:8329   */\n      mstore\n        /* \"#utility.yul\":8346:8477   */\n      tag_166\n        /* \"#utility.yul\":8472:8476   */\n      dup2\n        /* \"#utility.yul\":8346:8477   */\n      tag_87\n      jump\t// in\n    tag_166:\n        /* \"#utility.yul\":8338:8477   */\n      swap1\n      pop\n        /* \"#utility.yul\":8065:8484   */\n      swap2\n      swap1\n      pop\n      jump\t// out\n\n    auxdata: 0xa2646970667358221220953a725f2371675ceb89725d6a743f2c7ae49e553bae84b086b81dd3c843f33564736f6c634300081a0033\n}\n",
				"bytecode": {
					"linkReferences": {},
					"object": "608060405234801561000f575f80fd5b50604051610a59380380610a598339818101604052810190610031919061010f565b815f819055508060015f6101000a81548173ffffffffffffffffffffffffffffffffffffffff021916908373ffffffffffffffffffffffffffffffffffffffff160217905550505061014d565b5f80fd5b5f819050919050565b61009481610082565b811461009e575f80fd5b50565b5f815190506100af8161008b565b92915050565b5f73ffffffffffffffffffffffffffffffffffffffff82169050919050565b5f6100de826100b5565b9050919050565b6100ee816100d4565b81146100f8575f80fd5b50565b5f81519050610109816100e5565b92915050565b5f80604083850312156101255761012461007e565b5b5f610132858286016100a1565b9250506020610143858286016100fb565b9150509250929050565b6108ff8061015a5f395ff3fe608060405260043610610054575f3560e01c80630103c92b146100585780632e1a7d4d1461009457806373ad468a146100bc5780639b274b4f146100e6578063d0e30db01461010e578063f851a44014610118575b5f80fd5b348015610063575f80fd5b5061007e60048036038101906100799190610549565b610142565b60405161008b919061058c565b60405180910390f35b34801561009f575f80fd5b506100ba60048036038101906100b591906105cf565b610157565b005b3480156100c7575f80fd5b506100d061030f565b6040516100dd919061058c565b60405180910390f35b3480156100f1575f80fd5b5061010c600480360381019061010791906105cf565b610314565b005b6101166103ac565b005b348015610123575f80fd5b5061012c6104c6565b6040516101399190610609565b60405180910390f35b6002602052805f5260405f205f915090505481565b60025f3373ffffffffffffffffffffffffffffffffffffffff1673ffffffffffffffffffffffffffffffffffffffff1681526020019081526020015f20548111156101d7576040517f08c379a00000000000000000000000000000000000000000000000000000000081526004016101ce906106a2565b60405180910390fd5b8060025f3373ffffffffffffffffffffffffffffffffffffffff1673ffffffffffffffffffffffffffffffffffffffff1681526020019081526020015f205f82825461022391906106ed565b925050819055505f3373ffffffffffffffffffffffffffffffffffffffff168260405161024f9061074d565b5f6040518083038185875af1925050503d805f8114610289576040519150601f19603f3d011682016040523d82523d5f602084013e61028e565b606091505b50509050806102d2576040517f08c379a00000000000000000000000000000000000000000000000000000000081526004016102c9906107ab565b60405180910390fd5b7fccbd99ba6da8f29b2a4f65e474e3c3973564d356c162c08d45f3dc7f0cb5b3aa33836040516103039291906107c9565b60405180910390a15050565b5f5481565b60015f9054906101000a900473ffffffffffffffffffffffffffffffffffffffff1673ffffffffffffffffffffffffffffffffffffffff163373ffffffffffffffffffffffffffffffffffffffff16146103a3576040517f08c379a000000000000000000000000000000000000000000000000000000000815260040161039a9061083a565b60405180910390fd5b805f8190555050565b5f543460025f3373ffffffffffffffffffffffffffffffffffffffff1673ffffffffffffffffffffffffffffffffffffffff1681526020019081526020015f20546103f79190610858565b1115610438576040517f08c379a000000000000000000000000000000000000000000000000000000000815260040161042f906108ab565b60405180910390fd5b3460025f3373ffffffffffffffffffffffffffffffffffffffff1673ffffffffffffffffffffffffffffffffffffffff1681526020019081526020015f205f8282546104849190610858565b925050819055507f7034bb05cfe54b0d147fc0574ed166101e7f0313eb404e113974fbe2a998ca8333346040516104bc9291906107c9565b60405180910390a1565b60015f9054906101000a900473ffffffffffffffffffffffffffffffffffffffff1681565b5f80fd5b5f73ffffffffffffffffffffffffffffffffffffffff82169050919050565b5f610518826104ef565b9050919050565b6105288161050e565b8114610532575f80fd5b50565b5f813590506105438161051f565b92915050565b5f6020828403121561055e5761055d6104eb565b5b5f61056b84828501610535565b91505092915050565b5f819050919050565b61058681610574565b82525050565b5f60208201905061059f5f83018461057d565b92915050565b6105ae81610574565b81146105b8575f80fd5b50565b5f813590506105c9816105a5565b92915050565b5f602082840312156105e4576105e36104eb565b5b5f6105f1848285016105bb565b91505092915050565b6106038161050e565b82525050565b5f60208201905061061c5f8301846105fa565b92915050565b5f82825260208201905092915050565b7f43616e6e6f74207769746864726177206d6f7265207468616e20617661696c615f8201527f626c652062616c616e6365000000000000000000000000000000000000000000602082015250565b5f61068c602b83610622565b915061069782610632565b604082019050919050565b5f6020820190508181035f8301526106b981610680565b9050919050565b7f4e487b71000000000000000000000000000000000000000000000000000000005f52601160045260245ffd5b5f6106f782610574565b915061070283610574565b925082820390508181111561071a576107196106c0565b5b92915050565b5f81905092915050565b50565b5f6107385f83610720565b91506107438261072a565b5f82019050919050565b5f6107578261072d565b9150819050919050565b7f5769746864726177206661696c656400000000000000000000000000000000005f82015250565b5f610795600f83610622565b91506107a082610761565b602082019050919050565b5f6020820190508181035f8301526107c281610789565b9050919050565b5f6040820190506107dc5f8301856105fa565b6107e9602083018461057d565b9392505050565b7f556e617574686f72697a656400000000000000000000000000000000000000005f82015250565b5f610824600c83610622565b915061082f826107f0565b602082019050919050565b5f6020820190508181035f83015261085181610818565b9050919050565b5f61086282610574565b915061086d83610574565b9250828201905080821115610885576108846106c0565b5b92915050565b5f6108965f83610622565b91506108a18261072a565b5f82019050919050565b5f6020820190508181035f8301526108c28161088b565b905091905056fea2646970667358221220953a725f2371675ceb89725d6a743f2c7ae49e553bae84b086b81dd3c843f33564736f6c634300081a0033",
					"opcodes": "PUSH1 0x80 PUSH1 0x40 MSTORE CALLVALUE DUP1 ISZERO PUSH2 0xF JUMPI PUSH0 DUP1 REVERT JUMPDEST POP PUSH1 0x40 MLOAD PUSH2 0xA59 CODESIZE SUB DUP1 PUSH2 0xA59 DUP4 CODECOPY DUP2 DUP2 ADD PUSH1 0x40 MSTORE DUP2 ADD SWAP1 PUSH2 0x31 SWAP2 SWAP1 PUSH2 0x10F JUMP JUMPDEST DUP2 PUSH0 DUP2 SWAP1 SSTORE POP DUP1 PUSH1 0x1 PUSH0 PUSH2 0x100 EXP DUP2 SLOAD DUP2 PUSH20 0xFFFFFFFFFFFFFFFFFFFFFFFFFFFFFFFFFFFFFFFF MUL NOT AND SWAP1 DUP4 PUSH20 0xFFFFFFFFFFFFFFFFFFFFFFFFFFFFFFFFFFFFFFFF AND MUL OR SWAP1 SSTORE POP POP POP PUSH2 0x14D JUMP JUMPDEST PUSH0 DUP1 REVERT JUMPDEST PUSH0 DUP2 SWAP1 POP SWAP2 SWAP1 POP JUMP JUMPDEST PUSH2 0x94 DUP2 PUSH2 0x82 JUMP JUMPDEST DUP2 EQ PUSH2 0x9E JUMPI PUSH0 DUP1 REVERT JUMPDEST POP JUMP JUMPDEST PUSH0 DUP2 MLOAD SWAP1 POP PUSH2 0xAF DUP2 PUSH2 0x8B JUMP JUMPDEST SWAP3 SWAP2 POP POP JUMP JUMPDEST PUSH0 PUSH20 0xFFFFFFFFFFFFFFFFFFFFFFFFFFFFFFFFFFFFFFFF DUP3 AND SWAP1 POP SWAP2 SWAP1 POP JUMP JUMPDEST PUSH0 PUSH2 0xDE DUP3 PUSH2 0xB5 JUMP JUMPDEST SWAP1 POP SWAP2 SWAP1 POP JUMP JUMPDEST PUSH2 0xEE DUP2 PUSH2 0xD4 JUMP JUMPDEST DUP2 EQ PUSH2 0xF8 JUMPI PUSH0 DUP1 REVERT JUMPDEST POP JUMP JUMPDEST PUSH0 DUP2 MLOAD SWAP1 POP PUSH2 0x109 DUP2 PUSH2 0xE5 JUMP JUMPDEST SWAP3 SWAP2 POP POP JUMP JUMPDEST PUSH0 DUP1 PUSH1 0x40 DUP4 DUP6 SUB SLT ISZERO PUSH2 0x125 JUMPI PUSH2 0x124 PUSH2 0x7E JUMP JUMPDEST JUMPDEST PUSH0 PUSH2 0x132 DUP6 DUP3 DUP7 ADD PUSH2 0xA1 JUMP JUMPDEST SWAP3 POP POP PUSH1 0x20 PUSH2 0x143 DUP6 DUP3 DUP7 ADD PUSH2 0xFB JUMP JUMPDEST SWAP2 POP POP SWAP3 POP SWAP3 SWAP1 POP JUMP JUMPDEST PUSH2 0x8FF DUP1 PUSH2 0x15A PUSH0 CODECOPY PUSH0 RETURN INVALID PUSH1 0x80 PUSH1 0x40 MSTORE PUSH1 0x4 CALLDATASIZE LT PUSH2 0x54 JUMPI PUSH0 CALLDATALOAD PUSH1 0xE0 SHR DUP1 PUSH4 0x103C92B EQ PUSH2 0x58 JUMPI DUP1 PUSH4 0x2E1A7D4D EQ PUSH2 0x94 JUMPI DUP1 PUSH4 0x73AD468A EQ PUSH2 0xBC JUMPI DUP1 PUSH4 0x9B274B4F EQ PUSH2 0xE6 JUMPI DUP1 PUSH4 0xD0E30DB0 EQ PUSH2 0x10E JUMPI DUP1 PUSH4 0xF851A440 EQ PUSH2 0x118 JUMPI JUMPDEST PUSH0 DUP1 REVERT JUMPDEST CALLVALUE DUP1 ISZERO PUSH2 0x63 JUMPI PUSH0 DUP1 REVERT JUMPDEST POP PUSH2 0x7E PUSH1 0x4 DUP1 CALLDATASIZE SUB DUP2 ADD SWAP1 PUSH2 0x79 SWAP2 SWAP1 PUSH2 0x549 JUMP JUMPDEST PUSH2 0x142 JUMP JUMPDEST PUSH1 0x40 MLOAD PUSH2 0x8B SWAP2 SWAP1 PUSH2 0x58C JUMP JUMPDEST PUSH1 0x40 MLOAD DUP1 SWAP2 SUB SWAP1 RETURN JUMPDEST CALLVALUE DUP1 ISZERO PUSH2 0x9F JUMPI PUSH0 DUP1 REVERT JUMPDEST POP PUSH2 0xBA PUSH1 0x4 DUP1 CALLDATASIZE SUB DUP2 ADD SWAP1 PUSH2 0xB5 SWAP2 SWAP1 PUSH2 0x5CF JUMP JUMPDEST PUSH2 0x157 JUMP JUMPDEST STOP JUMPDEST CALLVALUE DUP1 ISZERO PUSH2 0xC7 JUMPI PUSH0 DUP1 REVERT JUMPDEST POP PUSH2 0xD0 PUSH2 0x30F JUMP JUMPDEST PUSH1 0x40 MLOAD PUSH2 0xDD SWAP2 SWAP1 PUSH2 0x58C JUMP JUMPDEST PUSH1 0x40 MLOAD DUP1 SWAP2 SUB SWAP1 RETURN JUMPDEST CALLVALUE DUP1 ISZERO PUSH2 0xF1 JUMPI PUSH0 DUP1 REVERT JUMPDEST POP PUSH2 0x10C PUSH1 0x4 DUP1 CALLDATASIZE SUB DUP2 ADD SWAP1 PUSH2 0x107 SWAP2 SWAP1 PUSH2 0x5CF JUMP JUMPDEST PUSH2 0x314 JUMP JUMPDEST STOP JUMPDEST PUSH2 0x116 PUSH2 0x3AC JUMP JUMPDEST STOP JUMPDEST CALLVALUE DUP1 ISZERO PUSH2 0x123 JUMPI PUSH0 DUP1 REVERT JUMPDEST POP PUSH2 0x12C PUSH2 0x4C6 JUMP JUMPDEST PUSH1 0x40 MLOAD PUSH2 0x139 SWAP2 SWAP1 PUSH2 0x609 JUMP JUMPDEST PUSH1 0x40 MLOAD DUP1 SWAP2 SUB SWAP1 RETURN JUMPDEST PUSH1 0x2 PUSH1 0x20 MSTORE DUP1 PUSH0 MSTORE PUSH1 0x40 PUSH0 KECCAK256 PUSH0 SWAP2 POP SWAP1 POP SLOAD DUP2 JUMP JUMPDEST PUSH1 0x2 PUSH0 CALLER PUSH20 0xFFFFFFFFFFFFFFFFFFFFFFFFFFFFFFFFFFFFFFFF AND PUSH20 0xFFFFFFFFFFFFFFFFFFFFFFFFFFFFFFFFFFFFFFFF AND DUP2 MSTORE PUSH1 0x20 ADD SWAP1 DUP2 MSTORE PUSH1 0x20 ADD PUSH0 KECCAK256 SLOAD DUP2 GT ISZERO PUSH2 0x1D7 JUMPI PUSH1 0x40 MLOAD PUSH32 0x8C379A000000000000000000000000000000000000000000000000000000000 DUP2 MSTORE PUSH1 0x4 ADD PUSH2 0x1CE SWAP1 PUSH2 0x6A2 JUMP JUMPDEST PUSH1 0x40 MLOAD DUP1 SWAP2 SUB SWAP1 REVERT JUMPDEST DUP1 PUSH1 0x2 PUSH0 CALLER PUSH20 0xFFFFFFFFFFFFFFFFFFFFFFFFFFFFFFFFFFFFFFFF AND PUSH20 0xFFFFFFFFFFFFFFFFFFFFFFFFFFFFFFFFFFFFFFFF AND DUP2 MSTORE PUSH1 0x20 ADD SWAP1 DUP2 MSTORE PUSH1 0x20 ADD PUSH0 KECCAK256 PUSH0 DUP3 DUP3 SLOAD PUSH2 0x223 SWAP2 SWAP1 PUSH2 0x6ED JUMP JUMPDEST SWAP3 POP POP DUP2 SWAP1 SSTORE POP PUSH0 CALLER PUSH20 0xFFFFFFFFFFFFFFFFFFFFFFFFFFFFFFFFFFFFFFFF AND DUP3 PUSH1 0x40 MLOAD PUSH2 0x24F SWAP1 PUSH2 0x74D JUMP JUMPDEST PUSH0 PUSH1 0x40 MLOAD DUP1 DUP4 SUB DUP2 DUP6 DUP8 GAS CALL SWAP3 POP POP POP RETURNDATASIZE DUP1 PUSH0 DUP2 EQ PUSH2 0x289 JUMPI PUSH1 0x40 MLOAD SWAP2 POP PUSH1 0x1F NOT PUSH1 0x3F RETURNDATASIZE ADD AND DUP3 ADD PUSH1 0x40 MSTORE RETURNDATASIZE DUP3 MSTORE RETURNDATASIZE PUSH0 PUSH1 0x20 DUP5 ADD RETURNDATACOPY PUSH2 0x28E JUMP JUMPDEST PUSH1 0x60 SWAP2 POP JUMPDEST POP POP SWAP1 POP DUP1 PUSH2 0x2D2 JUMPI PUSH1 0x40 MLOAD PUSH32 0x8C379A000000000000000000000000000000000000000000000000000000000 DUP2 MSTORE PUSH1 0x4 ADD PUSH2 0x2C9 SWAP1 PUSH2 0x7AB JUMP JUMPDEST PUSH1 0x40 MLOAD DUP1 SWAP2 SUB SWAP1 REVERT JUMPDEST PUSH32 0xCCBD99BA6DA8F29B2A4F65E474E3C3973564D356C162C08D45F3DC7F0CB5B3AA CALLER DUP4 PUSH1 0x40 MLOAD PUSH2 0x303 SWAP3 SWAP2 SWAP1 PUSH2 0x7C9 JUMP JUMPDEST PUSH1 0x40 MLOAD DUP1 SWAP2 SUB SWAP1 LOG1 POP POP JUMP JUMPDEST PUSH0 SLOAD DUP2 JUMP JUMPDEST PUSH1 0x1 PUSH0 SWAP1 SLOAD SWAP1 PUSH2 0x100 EXP SWAP1 DIV PUSH20 0xFFFFFFFFFFFFFFFFFFFFFFFFFFFFFFFFFFFFFFFF AND PUSH20 0xFFFFFFFFFFFFFFFFFFFFFFFFFFFFFFFFFFFFFFFF AND CALLER PUSH20 0xFFFFFFFFFFFFFFFFFFFFFFFFFFFFFFFFFFFFFFFF AND EQ PUSH2 0x3A3 JUMPI PUSH1 0x40 MLOAD PUSH32 0x8C379A000000000000000000000000000000000000000000000000000000000 DUP2 MSTORE PUSH1 0x4 ADD PUSH2 0x39A SWAP1 PUSH2 0x83A JUMP JUMPDEST PUSH1 0x40 MLOAD DUP1 SWAP2 SUB SWAP1 REVERT JUMPDEST DUP1 PUSH0 DUP2 SWAP1 SSTORE POP POP JUMP JUMPDEST PUSH0 SLOAD CALLVALUE PUSH1 0x2 PUSH0 CALLER PUSH20 0xFFFFFFFFFFFFFFFFFFFFFFFFFFFFFFFFFFFFFFFF AND PUSH20 0xFFFFFFFFFFFFFFFFFFFFFFFFFFFFFFFFFFFFFFFF AND DUP2 MSTORE PUSH1 0x20 ADD SWAP1 DUP2 MSTORE PUSH1 0x20 ADD PUSH0 KECCAK256 SLOAD PUSH2 0x3F7 SWAP2 SWAP1 PUSH2 0x858 JUMP JUMPDEST GT ISZERO PUSH2 0x438 JUMPI PUSH1 0x40 MLOAD PUSH32 0x8C379A000000000000000000000000000000000000000000000000000000000 DUP2 MSTORE PUSH1 0x4 ADD PUSH2 0x42F SWAP1 PUSH2 0x8AB JUMP JUMPDEST PUSH1 0x40 MLOAD DUP1 SWAP2 SUB SWAP1 REVERT JUMPDEST CALLVALUE PUSH1 0x2 PUSH0 CALLER PUSH20 0xFFFFFFFFFFFFFFFFFFFFFFFFFFFFFFFFFFFFFFFF AND PUSH20 0xFFFFFFFFFFFFFFFFFFFFFFFFFFFFFFFFFFFFFFFF AND DUP2 MSTORE PUSH1 0x20 ADD SWAP1 DUP2 MSTORE PUSH1 0x20 ADD PUSH0 KECCAK256 PUSH0 DUP3 DUP3 SLOAD PUSH2 0x484 SWAP2 SWAP1 PUSH2 0x858 JUMP JUMPDEST SWAP3 POP POP DUP2 SWAP1 SSTORE POP PUSH32 0x7034BB05CFE54B0D147FC0574ED166101E7F0313EB404E113974FBE2A998CA83 CALLER CALLVALUE PUSH1 0x40 MLOAD PUSH2 0x4BC SWAP3 SWAP2 SWAP1 PUSH2 0x7C9 JUMP JUMPDEST PUSH1 0x40 MLOAD DUP1 SWAP2 SUB SWAP1 LOG1 JUMP JUMPDEST PUSH1 0x1 PUSH0 SWAP1 SLOAD SWAP1 PUSH2 0x100 EXP SWAP1 DIV PUSH20 0xFFFFFFFFFFFFFFFFFFFFFFFFFFFFFFFFFFFFFFFF AND DUP2 JUMP JUMPDEST PUSH0 DUP1 REVERT JUMPDEST PUSH0 PUSH20 0xFFFFFFFFFFFFFFFFFFFFFFFFFFFFFFFFFFFFFFFF DUP3 AND SWAP1 POP SWAP2 SWAP1 POP JUMP JUMPDEST PUSH0 PUSH2 0x518 DUP3 PUSH2 0x4EF JUMP JUMPDEST SWAP1 POP SWAP2 SWAP1 POP JUMP JUMPDEST PUSH2 0x528 DUP2 PUSH2 0x50E JUMP JUMPDEST DUP2 EQ PUSH2 0x532 JUMPI PUSH0 DUP1 REVERT JUMPDEST POP JUMP JUMPDEST PUSH0 DUP2 CALLDATALOAD SWAP1 POP PUSH2 0x543 DUP2 PUSH2 0x51F JUMP JUMPDEST SWAP3 SWAP2 POP POP JUMP JUMPDEST PUSH0 PUSH1 0x20 DUP3 DUP5 SUB SLT ISZERO PUSH2 0x55E JUMPI PUSH2 0x55D PUSH2 0x4EB JUMP JUMPDEST JUMPDEST PUSH0 PUSH2 0x56B DUP5 DUP3 DUP6 ADD PUSH2 0x535 JUMP JUMPDEST SWAP2 POP POP SWAP3 SWAP2 POP POP JUMP JUMPDEST PUSH0 DUP2 SWAP1 POP SWAP2 SWAP1 POP JUMP JUMPDEST PUSH2 0x586 DUP2 PUSH2 0x574 JUMP JUMPDEST DUP3 MSTORE POP POP JUMP JUMPDEST PUSH0 PUSH1 0x20 DUP3 ADD SWAP1 POP PUSH2 0x59F PUSH0 DUP4 ADD DUP5 PUSH2 0x57D JUMP JUMPDEST SWAP3 SWAP2 POP POP JUMP JUMPDEST PUSH2 0x5AE DUP2 PUSH2 0x574 JUMP JUMPDEST DUP2 EQ PUSH2 0x5B8 JUMPI PUSH0 DUP1 REVERT JUMPDEST POP JUMP JUMPDEST PUSH0 DUP2 CALLDATALOAD SWAP1 POP PUSH2 0x5C9 DUP2 PUSH2 0x5A5 JUMP JUMPDEST SWAP3 SWAP2 POP POP JUMP JUMPDEST PUSH0 PUSH1 0x20 DUP3 DUP5 SUB SLT ISZERO PUSH2 0x5E4 JUMPI PUSH2 0x5E3 PUSH2 0x4EB JUMP JUMPDEST JUMPDEST PUSH0 PUSH2 0x5F1 DUP5 DUP3 DUP6 ADD PUSH2 0x5BB JUMP JUMPDEST SWAP2 POP POP SWAP3 SWAP2 POP POP JUMP JUMPDEST PUSH2 0x603 DUP2 PUSH2 0x50E JUMP JUMPDEST DUP3 MSTORE POP POP JUMP JUMPDEST PUSH0 PUSH1 0x20 DUP3 ADD SWAP1 POP PUSH2 0x61C PUSH0 DUP4 ADD DUP5 PUSH2 0x5FA JUMP JUMPDEST SWAP3 SWAP2 POP POP JUMP JUMPDEST PUSH0 DUP3 DUP3 MSTORE PUSH1 0x20 DUP3 ADD SWAP1 POP SWAP3 SWAP2 POP POP JUMP JUMPDEST PUSH32 0x43616E6E6F74207769746864726177206D6F7265207468616E20617661696C61 PUSH0 DUP3 ADD MSTORE PUSH32 0x626C652062616C616E6365000000000000000000000000000000000000000000 PUSH1 0x20 DUP3 ADD MSTORE POP JUMP JUMPDEST PUSH0 PUSH2 0x68C PUSH1 0x2B DUP4 PUSH2 0x622 JUMP JUMPDEST SWAP2 POP PUSH2 0x697 DUP3 PUSH2 0x632 JUMP JUMPDEST PUSH1 0x40 DUP3 ADD SWAP1 POP SWAP2 SWAP1 POP JUMP JUMPDEST PUSH0 PUSH1 0x20 DUP3 ADD SWAP1 POP DUP2 DUP2 SUB PUSH0 DUP4 ADD MSTORE PUSH2 0x6B9 DUP2 PUSH2 0x680 JUMP JUMPDEST SWAP1 POP SWAP2 SWAP1 POP JUMP JUMPDEST PUSH32 0x4E487B7100000000000000000000000000000000000000000000000000000000 PUSH0 MSTORE PUSH1 0x11 PUSH1 0x4 MSTORE PUSH1 0x24 PUSH0 REVERT JUMPDEST PUSH0 PUSH2 0x6F7 DUP3 PUSH2 0x574 JUMP JUMPDEST SWAP2 POP PUSH2 0x702 DUP4 PUSH2 0x574 JUMP JUMPDEST SWAP3 POP DUP3 DUP3 SUB SWAP1 POP DUP2 DUP2 GT ISZERO PUSH2 0x71A JUMPI PUSH2 0x719 PUSH2 0x6C0 JUMP JUMPDEST JUMPDEST SWAP3 SWAP2 POP POP JUMP JUMPDEST PUSH0 DUP2 SWAP1 POP SWAP3 SWAP2 POP POP JUMP JUMPDEST POP JUMP JUMPDEST PUSH0 PUSH2 0x738 PUSH0 DUP4 PUSH2 0x720 JUMP JUMPDEST SWAP2 POP PUSH2 0x743 DUP3 PUSH2 0x72A JUMP JUMPDEST PUSH0 DUP3 ADD SWAP1 POP SWAP2 SWAP1 POP JUMP JUMPDEST PUSH0 PUSH2 0x757 DUP3 PUSH2 0x72D JUMP JUMPDEST SWAP2 POP DUP2 SWAP1 POP SWAP2 SWAP1 POP JUMP JUMPDEST PUSH32 0x5769746864726177206661696C65640000000000000000000000000000000000 PUSH0 DUP3 ADD MSTORE POP JUMP JUMPDEST PUSH0 PUSH2 0x795 PUSH1 0xF DUP4 PUSH2 0x622 JUMP JUMPDEST SWAP2 POP PUSH2 0x7A0 DUP3 PUSH2 0x761 JUMP JUMPDEST PUSH1 0x20 DUP3 ADD SWAP1 POP SWAP2 SWAP1 POP JUMP JUMPDEST PUSH0 PUSH1 0x20 DUP3 ADD SWAP1 POP DUP2 DUP2 SUB PUSH0 DUP4 ADD MSTORE PUSH2 0x7C2 DUP2 PUSH2 0x789 JUMP JUMPDEST SWAP1 POP SWAP2 SWAP1 POP JUMP JUMPDEST PUSH0 PUSH1 0x40 DUP3 ADD SWAP1 POP PUSH2 0x7DC PUSH0 DUP4 ADD DUP6 PUSH2 0x5FA JUMP JUMPDEST PUSH2 0x7E9 PUSH1 0x20 DUP4 ADD DUP5 PUSH2 0x57D JUMP JUMPDEST SWAP4 SWAP3 POP POP POP JUMP JUMPDEST PUSH32 0x556E617574686F72697A65640000000000000000000000000000000000000000 PUSH0 DUP3 ADD MSTORE POP JUMP JUMPDEST PUSH0 PUSH2 0x824 PUSH1 0xC DUP4 PUSH2 0x622 JUMP JUMPDEST SWAP2 POP PUSH2 0x82F DUP3 PUSH2 0x7F0 JUMP JUMPDEST PUSH1 0x20 DUP3 ADD SWAP1 POP SWAP2 SWAP1 POP JUMP JUMPDEST PUSH0 PUSH1 0x20 DUP3 ADD SWAP1 POP DUP2 DUP2 SUB PUSH0 DUP4 ADD MSTORE PUSH2 0x851 DUP2 PUSH2 0x818 JUMP JUMPDEST SWAP1 POP SWAP2 SWAP1 POP JUMP JUMPDEST PUSH0 PUSH2 0x862 DUP3 PUSH2 0x574 JUMP JUMPDEST SWAP2 POP PUSH2 0x86D DUP4 PUSH2 0x574 JUMP JUMPDEST SWAP3 POP DUP3 DUP3 ADD SWAP1 POP DUP1 DUP3 GT ISZERO PUSH2 0x885 JUMPI PUSH2 0x884 PUSH2 0x6C0 JUMP JUMPDEST JUMPDEST SWAP3 SWAP2 POP POP JUMP JUMPDEST PUSH0 PUSH2 0x896 PUSH0 DUP4 PUSH2 0x622 JUMP JUMPDEST SWAP2 POP PUSH2 0x8A1 DUP3 PUSH2 0x72A JUMP JUMPDEST PUSH0 DUP3 ADD SWAP1 POP SWAP2 SWAP1 POP JUMP JUMPDEST PUSH0 PUSH1 0x20 DUP3 ADD SWAP1 POP DUP2 DUP2 SUB PUSH0 DUP4 ADD MSTORE PUSH2 0x8C2 DUP2 PUSH2 0x88B JUMP JUMPDEST SWAP1 POP SWAP2 SWAP1 POP JUMP INVALID LOG2 PUSH5 0x6970667358 0x22 SLT KECCAK256 SWAP6 GASPRICE PUSH19 0x5F2371675CEB89725D6A743F2C7AE49E553BAE DUP5 0xB0 DUP7 0xB8 SAR 0xD3 0xC8 NUMBER RETURN CALLDATALOAD PUSH5 0x736F6C6343 STOP ADDMOD BYTE STOP CALLER "
				},
				"gasEstimates": {
					"creation": {
						"codeDepositCost": "460600",
						"executionCost": "infinite",
						"totalCost": "infinite"
					},
					"external": {
						"admin()": "2596",
						"deposit()": "infinite",
						"maxBalance()": "2446",
						"modifyBalance(uint256)": "24727",
						"userBalance(address)": "2780",
						"withdraw(uint256)": "infinite"
					}
				},
				"methodIdentifiers": {
					"admin()": "f851a440",
					"deposit()": "d0e30db0",
					"maxBalance()": "73ad468a",
					"modifyBalance(uint256)": "9b274b4f",
					"userBalance(address)": "0103c92b",
					"withdraw(uint256)": "2e1a7d4d"
				}
			},
			"storageLayout": {
				"storage": [
					{
						"astId": 3,
						"contract": "MyCryptoBank.sol:MyCryptoBank",
						"label": "maxBalance",
						"offset": 0,
						"slot": "0",
						"type": "t_uint256"
					},
					{
						"astId": 5,
						"contract": "MyCryptoBank.sol:MyCryptoBank",
						"label": "admin",
						"offset": 0,
						"slot": "1",
						"type": "t_address"
					},
					{
						"astId": 9,
						"contract": "MyCryptoBank.sol:MyCryptoBank",
						"label": "userBalance",
						"offset": 0,
						"slot": "2",
						"type": "t_mapping(t_address,t_uint256)"
					}
				],
				"types": {
					"t_address": {
						"encoding": "inplace",
						"label": "address",
						"numberOfBytes": "20"
					},
					"t_mapping(t_address,t_uint256)": {
						"encoding": "mapping",
						"key": "t_address",
						"label": "mapping(address => uint256)",
						"numberOfBytes": "32",
						"value": "t_uint256"
					},
					"t_uint256": {
						"encoding": "inplace",
						"label": "uint256",
						"numberOfBytes": "32"
					}
				}
			},
			"userdoc": {
				"kind": "user",
				"methods": {},
				"version": 1
			}
		}
	}
}