{
	"MyCryptoBank.sol": {
		"MyCryptoBank": {
			"abi": [
				{
					"inputs": [
						{
							"internalType": "uint256",
							"name": "maxBalance_",
							"type": "uint256"
						},
						{
							"internalType": "address",
							"name": "admin_",
							"type": "address"
						}
					],
					"stateMutability": "nonpayable",
					"type": "constructor"
				},
				{
					"anonymous": false,
					"inputs": [
						{
							"indexed": false,
							"internalType": "address",
							"name": "user_",
							"type": "address"
						},
						{
							"indexed": false,
							"internalType": "uint256",
							"name": "amount_",
							"type": "uint256"
						}
					],
					"name": "DepositEth",
					"type": "event"
				},
				{
					"anonymous": false,
					"inputs": [
						{
							"indexed": false,
							"internalType": "bool",
							"name": "paused",
							"type": "bool"
						}
					],
					"name": "PauseStatus",
					"type": "event"
				},
				{
					"anonymous": false,
					"inputs": [
						{
							"indexed": false,
							"internalType": "address",
							"name": "user_",
							"type": "address"
						},
						{
							"indexed": false,
							"internalType": "uint256",
							"name": "amount_",
							"type": "uint256"
						}
					],
					"name": "WithdrawEth",
					"type": "event"
				},
				{
					"inputs": [],
					"name": "admin",
					"outputs": [
						{
							"internalType": "address",
							"name": "",
							"type": "address"
						}
					],
					"stateMutability": "view",
					"type": "function"
				},
				{
					"inputs": [],
					"name": "contractPaused",
					"outputs": [
						{
							"internalType": "bool",
							"name": "",
							"type": "bool"
						}
					],
					"stateMutability": "view",
					"type": "function"
				},
				{
					"inputs": [],
					"name": "deposit",
					"outputs": [],
					"stateMutability": "payable",
					"type": "function"
				},
				{
					"inputs": [],
					"name": "getBankBalance",
					"outputs": [
						{
							"internalType": "uint256",
							"name": "",
							"type": "uint256"
						}
					],
					"stateMutability": "view",
					"type": "function"
				},
				{
					"inputs": [],
					"name": "getMyAvailableBalance",
					"outputs": [
						{
							"internalType": "uint256",
							"name": "",
							"type": "uint256"
						}
					],
					"stateMutability": "view",
					"type": "function"
				},
				{
					"inputs": [],
					"name": "maxBalance",
					"outputs": [
						{
							"internalType": "uint256",
							"name": "",
							"type": "uint256"
						}
					],
					"stateMutability": "view",
					"type": "function"
				},
				{
					"inputs": [
						{
							"internalType": "uint256",
							"name": "newMaxBalance_",
							"type": "uint256"
						}
					],
					"name": "modifyMaxBalance",
					"outputs": [],
					"stateMutability": "nonpayable",
					"type": "function"
				},
				{
					"inputs": [
						{
							"internalType": "bool",
							"name": "contractPaused_",
							"type": "bool"
						}
					],
					"name": "pauseContract",
					"outputs": [],
					"stateMutability": "nonpayable",
					"type": "function"
				},
				{
					"inputs": [
						{
							"internalType": "address",
							"name": "",
							"type": "address"
						}
					],
					"name": "userBalance",
					"outputs": [
						{
							"internalType": "uint256",
							"name": "",
							"type": "uint256"
						}
					],
					"stateMutability": "view",
					"type": "function"
				},
				{
					"inputs": [
						{
							"internalType": "uint256",
							"name": "amount_",
							"type": "uint256"
						}
					],
					"name": "withdraw",
					"outputs": [],
					"stateMutability": "nonpayable",
					"type": "function"
				}
			],
			"devdoc": {
				"kind": "dev",
				"methods": {},
				"version": 1
			},
			"evm": {
				"assembly": "    /* \"MyCryptoBank.sol\":335:2553  contract MyCryptoBank{... */\n  mstore(0x40, 0x80)\n    /* \"MyCryptoBank.sol\":949:1102  constructor(uint256 maxBalance_, address admin_){... */\n  callvalue\n  dup1\n  iszero\n  tag_1\n  jumpi\n  0x00\n  dup1\n  revert\ntag_1:\n  pop\n  mload(0x40)\n  sub(codesize, bytecodeSize)\n  dup1\n  bytecodeSize\n  dup4\n  codecopy\n  dup2\n  dup2\n  add\n  0x40\n  mstore\n  dup2\n  add\n  swap1\n  tag_2\n  swap2\n  swap1\n  tag_3\n  jump\t// in\ntag_2:\n    /* \"MyCryptoBank.sol\":1023:1034  maxBalance_ */\n  dup2\n    /* \"MyCryptoBank.sol\":1010:1020  maxBalance */\n  0x00\n    /* \"MyCryptoBank.sol\":1010:1034  maxBalance = maxBalance_ */\n  dup2\n  swap1\n  sstore\n  pop\n    /* \"MyCryptoBank.sol\":1053:1059  admin_ */\n  dup1\n    /* \"MyCryptoBank.sol\":1045:1050  admin */\n  0x01\n  0x00\n    /* \"MyCryptoBank.sol\":1045:1059  admin = admin_ */\n  0x0100\n  exp\n  dup2\n  sload\n  dup2\n  0xffffffffffffffffffffffffffffffffffffffff\n  mul\n  not\n  and\n  swap1\n  dup4\n  0xffffffffffffffffffffffffffffffffffffffff\n  and\n  mul\n  or\n  swap1\n  sstore\n  pop\n    /* \"MyCryptoBank.sol\":1087:1092  false */\n  0x00\n    /* \"MyCryptoBank.sol\":1070:1084  contractPaused */\n  0x03\n  0x00\n    /* \"MyCryptoBank.sol\":1070:1092  contractPaused = false */\n  0x0100\n  exp\n  dup2\n  sload\n  dup2\n  0xff\n  mul\n  not\n  and\n  swap1\n  dup4\n  iszero\n  iszero\n  mul\n  or\n  swap1\n  sstore\n  pop\n    /* \"MyCryptoBank.sol\":949:1102  constructor(uint256 maxBalance_, address admin_){... */\n  pop\n  pop\n    /* \"MyCryptoBank.sol\":335:2553  contract MyCryptoBank{... */\n  jump(tag_6)\n    /* \"#utility.yul\":88:205   */\ntag_8:\n    /* \"#utility.yul\":197:198   */\n  0x00\n    /* \"#utility.yul\":194:195   */\n  dup1\n    /* \"#utility.yul\":187:199   */\n  revert\n    /* \"#utility.yul\":334:411   */\ntag_10:\n    /* \"#utility.yul\":371:378   */\n  0x00\n    /* \"#utility.yul\":400:405   */\n  dup2\n    /* \"#utility.yul\":389:405   */\n  swap1\n  pop\n    /* \"#utility.yul\":334:411   */\n  swap2\n  swap1\n  pop\n  jump\t// out\n    /* \"#utility.yul\":417:539   */\ntag_11:\n    /* \"#utility.yul\":490:514   */\n  tag_23\n    /* \"#utility.yul\":508:513   */\n  dup2\n    /* \"#utility.yul\":490:514   */\n  tag_10\n  jump\t// in\ntag_23:\n    /* \"#utility.yul\":483:488   */\n  dup2\n    /* \"#utility.yul\":480:515   */\n  eq\n    /* \"#utility.yul\":470:533   */\n  tag_24\n  jumpi\n    /* \"#utility.yul\":529:530   */\n  0x00\n    /* \"#utility.yul\":526:527   */\n  dup1\n    /* \"#utility.yul\":519:531   */\n  revert\n    /* \"#utility.yul\":470:533   */\ntag_24:\n    /* \"#utility.yul\":417:539   */\n  pop\n  jump\t// out\n    /* \"#utility.yul\":545:688   */\ntag_12:\n    /* \"#utility.yul\":602:607   */\n  0x00\n    /* \"#utility.yul\":633:639   */\n  dup2\n    /* \"#utility.yul\":627:640   */\n  mload\n    /* \"#utility.yul\":618:640   */\n  swap1\n  pop\n    /* \"#utility.yul\":649:682   */\n  tag_26\n    /* \"#utility.yul\":676:681   */\n  dup2\n    /* \"#utility.yul\":649:682   */\n  tag_11\n  jump\t// in\ntag_26:\n    /* \"#utility.yul\":545:688   */\n  swap3\n  swap2\n  pop\n  pop\n  jump\t// out\n    /* \"#utility.yul\":694:820   */\ntag_13:\n    /* \"#utility.yul\":731:738   */\n  0x00\n    /* \"#utility.yul\":771:813   */\n  0xffffffffffffffffffffffffffffffffffffffff\n    /* \"#utility.yul\":764:769   */\n  dup3\n    /* \"#utility.yul\":760:814   */\n  and\n    /* \"#utility.yul\":749:814   */\n  swap1\n  pop\n    /* \"#utility.yul\":694:820   */\n  swap2\n  swap1\n  pop\n  jump\t// out\n    /* \"#utility.yul\":826:922   */\ntag_14:\n    /* \"#utility.yul\":863:870   */\n  0x00\n    /* \"#utility.yul\":892:916   */\n  tag_29\n    /* \"#utility.yul\":910:915   */\n  dup3\n    /* \"#utility.yul\":892:916   */\n  tag_13\n  jump\t// in\ntag_29:\n    /* \"#utility.yul\":881:916   */\n  swap1\n  pop\n    /* \"#utility.yul\":826:922   */\n  swap2\n  swap1\n  pop\n  jump\t// out\n    /* \"#utility.yul\":928:1050   */\ntag_15:\n    /* \"#utility.yul\":1001:1025   */\n  tag_31\n    /* \"#utility.yul\":1019:1024   */\n  dup2\n    /* \"#utility.yul\":1001:1025   */\n  tag_14\n  jump\t// in\ntag_31:\n    /* \"#utility.yul\":994:999   */\n  dup2\n    /* \"#utility.yul\":991:1026   */\n  eq\n    /* \"#utility.yul\":981:1044   */\n  tag_32\n  jumpi\n    /* \"#utility.yul\":1040:1041   */\n  0x00\n    /* \"#utility.yul\":1037:1038   */\n  dup1\n    /* \"#utility.yul\":1030:1042   */\n  revert\n    /* \"#utility.yul\":981:1044   */\ntag_32:\n    /* \"#utility.yul\":928:1050   */\n  pop\n  jump\t// out\n    /* \"#utility.yul\":1056:1199   */\ntag_16:\n    /* \"#utility.yul\":1113:1118   */\n  0x00\n    /* \"#utility.yul\":1144:1150   */\n  dup2\n    /* \"#utility.yul\":1138:1151   */\n  mload\n    /* \"#utility.yul\":1129:1151   */\n  swap1\n  pop\n    /* \"#utility.yul\":1160:1193   */\n  tag_34\n    /* \"#utility.yul\":1187:1192   */\n  dup2\n    /* \"#utility.yul\":1160:1193   */\n  tag_15\n  jump\t// in\ntag_34:\n    /* \"#utility.yul\":1056:1199   */\n  swap3\n  swap2\n  pop\n  pop\n  jump\t// out\n    /* \"#utility.yul\":1205:1712   */\ntag_3:\n    /* \"#utility.yul\":1284:1290   */\n  0x00\n    /* \"#utility.yul\":1292:1298   */\n  dup1\n    /* \"#utility.yul\":1341:1343   */\n  0x40\n    /* \"#utility.yul\":1329:1338   */\n  dup4\n    /* \"#utility.yul\":1320:1327   */\n  dup6\n    /* \"#utility.yul\":1316:1339   */\n  sub\n    /* \"#utility.yul\":1312:1344   */\n  slt\n    /* \"#utility.yul\":1309:1428   */\n  iszero\n  tag_36\n  jumpi\n    /* \"#utility.yul\":1347:1426   */\n  tag_37\n  tag_8\n  jump\t// in\ntag_37:\n    /* \"#utility.yul\":1309:1428   */\ntag_36:\n    /* \"#utility.yul\":1467:1468   */\n  0x00\n    /* \"#utility.yul\":1492:1556   */\n  tag_38\n    /* \"#utility.yul\":1548:1555   */\n  dup6\n    /* \"#utility.yul\":1539:1545   */\n  dup3\n    /* \"#utility.yul\":1528:1537   */\n  dup7\n    /* \"#utility.yul\":1524:1546   */\n  add\n    /* \"#utility.yul\":1492:1556   */\n  tag_12\n  jump\t// in\ntag_38:\n    /* \"#utility.yul\":1482:1556   */\n  swap3\n  pop\n    /* \"#utility.yul\":1438:1566   */\n  pop\n    /* \"#utility.yul\":1605:1607   */\n  0x20\n    /* \"#utility.yul\":1631:1695   */\n  tag_39\n    /* \"#utility.yul\":1687:1694   */\n  dup6\n    /* \"#utility.yul\":1678:1684   */\n  dup3\n    /* \"#utility.yul\":1667:1676   */\n  dup7\n    /* \"#utility.yul\":1663:1685   */\n  add\n    /* \"#utility.yul\":1631:1695   */\n  tag_16\n  jump\t// in\ntag_39:\n    /* \"#utility.yul\":1621:1695   */\n  swap2\n  pop\n    /* \"#utility.yul\":1576:1705   */\n  pop\n    /* \"#utility.yul\":1205:1712   */\n  swap3\n  pop\n  swap3\n  swap1\n  pop\n  jump\t// out\n    /* \"MyCryptoBank.sol\":335:2553  contract MyCryptoBank{... */\ntag_6:\n  dataSize(sub_0)\n  dup1\n  dataOffset(sub_0)\n  0x00\n  codecopy\n  0x00\n  return\nstop\n\nsub_0: assembly {\n        /* \"MyCryptoBank.sol\":335:2553  contract MyCryptoBank{... */\n      mstore(0x40, 0x80)\n      jumpi(tag_1, lt(calldatasize, 0x04))\n      shr(0xe0, calldataload(0x00))\n      dup1\n      0x8a67456a\n      gt\n      tag_12\n      jumpi\n      dup1\n      0x8a67456a\n      eq\n      tag_7\n      jumpi\n      dup1\n      0xa2ccd6ba\n      eq\n      tag_8\n      jumpi\n      dup1\n      0xd0e30db0\n      eq\n      tag_9\n      jumpi\n      dup1\n      0xe272b892\n      eq\n      tag_10\n      jumpi\n      dup1\n      0xf851a440\n      eq\n      tag_11\n      jumpi\n      jump(tag_1)\n    tag_12:\n      dup1\n      0x0103c92b\n      eq\n      tag_2\n      jumpi\n      dup1\n      0x0ffa58a8\n      eq\n      tag_3\n      jumpi\n      dup1\n      0x2e1a7d4d\n      eq\n      tag_4\n      jumpi\n      dup1\n      0x73ad468a\n      eq\n      tag_5\n      jumpi\n      dup1\n      0x7b83b50b\n      eq\n      tag_6\n      jumpi\n    tag_1:\n      0x00\n      dup1\n      revert\n        /* \"MyCryptoBank.sol\":444:488  mapping(address=>uint256) public userBalance */\n    tag_2:\n      callvalue\n      dup1\n      iszero\n      tag_13\n      jumpi\n      0x00\n      dup1\n      revert\n    tag_13:\n      pop\n      tag_14\n      0x04\n      dup1\n      calldatasize\n      sub\n      dup2\n      add\n      swap1\n      tag_15\n      swap2\n      swap1\n      tag_16\n      jump\t// in\n    tag_15:\n      tag_17\n      jump\t// in\n    tag_14:\n      mload(0x40)\n      tag_18\n      swap2\n      swap1\n      tag_19\n      jump\t// in\n    tag_18:\n      mload(0x40)\n      dup1\n      swap2\n      sub\n      swap1\n      return\n        /* \"MyCryptoBank.sol\":2430:2544  function getMyAvailableBalance() external view returns (uint256) {... */\n    tag_3:\n      callvalue\n      dup1\n      iszero\n      tag_20\n      jumpi\n      0x00\n      dup1\n      revert\n    tag_20:\n      pop\n      tag_21\n      tag_22\n      jump\t// in\n    tag_21:\n      mload(0x40)\n      tag_23\n      swap2\n      swap1\n      tag_19\n      jump\t// in\n    tag_23:\n      mload(0x40)\n      dup1\n      swap2\n      sub\n      swap1\n      return\n        /* \"MyCryptoBank.sol\":1450:1889  function withdraw(uint256 amount_) external NotPaused{... */\n    tag_4:\n      callvalue\n      dup1\n      iszero\n      tag_24\n      jumpi\n      0x00\n      dup1\n      revert\n    tag_24:\n      pop\n      tag_25\n      0x04\n      dup1\n      calldatasize\n      sub\n      dup2\n      add\n      swap1\n      tag_26\n      swap2\n      swap1\n      tag_27\n      jump\t// in\n    tag_26:\n      tag_28\n      jump\t// in\n    tag_25:\n      stop\n        /* \"MyCryptoBank.sol\":385:410  uint256 public maxBalance */\n    tag_5:\n      callvalue\n      dup1\n      iszero\n      tag_29\n      jumpi\n      0x00\n      dup1\n      revert\n    tag_29:\n      pop\n      tag_30\n      tag_31\n      jump\t// in\n    tag_30:\n      mload(0x40)\n      tag_32\n      swap2\n      swap1\n      tag_19\n      jump\t// in\n    tag_32:\n      mload(0x40)\n      dup1\n      swap2\n      sub\n      swap1\n      return\n        /* \"MyCryptoBank.sol\":2279:2388  function getBankBalance() external view returns (uint256) {... */\n    tag_6:\n      callvalue\n      dup1\n      iszero\n      tag_33\n      jumpi\n      0x00\n      dup1\n      revert\n    tag_33:\n      pop\n      tag_34\n      tag_35\n      jump\t// in\n    tag_34:\n      mload(0x40)\n      tag_36\n      swap2\n      swap1\n      tag_19\n      jump\t// in\n    tag_36:\n      mload(0x40)\n      dup1\n      swap2\n      sub\n      swap1\n      return\n        /* \"MyCryptoBank.sol\":495:521  bool public contractPaused */\n    tag_7:\n      callvalue\n      dup1\n      iszero\n      tag_37\n      jumpi\n      0x00\n      dup1\n      revert\n    tag_37:\n      pop\n      tag_38\n      tag_39\n      jump\t// in\n    tag_38:\n      mload(0x40)\n      tag_40\n      swap2\n      swap1\n      tag_41\n      jump\t// in\n    tag_40:\n      mload(0x40)\n      dup1\n      swap2\n      sub\n      swap1\n      return\n        /* \"MyCryptoBank.sol\":1925:2041  function modifyMaxBalance(uint256 newMaxBalance_) external onlyAdmin{... */\n    tag_8:\n      callvalue\n      dup1\n      iszero\n      tag_42\n      jumpi\n      0x00\n      dup1\n      revert\n    tag_42:\n      pop\n      tag_43\n      0x04\n      dup1\n      calldatasize\n      sub\n      dup2\n      add\n      swap1\n      tag_44\n      swap2\n      swap1\n      tag_27\n      jump\t// in\n    tag_44:\n      tag_45\n      jump\t// in\n    tag_43:\n      stop\n        /* \"MyCryptoBank.sol\":1154:1417  function deposit() external payable NotPaused{... */\n    tag_9:\n      tag_46\n      tag_47\n      jump\t// in\n    tag_46:\n      stop\n        /* \"MyCryptoBank.sol\":2082:2242  function pauseContract(bool contractPaused_) external onlyAdmin{... */\n    tag_10:\n      callvalue\n      dup1\n      iszero\n      tag_48\n      jumpi\n      0x00\n      dup1\n      revert\n    tag_48:\n      pop\n      tag_49\n      0x04\n      dup1\n      calldatasize\n      sub\n      dup2\n      add\n      swap1\n      tag_50\n      swap2\n      swap1\n      tag_51\n      jump\t// in\n    tag_50:\n      tag_52\n      jump\t// in\n    tag_49:\n      stop\n        /* \"MyCryptoBank.sol\":417:437  address public admin */\n    tag_11:\n      callvalue\n      dup1\n      iszero\n      tag_53\n      jumpi\n      0x00\n      dup1\n      revert\n    tag_53:\n      pop\n      tag_54\n      tag_55\n      jump\t// in\n    tag_54:\n      mload(0x40)\n      tag_56\n      swap2\n      swap1\n      tag_57\n      jump\t// in\n    tag_56:\n      mload(0x40)\n      dup1\n      swap2\n      sub\n      swap1\n      return\n        /* \"MyCryptoBank.sol\":444:488  mapping(address=>uint256) public userBalance */\n    tag_17:\n      mstore(0x20, 0x02)\n      dup1\n      0x00\n      mstore\n      keccak256(0x00, 0x40)\n      0x00\n      swap2\n      pop\n      swap1\n      pop\n      sload\n      dup2\n      jump\t// out\n        /* \"MyCryptoBank.sol\":2430:2544  function getMyAvailableBalance() external view returns (uint256) {... */\n    tag_22:\n        /* \"MyCryptoBank.sol\":2486:2493  uint256 */\n      0x00\n        /* \"MyCryptoBank.sol\":2513:2524  userBalance */\n      0x02\n        /* \"MyCryptoBank.sol\":2513:2536  userBalance[msg.sender] */\n      0x00\n        /* \"MyCryptoBank.sol\":2525:2535  msg.sender */\n      caller\n        /* \"MyCryptoBank.sol\":2513:2536  userBalance[msg.sender] */\n      0xffffffffffffffffffffffffffffffffffffffff\n      and\n      0xffffffffffffffffffffffffffffffffffffffff\n      and\n      dup2\n      mstore\n      0x20\n      add\n      swap1\n      dup2\n      mstore\n      0x20\n      add\n      0x00\n      keccak256\n      sload\n        /* \"MyCryptoBank.sol\":2506:2536  return userBalance[msg.sender] */\n      swap1\n      pop\n        /* \"MyCryptoBank.sol\":2430:2544  function getMyAvailableBalance() external view returns (uint256) {... */\n      swap1\n      jump\t// out\n        /* \"MyCryptoBank.sol\":1450:1889  function withdraw(uint256 amount_) external NotPaused{... */\n    tag_28:\n        /* \"MyCryptoBank.sol\":707:712  false */\n      0x00\n        /* \"MyCryptoBank.sol\":689:712  contractPaused == false */\n      iszero\n      iszero\n        /* \"MyCryptoBank.sol\":689:703  contractPaused */\n      0x03\n      0x00\n      swap1\n      sload\n      swap1\n      0x0100\n      exp\n      swap1\n      div\n      0xff\n      and\n        /* \"MyCryptoBank.sol\":689:712  contractPaused == false */\n      iszero\n      iszero\n      eq\n        /* \"MyCryptoBank.sol\":681:734  require(contractPaused == false,\"Contract is paused\") */\n      tag_60\n      jumpi\n      mload(0x40)\n      0x08c379a000000000000000000000000000000000000000000000000000000000\n      dup2\n      mstore\n      0x04\n      add\n      tag_61\n      swap1\n      tag_62\n      jump\t// in\n    tag_61:\n      mload(0x40)\n      dup1\n      swap2\n      sub\n      swap1\n      revert\n    tag_60:\n        /* \"MyCryptoBank.sol\":1535:1546  userBalance */\n      0x02\n        /* \"MyCryptoBank.sol\":1535:1558  userBalance[msg.sender] */\n      0x00\n        /* \"MyCryptoBank.sol\":1547:1557  msg.sender */\n      caller\n        /* \"MyCryptoBank.sol\":1535:1558  userBalance[msg.sender] */\n      0xffffffffffffffffffffffffffffffffffffffff\n      and\n      0xffffffffffffffffffffffffffffffffffffffff\n      and\n      dup2\n      mstore\n      0x20\n      add\n      swap1\n      dup2\n      mstore\n      0x20\n      add\n      0x00\n      keccak256\n      sload\n        /* \"MyCryptoBank.sol\":1524:1531  amount_ */\n      dup2\n        /* \"MyCryptoBank.sol\":1524:1558  amount_ <= userBalance[msg.sender] */\n      gt\n      iszero\n        /* \"MyCryptoBank.sol\":1516:1605  require(amount_ <= userBalance[msg.sender],\"Cannot withdraw more than available balance\") */\n      tag_64\n      jumpi\n      mload(0x40)\n      0x08c379a000000000000000000000000000000000000000000000000000000000\n      dup2\n      mstore\n      0x04\n      add\n      tag_65\n      swap1\n      tag_66\n      jump\t// in\n    tag_65:\n      mload(0x40)\n      dup1\n      swap2\n      sub\n      swap1\n      revert\n    tag_64:\n        /* \"MyCryptoBank.sol\":1672:1679  amount_ */\n      dup1\n        /* \"MyCryptoBank.sol\":1647:1658  userBalance */\n      0x02\n        /* \"MyCryptoBank.sol\":1647:1670  userBalance[msg.sender] */\n      0x00\n        /* \"MyCryptoBank.sol\":1659:1669  msg.sender */\n      caller\n        /* \"MyCryptoBank.sol\":1647:1670  userBalance[msg.sender] */\n      0xffffffffffffffffffffffffffffffffffffffff\n      and\n      0xffffffffffffffffffffffffffffffffffffffff\n      and\n      dup2\n      mstore\n      0x20\n      add\n      swap1\n      dup2\n      mstore\n      0x20\n      add\n      0x00\n      keccak256\n      0x00\n        /* \"MyCryptoBank.sol\":1647:1679  userBalance[msg.sender]-=amount_ */\n      dup3\n      dup3\n      sload\n      tag_67\n      swap2\n      swap1\n      tag_68\n      jump\t// in\n    tag_67:\n      swap3\n      pop\n      pop\n      dup2\n      swap1\n      sstore\n      pop\n        /* \"MyCryptoBank.sol\":1728:1740  bool success */\n      0x00\n        /* \"MyCryptoBank.sol\":1745:1755  msg.sender */\n      caller\n        /* \"MyCryptoBank.sol\":1745:1760  msg.sender.call */\n      0xffffffffffffffffffffffffffffffffffffffff\n      and\n        /* \"MyCryptoBank.sol\":1767:1774  amount_ */\n      dup3\n        /* \"MyCryptoBank.sol\":1745:1779  msg.sender.call{value:amount_}(\"\") */\n      mload(0x40)\n      tag_69\n      swap1\n      tag_70\n      jump\t// in\n    tag_69:\n      0x00\n      mload(0x40)\n      dup1\n      dup4\n      sub\n      dup2\n      dup6\n      dup8\n      gas\n      call\n      swap3\n      pop\n      pop\n      pop\n      returndatasize\n      dup1\n      0x00\n      dup2\n      eq\n      tag_73\n      jumpi\n      mload(0x40)\n      swap2\n      pop\n      and(add(returndatasize, 0x3f), not(0x1f))\n      dup3\n      add\n      0x40\n      mstore\n      returndatasize\n      dup3\n      mstore\n      returndatasize\n      0x00\n      0x20\n      dup5\n      add\n      returndatacopy\n      jump(tag_72)\n    tag_73:\n      0x60\n      swap2\n      pop\n    tag_72:\n      pop\n        /* \"MyCryptoBank.sol\":1727:1779  (bool success,) = msg.sender.call{value:amount_}(\"\") */\n      pop\n      swap1\n      pop\n        /* \"MyCryptoBank.sol\":1800:1807  success */\n      dup1\n        /* \"MyCryptoBank.sol\":1792:1827  require(success, \"Withdraw failed\") */\n      tag_74\n      jumpi\n      mload(0x40)\n      0x08c379a000000000000000000000000000000000000000000000000000000000\n      dup2\n      mstore\n      0x04\n      add\n      tag_75\n      swap1\n      tag_76\n      jump\t// in\n    tag_75:\n      mload(0x40)\n      dup1\n      swap2\n      sub\n      swap1\n      revert\n    tag_74:\n        /* \"MyCryptoBank.sol\":1845:1877  WithdrawEth(msg.sender, amount_) */\n      0xccbd99ba6da8f29b2a4f65e474e3c3973564d356c162c08d45f3dc7f0cb5b3aa\n        /* \"MyCryptoBank.sol\":1857:1867  msg.sender */\n      caller\n        /* \"MyCryptoBank.sol\":1869:1876  amount_ */\n      dup4\n        /* \"MyCryptoBank.sol\":1845:1877  WithdrawEth(msg.sender, amount_) */\n      mload(0x40)\n      tag_77\n      swap3\n      swap2\n      swap1\n      tag_78\n      jump\t// in\n    tag_77:\n      mload(0x40)\n      dup1\n      swap2\n      sub\n      swap1\n      log1\n        /* \"MyCryptoBank.sol\":1503:1889  {... */\n      pop\n        /* \"MyCryptoBank.sol\":1450:1889  function withdraw(uint256 amount_) external NotPaused{... */\n      pop\n      jump\t// out\n        /* \"MyCryptoBank.sol\":385:410  uint256 public maxBalance */\n    tag_31:\n      sload(0x00)\n      dup2\n      jump\t// out\n        /* \"MyCryptoBank.sol\":2279:2388  function getBankBalance() external view returns (uint256) {... */\n    tag_35:\n        /* \"MyCryptoBank.sol\":2328:2335  uint256 */\n      0x00\n        /* \"MyCryptoBank.sol\":2357:2378  address(this).balance */\n      selfbalance\n        /* \"MyCryptoBank.sol\":2350:2378  return address(this).balance */\n      swap1\n      pop\n        /* \"MyCryptoBank.sol\":2279:2388  function getBankBalance() external view returns (uint256) {... */\n      swap1\n      jump\t// out\n        /* \"MyCryptoBank.sol\":495:521  bool public contractPaused */\n    tag_39:\n      0x03\n      0x00\n      swap1\n      sload\n      swap1\n      0x0100\n      exp\n      swap1\n      div\n      0xff\n      and\n      dup2\n      jump\t// out\n        /* \"MyCryptoBank.sol\":1925:2041  function modifyMaxBalance(uint256 newMaxBalance_) external onlyAdmin{... */\n    tag_45:\n        /* \"MyCryptoBank.sol\":601:606  admin */\n      0x01\n      0x00\n      swap1\n      sload\n      swap1\n      0x0100\n      exp\n      swap1\n      div\n      0xffffffffffffffffffffffffffffffffffffffff\n      and\n        /* \"MyCryptoBank.sol\":589:606  msg.sender==admin */\n      0xffffffffffffffffffffffffffffffffffffffff\n      and\n        /* \"MyCryptoBank.sol\":589:599  msg.sender */\n      caller\n        /* \"MyCryptoBank.sol\":589:606  msg.sender==admin */\n      0xffffffffffffffffffffffffffffffffffffffff\n      and\n      eq\n        /* \"MyCryptoBank.sol\":581:622  require(msg.sender==admin,\"Unauthorized\") */\n      tag_81\n      jumpi\n      mload(0x40)\n      0x08c379a000000000000000000000000000000000000000000000000000000000\n      dup2\n      mstore\n      0x04\n      add\n      tag_82\n      swap1\n      tag_83\n      jump\t// in\n    tag_82:\n      mload(0x40)\n      dup1\n      swap2\n      sub\n      swap1\n      revert\n    tag_81:\n        /* \"MyCryptoBank.sol\":2019:2033  newMaxBalance_ */\n      dup1\n        /* \"MyCryptoBank.sol\":2006:2016  maxBalance */\n      0x00\n        /* \"MyCryptoBank.sol\":2006:2033  maxBalance = newMaxBalance_ */\n      dup2\n      swap1\n      sstore\n      pop\n        /* \"MyCryptoBank.sol\":1925:2041  function modifyMaxBalance(uint256 newMaxBalance_) external onlyAdmin{... */\n      pop\n      jump\t// out\n        /* \"MyCryptoBank.sol\":1154:1417  function deposit() external payable NotPaused{... */\n    tag_47:\n        /* \"MyCryptoBank.sol\":707:712  false */\n      0x00\n        /* \"MyCryptoBank.sol\":689:712  contractPaused == false */\n      iszero\n      iszero\n        /* \"MyCryptoBank.sol\":689:703  contractPaused */\n      0x03\n      0x00\n      swap1\n      sload\n      swap1\n      0x0100\n      exp\n      swap1\n      div\n      0xff\n      and\n        /* \"MyCryptoBank.sol\":689:712  contractPaused == false */\n      iszero\n      iszero\n      eq\n        /* \"MyCryptoBank.sol\":681:734  require(contractPaused == false,\"Contract is paused\") */\n      tag_86\n      jumpi\n      mload(0x40)\n      0x08c379a000000000000000000000000000000000000000000000000000000000\n      dup2\n      mstore\n      0x04\n      add\n      tag_87\n      swap1\n      tag_62\n      jump\t// in\n    tag_87:\n      mload(0x40)\n      dup1\n      swap2\n      sub\n      swap1\n      revert\n    tag_86:\n        /* \"MyCryptoBank.sol\":1257:1267  maxBalance */\n      sload(0x00)\n        /* \"MyCryptoBank.sol\":1244:1253  msg.value */\n      callvalue\n        /* \"MyCryptoBank.sol\":1218:1229  userBalance */\n      0x02\n        /* \"MyCryptoBank.sol\":1218:1241  userBalance[msg.sender] */\n      0x00\n        /* \"MyCryptoBank.sol\":1230:1240  msg.sender */\n      caller\n        /* \"MyCryptoBank.sol\":1218:1241  userBalance[msg.sender] */\n      0xffffffffffffffffffffffffffffffffffffffff\n      and\n      0xffffffffffffffffffffffffffffffffffffffff\n      and\n      dup2\n      mstore\n      0x20\n      add\n      swap1\n      dup2\n      mstore\n      0x20\n      add\n      0x00\n      keccak256\n      sload\n        /* \"MyCryptoBank.sol\":1218:1253  userBalance[msg.sender] + msg.value */\n      tag_89\n      swap2\n      swap1\n      tag_90\n      jump\t// in\n    tag_89:\n        /* \"MyCryptoBank.sol\":1218:1267  userBalance[msg.sender] + msg.value <= maxBalance */\n      gt\n      iszero\n        /* \"MyCryptoBank.sol\":1210:1271  require(userBalance[msg.sender] + msg.value <= maxBalance,\"\") */\n      tag_91\n      jumpi\n      mload(0x40)\n      0x08c379a000000000000000000000000000000000000000000000000000000000\n      dup2\n      mstore\n      0x04\n      add\n      tag_92\n      swap1\n      tag_93\n      jump\t// in\n    tag_92:\n      mload(0x40)\n      dup1\n      swap2\n      sub\n      swap1\n      revert\n    tag_91:\n        /* \"MyCryptoBank.sol\":1309:1318  msg.value */\n      callvalue\n        /* \"MyCryptoBank.sol\":1282:1293  userBalance */\n      0x02\n        /* \"MyCryptoBank.sol\":1282:1305  userBalance[msg.sender] */\n      0x00\n        /* \"MyCryptoBank.sol\":1294:1304  msg.sender */\n      caller\n        /* \"MyCryptoBank.sol\":1282:1305  userBalance[msg.sender] */\n      0xffffffffffffffffffffffffffffffffffffffff\n      and\n      0xffffffffffffffffffffffffffffffffffffffff\n      and\n      dup2\n      mstore\n      0x20\n      add\n      swap1\n      dup2\n      mstore\n      0x20\n      add\n      0x00\n      keccak256\n      0x00\n        /* \"MyCryptoBank.sol\":1282:1318  userBalance[msg.sender] += msg.value */\n      dup3\n      dup3\n      sload\n      tag_94\n      swap2\n      swap1\n      tag_90\n      jump\t// in\n    tag_94:\n      swap3\n      pop\n      pop\n      dup2\n      swap1\n      sstore\n      pop\n        /* \"MyCryptoBank.sol\":1374:1407  DepositEth(msg.sender, msg.value) */\n      0x7034bb05cfe54b0d147fc0574ed166101e7f0313eb404e113974fbe2a998ca83\n        /* \"MyCryptoBank.sol\":1385:1395  msg.sender */\n      caller\n        /* \"MyCryptoBank.sol\":1397:1406  msg.value */\n      callvalue\n        /* \"MyCryptoBank.sol\":1374:1407  DepositEth(msg.sender, msg.value) */\n      mload(0x40)\n      tag_95\n      swap3\n      swap2\n      swap1\n      tag_78\n      jump\t// in\n    tag_95:\n      mload(0x40)\n      dup1\n      swap2\n      sub\n      swap1\n      log1\n        /* \"MyCryptoBank.sol\":1154:1417  function deposit() external payable NotPaused{... */\n      jump\t// out\n        /* \"MyCryptoBank.sol\":2082:2242  function pauseContract(bool contractPaused_) external onlyAdmin{... */\n    tag_52:\n        /* \"MyCryptoBank.sol\":601:606  admin */\n      0x01\n      0x00\n      swap1\n      sload\n      swap1\n      0x0100\n      exp\n      swap1\n      div\n      0xffffffffffffffffffffffffffffffffffffffff\n      and\n        /* \"MyCryptoBank.sol\":589:606  msg.sender==admin */\n      0xffffffffffffffffffffffffffffffffffffffff\n      and\n        /* \"MyCryptoBank.sol\":589:599  msg.sender */\n      caller\n        /* \"MyCryptoBank.sol\":589:606  msg.sender==admin */\n      0xffffffffffffffffffffffffffffffffffffffff\n      and\n      eq\n        /* \"MyCryptoBank.sol\":581:622  require(msg.sender==admin,\"Unauthorized\") */\n      tag_97\n      jumpi\n      mload(0x40)\n      0x08c379a000000000000000000000000000000000000000000000000000000000\n      dup2\n      mstore\n      0x04\n      add\n      tag_98\n      swap1\n      tag_83\n      jump\t// in\n    tag_98:\n      mload(0x40)\n      dup1\n      swap2\n      sub\n      swap1\n      revert\n    tag_97:\n        /* \"MyCryptoBank.sol\":2175:2190  contractPaused_ */\n      dup1\n        /* \"MyCryptoBank.sol\":2158:2172  contractPaused */\n      0x03\n      0x00\n        /* \"MyCryptoBank.sol\":2158:2190  contractPaused = contractPaused_ */\n      0x0100\n      exp\n      dup2\n      sload\n      dup2\n      0xff\n      mul\n      not\n      and\n      swap1\n      dup4\n      iszero\n      iszero\n      mul\n      or\n      swap1\n      sstore\n      pop\n        /* \"MyCryptoBank.sol\":2206:2234  PauseStatus(contractPaused_) */\n      0xc4783ff1ae7f4b4b2643279fbfe00092383a57f3c2d82509c81616c0b4c4f0a3\n        /* \"MyCryptoBank.sol\":2218:2233  contractPaused_ */\n      dup2\n        /* \"MyCryptoBank.sol\":2206:2234  PauseStatus(contractPaused_) */\n      mload(0x40)\n      tag_100\n      swap2\n      swap1\n      tag_41\n      jump\t// in\n    tag_100:\n      mload(0x40)\n      dup1\n      swap2\n      sub\n      swap1\n      log1\n        /* \"MyCryptoBank.sol\":2082:2242  function pauseContract(bool contractPaused_) external onlyAdmin{... */\n      pop\n      jump\t// out\n        /* \"MyCryptoBank.sol\":417:437  address public admin */\n    tag_55:\n      0x01\n      0x00\n      swap1\n      sload\n      swap1\n      0x0100\n      exp\n      swap1\n      div\n      0xffffffffffffffffffffffffffffffffffffffff\n      and\n      dup2\n      jump\t// out\n        /* \"#utility.yul\":88:205   */\n    tag_102:\n        /* \"#utility.yul\":197:198   */\n      0x00\n        /* \"#utility.yul\":194:195   */\n      dup1\n        /* \"#utility.yul\":187:199   */\n      revert\n        /* \"#utility.yul\":334:460   */\n    tag_104:\n        /* \"#utility.yul\":371:378   */\n      0x00\n        /* \"#utility.yul\":411:453   */\n      0xffffffffffffffffffffffffffffffffffffffff\n        /* \"#utility.yul\":404:409   */\n      dup3\n        /* \"#utility.yul\":400:454   */\n      and\n        /* \"#utility.yul\":389:454   */\n      swap1\n      pop\n        /* \"#utility.yul\":334:460   */\n      swap2\n      swap1\n      pop\n      jump\t// out\n        /* \"#utility.yul\":466:562   */\n    tag_105:\n        /* \"#utility.yul\":503:510   */\n      0x00\n        /* \"#utility.yul\":532:556   */\n      tag_137\n        /* \"#utility.yul\":550:555   */\n      dup3\n        /* \"#utility.yul\":532:556   */\n      tag_104\n      jump\t// in\n    tag_137:\n        /* \"#utility.yul\":521:556   */\n      swap1\n      pop\n        /* \"#utility.yul\":466:562   */\n      swap2\n      swap1\n      pop\n      jump\t// out\n        /* \"#utility.yul\":568:690   */\n    tag_106:\n        /* \"#utility.yul\":641:665   */\n      tag_139\n        /* \"#utility.yul\":659:664   */\n      dup2\n        /* \"#utility.yul\":641:665   */\n      tag_105\n      jump\t// in\n    tag_139:\n        /* \"#utility.yul\":634:639   */\n      dup2\n        /* \"#utility.yul\":631:666   */\n      eq\n        /* \"#utility.yul\":621:684   */\n      tag_140\n      jumpi\n        /* \"#utility.yul\":680:681   */\n      0x00\n        /* \"#utility.yul\":677:678   */\n      dup1\n        /* \"#utility.yul\":670:682   */\n      revert\n        /* \"#utility.yul\":621:684   */\n    tag_140:\n        /* \"#utility.yul\":568:690   */\n      pop\n      jump\t// out\n        /* \"#utility.yul\":696:835   */\n    tag_107:\n        /* \"#utility.yul\":742:747   */\n      0x00\n        /* \"#utility.yul\":780:786   */\n      dup2\n        /* \"#utility.yul\":767:787   */\n      calldataload\n        /* \"#utility.yul\":758:787   */\n      swap1\n      pop\n        /* \"#utility.yul\":796:829   */\n      tag_142\n        /* \"#utility.yul\":823:828   */\n      dup2\n        /* \"#utility.yul\":796:829   */\n      tag_106\n      jump\t// in\n    tag_142:\n        /* \"#utility.yul\":696:835   */\n      swap3\n      swap2\n      pop\n      pop\n      jump\t// out\n        /* \"#utility.yul\":841:1170   */\n    tag_16:\n        /* \"#utility.yul\":900:906   */\n      0x00\n        /* \"#utility.yul\":949:951   */\n      0x20\n        /* \"#utility.yul\":937:946   */\n      dup3\n        /* \"#utility.yul\":928:935   */\n      dup5\n        /* \"#utility.yul\":924:947   */\n      sub\n        /* \"#utility.yul\":920:952   */\n      slt\n        /* \"#utility.yul\":917:1036   */\n      iszero\n      tag_144\n      jumpi\n        /* \"#utility.yul\":955:1034   */\n      tag_145\n      tag_102\n      jump\t// in\n    tag_145:\n        /* \"#utility.yul\":917:1036   */\n    tag_144:\n        /* \"#utility.yul\":1075:1076   */\n      0x00\n        /* \"#utility.yul\":1100:1153   */\n      tag_146\n        /* \"#utility.yul\":1145:1152   */\n      dup5\n        /* \"#utility.yul\":1136:1142   */\n      dup3\n        /* \"#utility.yul\":1125:1134   */\n      dup6\n        /* \"#utility.yul\":1121:1143   */\n      add\n        /* \"#utility.yul\":1100:1153   */\n      tag_107\n      jump\t// in\n    tag_146:\n        /* \"#utility.yul\":1090:1153   */\n      swap2\n      pop\n        /* \"#utility.yul\":1046:1163   */\n      pop\n        /* \"#utility.yul\":841:1170   */\n      swap3\n      swap2\n      pop\n      pop\n      jump\t// out\n        /* \"#utility.yul\":1176:1253   */\n    tag_108:\n        /* \"#utility.yul\":1213:1220   */\n      0x00\n        /* \"#utility.yul\":1242:1247   */\n      dup2\n        /* \"#utility.yul\":1231:1247   */\n      swap1\n      pop\n        /* \"#utility.yul\":1176:1253   */\n      swap2\n      swap1\n      pop\n      jump\t// out\n        /* \"#utility.yul\":1259:1377   */\n    tag_109:\n        /* \"#utility.yul\":1346:1370   */\n      tag_149\n        /* \"#utility.yul\":1364:1369   */\n      dup2\n        /* \"#utility.yul\":1346:1370   */\n      tag_108\n      jump\t// in\n    tag_149:\n        /* \"#utility.yul\":1341:1344   */\n      dup3\n        /* \"#utility.yul\":1334:1371   */\n      mstore\n        /* \"#utility.yul\":1259:1377   */\n      pop\n      pop\n      jump\t// out\n        /* \"#utility.yul\":1383:1605   */\n    tag_19:\n        /* \"#utility.yul\":1476:1480   */\n      0x00\n        /* \"#utility.yul\":1514:1516   */\n      0x20\n        /* \"#utility.yul\":1503:1512   */\n      dup3\n        /* \"#utility.yul\":1499:1517   */\n      add\n        /* \"#utility.yul\":1491:1517   */\n      swap1\n      pop\n        /* \"#utility.yul\":1527:1598   */\n      tag_151\n        /* \"#utility.yul\":1595:1596   */\n      0x00\n        /* \"#utility.yul\":1584:1593   */\n      dup4\n        /* \"#utility.yul\":1580:1597   */\n      add\n        /* \"#utility.yul\":1571:1577   */\n      dup5\n        /* \"#utility.yul\":1527:1598   */\n      tag_109\n      jump\t// in\n    tag_151:\n        /* \"#utility.yul\":1383:1605   */\n      swap3\n      swap2\n      pop\n      pop\n      jump\t// out\n        /* \"#utility.yul\":1611:1733   */\n    tag_110:\n        /* \"#utility.yul\":1684:1708   */\n      tag_153\n        /* \"#utility.yul\":1702:1707   */\n      dup2\n        /* \"#utility.yul\":1684:1708   */\n      tag_108\n      jump\t// in\n    tag_153:\n        /* \"#utility.yul\":1677:1682   */\n      dup2\n        /* \"#utility.yul\":1674:1709   */\n      eq\n        /* \"#utility.yul\":1664:1727   */\n      tag_154\n      jumpi\n        /* \"#utility.yul\":1723:1724   */\n      0x00\n        /* \"#utility.yul\":1720:1721   */\n      dup1\n        /* \"#utility.yul\":1713:1725   */\n      revert\n        /* \"#utility.yul\":1664:1727   */\n    tag_154:\n        /* \"#utility.yul\":1611:1733   */\n      pop\n      jump\t// out\n        /* \"#utility.yul\":1739:1878   */\n    tag_111:\n        /* \"#utility.yul\":1785:1790   */\n      0x00\n        /* \"#utility.yul\":1823:1829   */\n      dup2\n        /* \"#utility.yul\":1810:1830   */\n      calldataload\n        /* \"#utility.yul\":1801:1830   */\n      swap1\n      pop\n        /* \"#utility.yul\":1839:1872   */\n      tag_156\n        /* \"#utility.yul\":1866:1871   */\n      dup2\n        /* \"#utility.yul\":1839:1872   */\n      tag_110\n      jump\t// in\n    tag_156:\n        /* \"#utility.yul\":1739:1878   */\n      swap3\n      swap2\n      pop\n      pop\n      jump\t// out\n        /* \"#utility.yul\":1884:2213   */\n    tag_27:\n        /* \"#utility.yul\":1943:1949   */\n      0x00\n        /* \"#utility.yul\":1992:1994   */\n      0x20\n        /* \"#utility.yul\":1980:1989   */\n      dup3\n        /* \"#utility.yul\":1971:1978   */\n      dup5\n        /* \"#utility.yul\":1967:1990   */\n      sub\n        /* \"#utility.yul\":1963:1995   */\n      slt\n        /* \"#utility.yul\":1960:2079   */\n      iszero\n      tag_158\n      jumpi\n        /* \"#utility.yul\":1998:2077   */\n      tag_159\n      tag_102\n      jump\t// in\n    tag_159:\n        /* \"#utility.yul\":1960:2079   */\n    tag_158:\n        /* \"#utility.yul\":2118:2119   */\n      0x00\n        /* \"#utility.yul\":2143:2196   */\n      tag_160\n        /* \"#utility.yul\":2188:2195   */\n      dup5\n        /* \"#utility.yul\":2179:2185   */\n      dup3\n        /* \"#utility.yul\":2168:2177   */\n      dup6\n        /* \"#utility.yul\":2164:2186   */\n      add\n        /* \"#utility.yul\":2143:2196   */\n      tag_111\n      jump\t// in\n    tag_160:\n        /* \"#utility.yul\":2133:2196   */\n      swap2\n      pop\n        /* \"#utility.yul\":2089:2206   */\n      pop\n        /* \"#utility.yul\":1884:2213   */\n      swap3\n      swap2\n      pop\n      pop\n      jump\t// out\n        /* \"#utility.yul\":2219:2309   */\n    tag_112:\n        /* \"#utility.yul\":2253:2260   */\n      0x00\n        /* \"#utility.yul\":2296:2301   */\n      dup2\n        /* \"#utility.yul\":2289:2302   */\n      iszero\n        /* \"#utility.yul\":2282:2303   */\n      iszero\n        /* \"#utility.yul\":2271:2303   */\n      swap1\n      pop\n        /* \"#utility.yul\":2219:2309   */\n      swap2\n      swap1\n      pop\n      jump\t// out\n        /* \"#utility.yul\":2315:2424   */\n    tag_113:\n        /* \"#utility.yul\":2396:2417   */\n      tag_163\n        /* \"#utility.yul\":2411:2416   */\n      dup2\n        /* \"#utility.yul\":2396:2417   */\n      tag_112\n      jump\t// in\n    tag_163:\n        /* \"#utility.yul\":2391:2394   */\n      dup3\n        /* \"#utility.yul\":2384:2418   */\n      mstore\n        /* \"#utility.yul\":2315:2424   */\n      pop\n      pop\n      jump\t// out\n        /* \"#utility.yul\":2430:2640   */\n    tag_41:\n        /* \"#utility.yul\":2517:2521   */\n      0x00\n        /* \"#utility.yul\":2555:2557   */\n      0x20\n        /* \"#utility.yul\":2544:2553   */\n      dup3\n        /* \"#utility.yul\":2540:2558   */\n      add\n        /* \"#utility.yul\":2532:2558   */\n      swap1\n      pop\n        /* \"#utility.yul\":2568:2633   */\n      tag_165\n        /* \"#utility.yul\":2630:2631   */\n      0x00\n        /* \"#utility.yul\":2619:2628   */\n      dup4\n        /* \"#utility.yul\":2615:2632   */\n      add\n        /* \"#utility.yul\":2606:2612   */\n      dup5\n        /* \"#utility.yul\":2568:2633   */\n      tag_113\n      jump\t// in\n    tag_165:\n        /* \"#utility.yul\":2430:2640   */\n      swap3\n      swap2\n      pop\n      pop\n      jump\t// out\n        /* \"#utility.yul\":2646:2762   */\n    tag_114:\n        /* \"#utility.yul\":2716:2737   */\n      tag_167\n        /* \"#utility.yul\":2731:2736   */\n      dup2\n        /* \"#utility.yul\":2716:2737   */\n      tag_112\n      jump\t// in\n    tag_167:\n        /* \"#utility.yul\":2709:2714   */\n      dup2\n        /* \"#utility.yul\":2706:2738   */\n      eq\n        /* \"#utility.yul\":2696:2756   */\n      tag_168\n      jumpi\n        /* \"#utility.yul\":2752:2753   */\n      0x00\n        /* \"#utility.yul\":2749:2750   */\n      dup1\n        /* \"#utility.yul\":2742:2754   */\n      revert\n        /* \"#utility.yul\":2696:2756   */\n    tag_168:\n        /* \"#utility.yul\":2646:2762   */\n      pop\n      jump\t// out\n        /* \"#utility.yul\":2768:2901   */\n    tag_115:\n        /* \"#utility.yul\":2811:2816   */\n      0x00\n        /* \"#utility.yul\":2849:2855   */\n      dup2\n        /* \"#utility.yul\":2836:2856   */\n      calldataload\n        /* \"#utility.yul\":2827:2856   */\n      swap1\n      pop\n        /* \"#utility.yul\":2865:2895   */\n      tag_170\n        /* \"#utility.yul\":2889:2894   */\n      dup2\n        /* \"#utility.yul\":2865:2895   */\n      tag_114\n      jump\t// in\n    tag_170:\n        /* \"#utility.yul\":2768:2901   */\n      swap3\n      swap2\n      pop\n      pop\n      jump\t// out\n        /* \"#utility.yul\":2907:3230   */\n    tag_51:\n        /* \"#utility.yul\":2963:2969   */\n      0x00\n        /* \"#utility.yul\":3012:3014   */\n      0x20\n        /* \"#utility.yul\":3000:3009   */\n      dup3\n        /* \"#utility.yul\":2991:2998   */\n      dup5\n        /* \"#utility.yul\":2987:3010   */\n      sub\n        /* \"#utility.yul\":2983:3015   */\n      slt\n        /* \"#utility.yul\":2980:3099   */\n      iszero\n      tag_172\n      jumpi\n        /* \"#utility.yul\":3018:3097   */\n      tag_173\n      tag_102\n      jump\t// in\n    tag_173:\n        /* \"#utility.yul\":2980:3099   */\n    tag_172:\n        /* \"#utility.yul\":3138:3139   */\n      0x00\n        /* \"#utility.yul\":3163:3213   */\n      tag_174\n        /* \"#utility.yul\":3205:3212   */\n      dup5\n        /* \"#utility.yul\":3196:3202   */\n      dup3\n        /* \"#utility.yul\":3185:3194   */\n      dup6\n        /* \"#utility.yul\":3181:3203   */\n      add\n        /* \"#utility.yul\":3163:3213   */\n      tag_115\n      jump\t// in\n    tag_174:\n        /* \"#utility.yul\":3153:3213   */\n      swap2\n      pop\n        /* \"#utility.yul\":3109:3223   */\n      pop\n        /* \"#utility.yul\":2907:3230   */\n      swap3\n      swap2\n      pop\n      pop\n      jump\t// out\n        /* \"#utility.yul\":3236:3354   */\n    tag_116:\n        /* \"#utility.yul\":3323:3347   */\n      tag_176\n        /* \"#utility.yul\":3341:3346   */\n      dup2\n        /* \"#utility.yul\":3323:3347   */\n      tag_105\n      jump\t// in\n    tag_176:\n        /* \"#utility.yul\":3318:3321   */\n      dup3\n        /* \"#utility.yul\":3311:3348   */\n      mstore\n        /* \"#utility.yul\":3236:3354   */\n      pop\n      pop\n      jump\t// out\n        /* \"#utility.yul\":3360:3582   */\n    tag_57:\n        /* \"#utility.yul\":3453:3457   */\n      0x00\n        /* \"#utility.yul\":3491:3493   */\n      0x20\n        /* \"#utility.yul\":3480:3489   */\n      dup3\n        /* \"#utility.yul\":3476:3494   */\n      add\n        /* \"#utility.yul\":3468:3494   */\n      swap1\n      pop\n        /* \"#utility.yul\":3504:3575   */\n      tag_178\n        /* \"#utility.yul\":3572:3573   */\n      0x00\n        /* \"#utility.yul\":3561:3570   */\n      dup4\n        /* \"#utility.yul\":3557:3574   */\n      add\n        /* \"#utility.yul\":3548:3554   */\n      dup5\n        /* \"#utility.yul\":3504:3575   */\n      tag_116\n      jump\t// in\n    tag_178:\n        /* \"#utility.yul\":3360:3582   */\n      swap3\n      swap2\n      pop\n      pop\n      jump\t// out\n        /* \"#utility.yul\":3588:3757   */\n    tag_117:\n        /* \"#utility.yul\":3672:3683   */\n      0x00\n        /* \"#utility.yul\":3706:3712   */\n      dup3\n        /* \"#utility.yul\":3701:3704   */\n      dup3\n        /* \"#utility.yul\":3694:3713   */\n      mstore\n        /* \"#utility.yul\":3746:3750   */\n      0x20\n        /* \"#utility.yul\":3741:3744   */\n      dup3\n        /* \"#utility.yul\":3737:3751   */\n      add\n        /* \"#utility.yul\":3722:3751   */\n      swap1\n      pop\n        /* \"#utility.yul\":3588:3757   */\n      swap3\n      swap2\n      pop\n      pop\n      jump\t// out\n        /* \"#utility.yul\":3763:3931   */\n    tag_118:\n        /* \"#utility.yul\":3903:3923   */\n      0x436f6e7472616374206973207061757365640000000000000000000000000000\n        /* \"#utility.yul\":3899:3900   */\n      0x00\n        /* \"#utility.yul\":3891:3897   */\n      dup3\n        /* \"#utility.yul\":3887:3901   */\n      add\n        /* \"#utility.yul\":3880:3924   */\n      mstore\n        /* \"#utility.yul\":3763:3931   */\n      pop\n      jump\t// out\n        /* \"#utility.yul\":3937:4303   */\n    tag_119:\n        /* \"#utility.yul\":4079:4082   */\n      0x00\n        /* \"#utility.yul\":4100:4167   */\n      tag_182\n        /* \"#utility.yul\":4164:4166   */\n      0x12\n        /* \"#utility.yul\":4159:4162   */\n      dup4\n        /* \"#utility.yul\":4100:4167   */\n      tag_117\n      jump\t// in\n    tag_182:\n        /* \"#utility.yul\":4093:4167   */\n      swap2\n      pop\n        /* \"#utility.yul\":4176:4269   */\n      tag_183\n        /* \"#utility.yul\":4265:4268   */\n      dup3\n        /* \"#utility.yul\":4176:4269   */\n      tag_118\n      jump\t// in\n    tag_183:\n        /* \"#utility.yul\":4294:4296   */\n      0x20\n        /* \"#utility.yul\":4289:4292   */\n      dup3\n        /* \"#utility.yul\":4285:4297   */\n      add\n        /* \"#utility.yul\":4278:4297   */\n      swap1\n      pop\n        /* \"#utility.yul\":3937:4303   */\n      swap2\n      swap1\n      pop\n      jump\t// out\n        /* \"#utility.yul\":4309:4728   */\n    tag_62:\n        /* \"#utility.yul\":4475:4479   */\n      0x00\n        /* \"#utility.yul\":4513:4515   */\n      0x20\n        /* \"#utility.yul\":4502:4511   */\n      dup3\n        /* \"#utility.yul\":4498:4516   */\n      add\n        /* \"#utility.yul\":4490:4516   */\n      swap1\n      pop\n        /* \"#utility.yul\":4562:4571   */\n      dup2\n        /* \"#utility.yul\":4556:4560   */\n      dup2\n        /* \"#utility.yul\":4552:4572   */\n      sub\n        /* \"#utility.yul\":4548:4549   */\n      0x00\n        /* \"#utility.yul\":4537:4546   */\n      dup4\n        /* \"#utility.yul\":4533:4550   */\n      add\n        /* \"#utility.yul\":4526:4573   */\n      mstore\n        /* \"#utility.yul\":4590:4721   */\n      tag_185\n        /* \"#utility.yul\":4716:4720   */\n      dup2\n        /* \"#utility.yul\":4590:4721   */\n      tag_119\n      jump\t// in\n    tag_185:\n        /* \"#utility.yul\":4582:4721   */\n      swap1\n      pop\n        /* \"#utility.yul\":4309:4728   */\n      swap2\n      swap1\n      pop\n      jump\t// out\n        /* \"#utility.yul\":4734:4964   */\n    tag_120:\n        /* \"#utility.yul\":4874:4908   */\n      0x43616e6e6f74207769746864726177206d6f7265207468616e20617661696c61\n        /* \"#utility.yul\":4870:4871   */\n      0x00\n        /* \"#utility.yul\":4862:4868   */\n      dup3\n        /* \"#utility.yul\":4858:4872   */\n      add\n        /* \"#utility.yul\":4851:4909   */\n      mstore\n        /* \"#utility.yul\":4943:4956   */\n      0x626c652062616c616e6365000000000000000000000000000000000000000000\n        /* \"#utility.yul\":4938:4940   */\n      0x20\n        /* \"#utility.yul\":4930:4936   */\n      dup3\n        /* \"#utility.yul\":4926:4941   */\n      add\n        /* \"#utility.yul\":4919:4957   */\n      mstore\n        /* \"#utility.yul\":4734:4964   */\n      pop\n      jump\t// out\n        /* \"#utility.yul\":4970:5336   */\n    tag_121:\n        /* \"#utility.yul\":5112:5115   */\n      0x00\n        /* \"#utility.yul\":5133:5200   */\n      tag_188\n        /* \"#utility.yul\":5197:5199   */\n      0x2b\n        /* \"#utility.yul\":5192:5195   */\n      dup4\n        /* \"#utility.yul\":5133:5200   */\n      tag_117\n      jump\t// in\n    tag_188:\n        /* \"#utility.yul\":5126:5200   */\n      swap2\n      pop\n        /* \"#utility.yul\":5209:5302   */\n      tag_189\n        /* \"#utility.yul\":5298:5301   */\n      dup3\n        /* \"#utility.yul\":5209:5302   */\n      tag_120\n      jump\t// in\n    tag_189:\n        /* \"#utility.yul\":5327:5329   */\n      0x40\n        /* \"#utility.yul\":5322:5325   */\n      dup3\n        /* \"#utility.yul\":5318:5330   */\n      add\n        /* \"#utility.yul\":5311:5330   */\n      swap1\n      pop\n        /* \"#utility.yul\":4970:5336   */\n      swap2\n      swap1\n      pop\n      jump\t// out\n        /* \"#utility.yul\":5342:5761   */\n    tag_66:\n        /* \"#utility.yul\":5508:5512   */\n      0x00\n        /* \"#utility.yul\":5546:5548   */\n      0x20\n        /* \"#utility.yul\":5535:5544   */\n      dup3\n        /* \"#utility.yul\":5531:5549   */\n      add\n        /* \"#utility.yul\":5523:5549   */\n      swap1\n      pop\n        /* \"#utility.yul\":5595:5604   */\n      dup2\n        /* \"#utility.yul\":5589:5593   */\n      dup2\n        /* \"#utility.yul\":5585:5605   */\n      sub\n        /* \"#utility.yul\":5581:5582   */\n      0x00\n        /* \"#utility.yul\":5570:5579   */\n      dup4\n        /* \"#utility.yul\":5566:5583   */\n      add\n        /* \"#utility.yul\":5559:5606   */\n      mstore\n        /* \"#utility.yul\":5623:5754   */\n      tag_191\n        /* \"#utility.yul\":5749:5753   */\n      dup2\n        /* \"#utility.yul\":5623:5754   */\n      tag_121\n      jump\t// in\n    tag_191:\n        /* \"#utility.yul\":5615:5754   */\n      swap1\n      pop\n        /* \"#utility.yul\":5342:5761   */\n      swap2\n      swap1\n      pop\n      jump\t// out\n        /* \"#utility.yul\":5767:5947   */\n    tag_122:\n        /* \"#utility.yul\":5815:5892   */\n      0x4e487b7100000000000000000000000000000000000000000000000000000000\n        /* \"#utility.yul\":5812:5813   */\n      0x00\n        /* \"#utility.yul\":5805:5893   */\n      mstore\n        /* \"#utility.yul\":5912:5916   */\n      0x11\n        /* \"#utility.yul\":5909:5910   */\n      0x04\n        /* \"#utility.yul\":5902:5917   */\n      mstore\n        /* \"#utility.yul\":5936:5940   */\n      0x24\n        /* \"#utility.yul\":5933:5934   */\n      0x00\n        /* \"#utility.yul\":5926:5941   */\n      revert\n        /* \"#utility.yul\":5953:6147   */\n    tag_68:\n        /* \"#utility.yul\":5993:5997   */\n      0x00\n        /* \"#utility.yul\":6013:6033   */\n      tag_194\n        /* \"#utility.yul\":6031:6032   */\n      dup3\n        /* \"#utility.yul\":6013:6033   */\n      tag_108\n      jump\t// in\n    tag_194:\n        /* \"#utility.yul\":6008:6033   */\n      swap2\n      pop\n        /* \"#utility.yul\":6047:6067   */\n      tag_195\n        /* \"#utility.yul\":6065:6066   */\n      dup4\n        /* \"#utility.yul\":6047:6067   */\n      tag_108\n      jump\t// in\n    tag_195:\n        /* \"#utility.yul\":6042:6067   */\n      swap3\n      pop\n        /* \"#utility.yul\":6091:6092   */\n      dup3\n        /* \"#utility.yul\":6088:6089   */\n      dup3\n        /* \"#utility.yul\":6084:6093   */\n      sub\n        /* \"#utility.yul\":6076:6093   */\n      swap1\n      pop\n        /* \"#utility.yul\":6115:6116   */\n      dup2\n        /* \"#utility.yul\":6109:6113   */\n      dup2\n        /* \"#utility.yul\":6106:6117   */\n      gt\n        /* \"#utility.yul\":6103:6140   */\n      iszero\n      tag_196\n      jumpi\n        /* \"#utility.yul\":6120:6138   */\n      tag_197\n      tag_122\n      jump\t// in\n    tag_197:\n        /* \"#utility.yul\":6103:6140   */\n    tag_196:\n        /* \"#utility.yul\":5953:6147   */\n      swap3\n      swap2\n      pop\n      pop\n      jump\t// out\n        /* \"#utility.yul\":6153:6300   */\n    tag_123:\n        /* \"#utility.yul\":6254:6265   */\n      0x00\n        /* \"#utility.yul\":6291:6294   */\n      dup2\n        /* \"#utility.yul\":6276:6294   */\n      swap1\n      pop\n        /* \"#utility.yul\":6153:6300   */\n      swap3\n      swap2\n      pop\n      pop\n      jump\t// out\n        /* \"#utility.yul\":6306:6420   */\n    tag_124:\n      pop\n      jump\t// out\n        /* \"#utility.yul\":6426:6824   */\n    tag_125:\n        /* \"#utility.yul\":6585:6588   */\n      0x00\n        /* \"#utility.yul\":6606:6689   */\n      tag_201\n        /* \"#utility.yul\":6687:6688   */\n      0x00\n        /* \"#utility.yul\":6682:6685   */\n      dup4\n        /* \"#utility.yul\":6606:6689   */\n      tag_123\n      jump\t// in\n    tag_201:\n        /* \"#utility.yul\":6599:6689   */\n      swap2\n      pop\n        /* \"#utility.yul\":6698:6791   */\n      tag_202\n        /* \"#utility.yul\":6787:6790   */\n      dup3\n        /* \"#utility.yul\":6698:6791   */\n      tag_124\n      jump\t// in\n    tag_202:\n        /* \"#utility.yul\":6816:6817   */\n      0x00\n        /* \"#utility.yul\":6811:6814   */\n      dup3\n        /* \"#utility.yul\":6807:6818   */\n      add\n        /* \"#utility.yul\":6800:6818   */\n      swap1\n      pop\n        /* \"#utility.yul\":6426:6824   */\n      swap2\n      swap1\n      pop\n      jump\t// out\n        /* \"#utility.yul\":6830:7209   */\n    tag_70:\n        /* \"#utility.yul\":7014:7017   */\n      0x00\n        /* \"#utility.yul\":7036:7183   */\n      tag_204\n        /* \"#utility.yul\":7179:7182   */\n      dup3\n        /* \"#utility.yul\":7036:7183   */\n      tag_125\n      jump\t// in\n    tag_204:\n        /* \"#utility.yul\":7029:7183   */\n      swap2\n      pop\n        /* \"#utility.yul\":7200:7203   */\n      dup2\n        /* \"#utility.yul\":7193:7203   */\n      swap1\n      pop\n        /* \"#utility.yul\":6830:7209   */\n      swap2\n      swap1\n      pop\n      jump\t// out\n        /* \"#utility.yul\":7215:7380   */\n    tag_126:\n        /* \"#utility.yul\":7355:7372   */\n      0x5769746864726177206661696c65640000000000000000000000000000000000\n        /* \"#utility.yul\":7351:7352   */\n      0x00\n        /* \"#utility.yul\":7343:7349   */\n      dup3\n        /* \"#utility.yul\":7339:7353   */\n      add\n        /* \"#utility.yul\":7332:7373   */\n      mstore\n        /* \"#utility.yul\":7215:7380   */\n      pop\n      jump\t// out\n        /* \"#utility.yul\":7386:7752   */\n    tag_127:\n        /* \"#utility.yul\":7528:7531   */\n      0x00\n        /* \"#utility.yul\":7549:7616   */\n      tag_207\n        /* \"#utility.yul\":7613:7615   */\n      0x0f\n        /* \"#utility.yul\":7608:7611   */\n      dup4\n        /* \"#utility.yul\":7549:7616   */\n      tag_117\n      jump\t// in\n    tag_207:\n        /* \"#utility.yul\":7542:7616   */\n      swap2\n      pop\n        /* \"#utility.yul\":7625:7718   */\n      tag_208\n        /* \"#utility.yul\":7714:7717   */\n      dup3\n        /* \"#utility.yul\":7625:7718   */\n      tag_126\n      jump\t// in\n    tag_208:\n        /* \"#utility.yul\":7743:7745   */\n      0x20\n        /* \"#utility.yul\":7738:7741   */\n      dup3\n        /* \"#utility.yul\":7734:7746   */\n      add\n        /* \"#utility.yul\":7727:7746   */\n      swap1\n      pop\n        /* \"#utility.yul\":7386:7752   */\n      swap2\n      swap1\n      pop\n      jump\t// out\n        /* \"#utility.yul\":7758:8177   */\n    tag_76:\n        /* \"#utility.yul\":7924:7928   */\n      0x00\n        /* \"#utility.yul\":7962:7964   */\n      0x20\n        /* \"#utility.yul\":7951:7960   */\n      dup3\n        /* \"#utility.yul\":7947:7965   */\n      add\n        /* \"#utility.yul\":7939:7965   */\n      swap1\n      pop\n        /* \"#utility.yul\":8011:8020   */\n      dup2\n        /* \"#utility.yul\":8005:8009   */\n      dup2\n        /* \"#utility.yul\":8001:8021   */\n      sub\n        /* \"#utility.yul\":7997:7998   */\n      0x00\n        /* \"#utility.yul\":7986:7995   */\n      dup4\n        /* \"#utility.yul\":7982:7999   */\n      add\n        /* \"#utility.yul\":7975:8022   */\n      mstore\n        /* \"#utility.yul\":8039:8170   */\n      tag_210\n        /* \"#utility.yul\":8165:8169   */\n      dup2\n        /* \"#utility.yul\":8039:8170   */\n      tag_127\n      jump\t// in\n    tag_210:\n        /* \"#utility.yul\":8031:8170   */\n      swap1\n      pop\n        /* \"#utility.yul\":7758:8177   */\n      swap2\n      swap1\n      pop\n      jump\t// out\n        /* \"#utility.yul\":8183:8515   */\n    tag_78:\n        /* \"#utility.yul\":8304:8308   */\n      0x00\n        /* \"#utility.yul\":8342:8344   */\n      0x40\n        /* \"#utility.yul\":8331:8340   */\n      dup3\n        /* \"#utility.yul\":8327:8345   */\n      add\n        /* \"#utility.yul\":8319:8345   */\n      swap1\n      pop\n        /* \"#utility.yul\":8355:8426   */\n      tag_212\n        /* \"#utility.yul\":8423:8424   */\n      0x00\n        /* \"#utility.yul\":8412:8421   */\n      dup4\n        /* \"#utility.yul\":8408:8425   */\n      add\n        /* \"#utility.yul\":8399:8405   */\n      dup6\n        /* \"#utility.yul\":8355:8426   */\n      tag_116\n      jump\t// in\n    tag_212:\n        /* \"#utility.yul\":8436:8508   */\n      tag_213\n        /* \"#utility.yul\":8504:8506   */\n      0x20\n        /* \"#utility.yul\":8493:8502   */\n      dup4\n        /* \"#utility.yul\":8489:8507   */\n      add\n        /* \"#utility.yul\":8480:8486   */\n      dup5\n        /* \"#utility.yul\":8436:8508   */\n      tag_109\n      jump\t// in\n    tag_213:\n        /* \"#utility.yul\":8183:8515   */\n      swap4\n      swap3\n      pop\n      pop\n      pop\n      jump\t// out\n        /* \"#utility.yul\":8521:8683   */\n    tag_128:\n        /* \"#utility.yul\":8661:8675   */\n      0x556e617574686f72697a65640000000000000000000000000000000000000000\n        /* \"#utility.yul\":8657:8658   */\n      0x00\n        /* \"#utility.yul\":8649:8655   */\n      dup3\n        /* \"#utility.yul\":8645:8659   */\n      add\n        /* \"#utility.yul\":8638:8676   */\n      mstore\n        /* \"#utility.yul\":8521:8683   */\n      pop\n      jump\t// out\n        /* \"#utility.yul\":8689:9055   */\n    tag_129:\n        /* \"#utility.yul\":8831:8834   */\n      0x00\n        /* \"#utility.yul\":8852:8919   */\n      tag_216\n        /* \"#utility.yul\":8916:8918   */\n      0x0c\n        /* \"#utility.yul\":8911:8914   */\n      dup4\n        /* \"#utility.yul\":8852:8919   */\n      tag_117\n      jump\t// in\n    tag_216:\n        /* \"#utility.yul\":8845:8919   */\n      swap2\n      pop\n        /* \"#utility.yul\":8928:9021   */\n      tag_217\n        /* \"#utility.yul\":9017:9020   */\n      dup3\n        /* \"#utility.yul\":8928:9021   */\n      tag_128\n      jump\t// in\n    tag_217:\n        /* \"#utility.yul\":9046:9048   */\n      0x20\n        /* \"#utility.yul\":9041:9044   */\n      dup3\n        /* \"#utility.yul\":9037:9049   */\n      add\n        /* \"#utility.yul\":9030:9049   */\n      swap1\n      pop\n        /* \"#utility.yul\":8689:9055   */\n      swap2\n      swap1\n      pop\n      jump\t// out\n        /* \"#utility.yul\":9061:9480   */\n    tag_83:\n        /* \"#utility.yul\":9227:9231   */\n      0x00\n        /* \"#utility.yul\":9265:9267   */\n      0x20\n        /* \"#utility.yul\":9254:9263   */\n      dup3\n        /* \"#utility.yul\":9250:9268   */\n      add\n        /* \"#utility.yul\":9242:9268   */\n      swap1\n      pop\n        /* \"#utility.yul\":9314:9323   */\n      dup2\n        /* \"#utility.yul\":9308:9312   */\n      dup2\n        /* \"#utility.yul\":9304:9324   */\n      sub\n        /* \"#utility.yul\":9300:9301   */\n      0x00\n        /* \"#utility.yul\":9289:9298   */\n      dup4\n        /* \"#utility.yul\":9285:9302   */\n      add\n        /* \"#utility.yul\":9278:9325   */\n      mstore\n        /* \"#utility.yul\":9342:9473   */\n      tag_219\n        /* \"#utility.yul\":9468:9472   */\n      dup2\n        /* \"#utility.yul\":9342:9473   */\n      tag_129\n      jump\t// in\n    tag_219:\n        /* \"#utility.yul\":9334:9473   */\n      swap1\n      pop\n        /* \"#utility.yul\":9061:9480   */\n      swap2\n      swap1\n      pop\n      jump\t// out\n        /* \"#utility.yul\":9486:9677   */\n    tag_90:\n        /* \"#utility.yul\":9526:9529   */\n      0x00\n        /* \"#utility.yul\":9545:9565   */\n      tag_221\n        /* \"#utility.yul\":9563:9564   */\n      dup3\n        /* \"#utility.yul\":9545:9565   */\n      tag_108\n      jump\t// in\n    tag_221:\n        /* \"#utility.yul\":9540:9565   */\n      swap2\n      pop\n        /* \"#utility.yul\":9579:9599   */\n      tag_222\n        /* \"#utility.yul\":9597:9598   */\n      dup4\n        /* \"#utility.yul\":9579:9599   */\n      tag_108\n      jump\t// in\n    tag_222:\n        /* \"#utility.yul\":9574:9599   */\n      swap3\n      pop\n        /* \"#utility.yul\":9622:9623   */\n      dup3\n        /* \"#utility.yul\":9619:9620   */\n      dup3\n        /* \"#utility.yul\":9615:9624   */\n      add\n        /* \"#utility.yul\":9608:9624   */\n      swap1\n      pop\n        /* \"#utility.yul\":9643:9646   */\n      dup1\n        /* \"#utility.yul\":9640:9641   */\n      dup3\n        /* \"#utility.yul\":9637:9647   */\n      gt\n        /* \"#utility.yul\":9634:9670   */\n      iszero\n      tag_223\n      jumpi\n        /* \"#utility.yul\":9650:9668   */\n      tag_224\n      tag_122\n      jump\t// in\n    tag_224:\n        /* \"#utility.yul\":9634:9670   */\n    tag_223:\n        /* \"#utility.yul\":9486:9677   */\n      swap3\n      swap2\n      pop\n      pop\n      jump\t// out\n        /* \"#utility.yul\":9683:10047   */\n    tag_130:\n        /* \"#utility.yul\":9825:9828   */\n      0x00\n        /* \"#utility.yul\":9846:9912   */\n      tag_226\n        /* \"#utility.yul\":9910:9911   */\n      0x00\n        /* \"#utility.yul\":9905:9908   */\n      dup4\n        /* \"#utility.yul\":9846:9912   */\n      tag_117\n      jump\t// in\n    tag_226:\n        /* \"#utility.yul\":9839:9912   */\n      swap2\n      pop\n        /* \"#utility.yul\":9921:10014   */\n      tag_227\n        /* \"#utility.yul\":10010:10013   */\n      dup3\n        /* \"#utility.yul\":9921:10014   */\n      tag_124\n      jump\t// in\n    tag_227:\n        /* \"#utility.yul\":10039:10040   */\n      0x00\n        /* \"#utility.yul\":10034:10037   */\n      dup3\n        /* \"#utility.yul\":10030:10041   */\n      add\n        /* \"#utility.yul\":10023:10041   */\n      swap1\n      pop\n        /* \"#utility.yul\":9683:10047   */\n      swap2\n      swap1\n      pop\n      jump\t// out\n        /* \"#utility.yul\":10053:10472   */\n    tag_93:\n        /* \"#utility.yul\":10219:10223   */\n      0x00\n        /* \"#utility.yul\":10257:10259   */\n      0x20\n        /* \"#utility.yul\":10246:10255   */\n      dup3\n        /* \"#utility.yul\":10242:10260   */\n      add\n        /* \"#utility.yul\":10234:10260   */\n      swap1\n      pop\n        /* \"#utility.yul\":10306:10315   */\n      dup2\n        /* \"#utility.yul\":10300:10304   */\n      dup2\n        /* \"#utility.yul\":10296:10316   */\n      sub\n        /* \"#utility.yul\":10292:10293   */\n      0x00\n        /* \"#utility.yul\":10281:10290   */\n      dup4\n        /* \"#utility.yul\":10277:10294   */\n      add\n        /* \"#utility.yul\":10270:10317   */\n      mstore\n        /* \"#utility.yul\":10334:10465   */\n      tag_229\n        /* \"#utility.yul\":10460:10464   */\n      dup2\n        /* \"#utility.yul\":10334:10465   */\n      tag_130\n      jump\t// in\n    tag_229:\n        /* \"#utility.yul\":10326:10465   */\n      swap1\n      pop\n        /* \"#utility.yul\":10053:10472   */\n      swap2\n      swap1\n      pop\n      jump\t// out\n\n    auxdata: 0xa2646970667358221220b83eee05640c4719e1e0d45322e4d2f6fb880b7200b65dbb38a22e47290c466164736f6c634300081a0033\n}\n",
				"bytecode": {
					"linkReferences": {},
					"object": "608060405234801561000f575f80fd5b50604051610e2b380380610e2b83398181016040528101906100319190610128565b815f819055508060015f6101000a81548173ffffffffffffffffffffffffffffffffffffffff021916908373ffffffffffffffffffffffffffffffffffffffff1602179055505f60035f6101000a81548160ff0219169083151502179055505050610166565b5f80fd5b5f819050919050565b6100ad8161009b565b81146100b7575f80fd5b50565b5f815190506100c8816100a4565b92915050565b5f73ffffffffffffffffffffffffffffffffffffffff82169050919050565b5f6100f7826100ce565b9050919050565b610107816100ed565b8114610111575f80fd5b50565b5f81519050610122816100fe565b92915050565b5f806040838503121561013e5761013d610097565b5b5f61014b858286016100ba565b925050602061015c85828601610114565b9150509250929050565b610cb8806101735f395ff3fe608060405260043610610090575f3560e01c80638a67456a116100585780638a67456a14610176578063a2ccd6ba146101a0578063d0e30db0146101c8578063e272b892146101d2578063f851a440146101fa57610090565b80630103c92b146100945780630ffa58a8146100d05780632e1a7d4d146100fa57806373ad468a146101225780637b83b50b1461014c575b5f80fd5b34801561009f575f80fd5b506100ba60048036038101906100b59190610812565b610224565b6040516100c79190610855565b60405180910390f35b3480156100db575f80fd5b506100e4610239565b6040516100f19190610855565b60405180910390f35b348015610105575f80fd5b50610120600480360381019061011b9190610898565b61027d565b005b34801561012d575f80fd5b50610136610489565b6040516101439190610855565b60405180910390f35b348015610157575f80fd5b5061016061048e565b60405161016d9190610855565b60405180910390f35b348015610181575f80fd5b5061018a610495565b60405161019791906108dd565b60405180910390f35b3480156101ab575f80fd5b506101c660048036038101906101c19190610898565b6104a7565b005b6101d061053f565b005b3480156101dd575f80fd5b506101f860048036038101906101f39190610920565b6106ad565b005b348015610205575f80fd5b5061020e61078f565b60405161021b919061095a565b60405180910390f35b6002602052805f5260405f205f915090505481565b5f60025f3373ffffffffffffffffffffffffffffffffffffffff1673ffffffffffffffffffffffffffffffffffffffff1681526020019081526020015f2054905090565b5f151560035f9054906101000a900460ff161515146102d1576040517f08c379a00000000000000000000000000000000000000000000000000000000081526004016102c8906109cd565b60405180910390fd5b60025f3373ffffffffffffffffffffffffffffffffffffffff1673ffffffffffffffffffffffffffffffffffffffff1681526020019081526020015f2054811115610351576040517f08c379a000000000000000000000000000000000000000000000000000000000815260040161034890610a5b565b60405180910390fd5b8060025f3373ffffffffffffffffffffffffffffffffffffffff1673ffffffffffffffffffffffffffffffffffffffff1681526020019081526020015f205f82825461039d9190610aa6565b925050819055505f3373ffffffffffffffffffffffffffffffffffffffff16826040516103c990610b06565b5f6040518083038185875af1925050503d805f8114610403576040519150601f19603f3d011682016040523d82523d5f602084013e610408565b606091505b505090508061044c576040517f08c379a000000000000000000000000000000000000000000000000000000000815260040161044390610b64565b60405180910390fd5b7fccbd99ba6da8f29b2a4f65e474e3c3973564d356c162c08d45f3dc7f0cb5b3aa338360405161047d929190610b82565b60405180910390a15050565b5f5481565b5f47905090565b60035f9054906101000a900460ff1681565b60015f9054906101000a900473ffffffffffffffffffffffffffffffffffffffff1673ffffffffffffffffffffffffffffffffffffffff163373ffffffffffffffffffffffffffffffffffffffff1614610536576040517f08c379a000000000000000000000000000000000000000000000000000000000815260040161052d90610bf3565b60405180910390fd5b805f8190555050565b5f151560035f9054906101000a900460ff16151514610593576040517f08c379a000000000000000000000000000000000000000000000000000000000815260040161058a906109cd565b60405180910390fd5b5f543460025f3373ffffffffffffffffffffffffffffffffffffffff1673ffffffffffffffffffffffffffffffffffffffff1681526020019081526020015f20546105de9190610c11565b111561061f576040517f08c379a000000000000000000000000000000000000000000000000000000000815260040161061690610c64565b60405180910390fd5b3460025f3373ffffffffffffffffffffffffffffffffffffffff1673ffffffffffffffffffffffffffffffffffffffff1681526020019081526020015f205f82825461066b9190610c11565b925050819055507f7034bb05cfe54b0d147fc0574ed166101e7f0313eb404e113974fbe2a998ca8333346040516106a3929190610b82565b60405180910390a1565b60015f9054906101000a900473ffffffffffffffffffffffffffffffffffffffff1673ffffffffffffffffffffffffffffffffffffffff163373ffffffffffffffffffffffffffffffffffffffff161461073c576040517f08c379a000000000000000000000000000000000000000000000000000000000815260040161073390610bf3565b60405180910390fd5b8060035f6101000a81548160ff0219169083151502179055507fc4783ff1ae7f4b4b2643279fbfe00092383a57f3c2d82509c81616c0b4c4f0a38160405161078491906108dd565b60405180910390a150565b60015f9054906101000a900473ffffffffffffffffffffffffffffffffffffffff1681565b5f80fd5b5f73ffffffffffffffffffffffffffffffffffffffff82169050919050565b5f6107e1826107b8565b9050919050565b6107f1816107d7565b81146107fb575f80fd5b50565b5f8135905061080c816107e8565b92915050565b5f60208284031215610827576108266107b4565b5b5f610834848285016107fe565b91505092915050565b5f819050919050565b61084f8161083d565b82525050565b5f6020820190506108685f830184610846565b92915050565b6108778161083d565b8114610881575f80fd5b50565b5f813590506108928161086e565b92915050565b5f602082840312156108ad576108ac6107b4565b5b5f6108ba84828501610884565b91505092915050565b5f8115159050919050565b6108d7816108c3565b82525050565b5f6020820190506108f05f8301846108ce565b92915050565b6108ff816108c3565b8114610909575f80fd5b50565b5f8135905061091a816108f6565b92915050565b5f60208284031215610935576109346107b4565b5b5f6109428482850161090c565b91505092915050565b610954816107d7565b82525050565b5f60208201905061096d5f83018461094b565b92915050565b5f82825260208201905092915050565b7f436f6e74726163742069732070617573656400000000000000000000000000005f82015250565b5f6109b7601283610973565b91506109c282610983565b602082019050919050565b5f6020820190508181035f8301526109e4816109ab565b9050919050565b7f43616e6e6f74207769746864726177206d6f7265207468616e20617661696c615f8201527f626c652062616c616e6365000000000000000000000000000000000000000000602082015250565b5f610a45602b83610973565b9150610a50826109eb565b604082019050919050565b5f6020820190508181035f830152610a7281610a39565b9050919050565b7f4e487b71000000000000000000000000000000000000000000000000000000005f52601160045260245ffd5b5f610ab08261083d565b9150610abb8361083d565b9250828203905081811115610ad357610ad2610a79565b5b92915050565b5f81905092915050565b50565b5f610af15f83610ad9565b9150610afc82610ae3565b5f82019050919050565b5f610b1082610ae6565b9150819050919050565b7f5769746864726177206661696c656400000000000000000000000000000000005f82015250565b5f610b4e600f83610973565b9150610b5982610b1a565b602082019050919050565b5f6020820190508181035f830152610b7b81610b42565b9050919050565b5f604082019050610b955f83018561094b565b610ba26020830184610846565b9392505050565b7f556e617574686f72697a656400000000000000000000000000000000000000005f82015250565b5f610bdd600c83610973565b9150610be882610ba9565b602082019050919050565b5f6020820190508181035f830152610c0a81610bd1565b9050919050565b5f610c1b8261083d565b9150610c268361083d565b9250828201905080821115610c3e57610c3d610a79565b5b92915050565b5f610c4f5f83610973565b9150610c5a82610ae3565b5f82019050919050565b5f6020820190508181035f830152610c7b81610c44565b905091905056fea2646970667358221220b83eee05640c4719e1e0d45322e4d2f6fb880b7200b65dbb38a22e47290c466164736f6c634300081a0033",
					"opcodes": "PUSH1 0x80 PUSH1 0x40 MSTORE CALLVALUE DUP1 ISZERO PUSH2 0xF JUMPI PUSH0 DUP1 REVERT JUMPDEST POP PUSH1 0x40 MLOAD PUSH2 0xE2B CODESIZE SUB DUP1 PUSH2 0xE2B DUP4 CODECOPY DUP2 DUP2 ADD PUSH1 0x40 MSTORE DUP2 ADD SWAP1 PUSH2 0x31 SWAP2 SWAP1 PUSH2 0x128 JUMP JUMPDEST DUP2 PUSH0 DUP2 SWAP1 SSTORE POP DUP1 PUSH1 0x1 PUSH0 PUSH2 0x100 EXP DUP2 SLOAD DUP2 PUSH20 0xFFFFFFFFFFFFFFFFFFFFFFFFFFFFFFFFFFFFFFFF MUL NOT AND SWAP1 DUP4 PUSH20 0xFFFFFFFFFFFFFFFFFFFFFFFFFFFFFFFFFFFFFFFF AND MUL OR SWAP1 SSTORE POP PUSH0 PUSH1 0x3 PUSH0 PUSH2 0x100 EXP DUP2 SLOAD DUP2 PUSH1 0xFF MUL NOT AND SWAP1 DUP4 ISZERO ISZERO MUL OR SWAP1 SSTORE POP POP POP PUSH2 0x166 JUMP JUMPDEST PUSH0 DUP1 REVERT JUMPDEST PUSH0 DUP2 SWAP1 POP SWAP2 SWAP1 POP JUMP JUMPDEST PUSH2 0xAD DUP2 PUSH2 0x9B JUMP JUMPDEST DUP2 EQ PUSH2 0xB7 JUMPI PUSH0 DUP1 REVERT JUMPDEST POP JUMP JUMPDEST PUSH0 DUP2 MLOAD SWAP1 POP PUSH2 0xC8 DUP2 PUSH2 0xA4 JUMP JUMPDEST SWAP3 SWAP2 POP POP JUMP JUMPDEST PUSH0 PUSH20 0xFFFFFFFFFFFFFFFFFFFFFFFFFFFFFFFFFFFFFFFF DUP3 AND SWAP1 POP SWAP2 SWAP1 POP JUMP JUMPDEST PUSH0 PUSH2 0xF7 DUP3 PUSH2 0xCE JUMP JUMPDEST SWAP1 POP SWAP2 SWAP1 POP JUMP JUMPDEST PUSH2 0x107 DUP2 PUSH2 0xED JUMP JUMPDEST DUP2 EQ PUSH2 0x111 JUMPI PUSH0 DUP1 REVERT JUMPDEST POP JUMP JUMPDEST PUSH0 DUP2 MLOAD SWAP1 POP PUSH2 0x122 DUP2 PUSH2 0xFE JUMP JUMPDEST SWAP3 SWAP2 POP POP JUMP JUMPDEST PUSH0 DUP1 PUSH1 0x40 DUP4 DUP6 SUB SLT ISZERO PUSH2 0x13E JUMPI PUSH2 0x13D PUSH2 0x97 JUMP JUMPDEST JUMPDEST PUSH0 PUSH2 0x14B DUP6 DUP3 DUP7 ADD PUSH2 0xBA JUMP JUMPDEST SWAP3 POP POP PUSH1 0x20 PUSH2 0x15C DUP6 DUP3 DUP7 ADD PUSH2 0x114 JUMP JUMPDEST SWAP2 POP POP SWAP3 POP SWAP3 SWAP1 POP JUMP JUMPDEST PUSH2 0xCB8 DUP1 PUSH2 0x173 PUSH0 CODECOPY PUSH0 RETURN INVALID PUSH1 0x80 PUSH1 0x40 MSTORE PUSH1 0x4 CALLDATASIZE LT PUSH2 0x90 JUMPI PUSH0 CALLDATALOAD PUSH1 0xE0 SHR DUP1 PUSH4 0x8A67456A GT PUSH2 0x58 JUMPI DUP1 PUSH4 0x8A67456A EQ PUSH2 0x176 JUMPI DUP1 PUSH4 0xA2CCD6BA EQ PUSH2 0x1A0 JUMPI DUP1 PUSH4 0xD0E30DB0 EQ PUSH2 0x1C8 JUMPI DUP1 PUSH4 0xE272B892 EQ PUSH2 0x1D2 JUMPI DUP1 PUSH4 0xF851A440 EQ PUSH2 0x1FA JUMPI PUSH2 0x90 JUMP JUMPDEST DUP1 PUSH4 0x103C92B EQ PUSH2 0x94 JUMPI DUP1 PUSH4 0xFFA58A8 EQ PUSH2 0xD0 JUMPI DUP1 PUSH4 0x2E1A7D4D EQ PUSH2 0xFA JUMPI DUP1 PUSH4 0x73AD468A EQ PUSH2 0x122 JUMPI DUP1 PUSH4 0x7B83B50B EQ PUSH2 0x14C JUMPI JUMPDEST PUSH0 DUP1 REVERT JUMPDEST CALLVALUE DUP1 ISZERO PUSH2 0x9F JUMPI PUSH0 DUP1 REVERT JUMPDEST POP PUSH2 0xBA PUSH1 0x4 DUP1 CALLDATASIZE SUB DUP2 ADD SWAP1 PUSH2 0xB5 SWAP2 SWAP1 PUSH2 0x812 JUMP JUMPDEST PUSH2 0x224 JUMP JUMPDEST PUSH1 0x40 MLOAD PUSH2 0xC7 SWAP2 SWAP1 PUSH2 0x855 JUMP JUMPDEST PUSH1 0x40 MLOAD DUP1 SWAP2 SUB SWAP1 RETURN JUMPDEST CALLVALUE DUP1 ISZERO PUSH2 0xDB JUMPI PUSH0 DUP1 REVERT JUMPDEST POP PUSH2 0xE4 PUSH2 0x239 JUMP JUMPDEST PUSH1 0x40 MLOAD PUSH2 0xF1 SWAP2 SWAP1 PUSH2 0x855 JUMP JUMPDEST PUSH1 0x40 MLOAD DUP1 SWAP2 SUB SWAP1 RETURN JUMPDEST CALLVALUE DUP1 ISZERO PUSH2 0x105 JUMPI PUSH0 DUP1 REVERT JUMPDEST POP PUSH2 0x120 PUSH1 0x4 DUP1 CALLDATASIZE SUB DUP2 ADD SWAP1 PUSH2 0x11B SWAP2 SWAP1 PUSH2 0x898 JUMP JUMPDEST PUSH2 0x27D JUMP JUMPDEST STOP JUMPDEST CALLVALUE DUP1 ISZERO PUSH2 0x12D JUMPI PUSH0 DUP1 REVERT JUMPDEST POP PUSH2 0x136 PUSH2 0x489 JUMP JUMPDEST PUSH1 0x40 MLOAD PUSH2 0x143 SWAP2 SWAP1 PUSH2 0x855 JUMP JUMPDEST PUSH1 0x40 MLOAD DUP1 SWAP2 SUB SWAP1 RETURN JUMPDEST CALLVALUE DUP1 ISZERO PUSH2 0x157 JUMPI PUSH0 DUP1 REVERT JUMPDEST POP PUSH2 0x160 PUSH2 0x48E JUMP JUMPDEST PUSH1 0x40 MLOAD PUSH2 0x16D SWAP2 SWAP1 PUSH2 0x855 JUMP JUMPDEST PUSH1 0x40 MLOAD DUP1 SWAP2 SUB SWAP1 RETURN JUMPDEST CALLVALUE DUP1 ISZERO PUSH2 0x181 JUMPI PUSH0 DUP1 REVERT JUMPDEST POP PUSH2 0x18A PUSH2 0x495 JUMP JUMPDEST PUSH1 0x40 MLOAD PUSH2 0x197 SWAP2 SWAP1 PUSH2 0x8DD JUMP JUMPDEST PUSH1 0x40 MLOAD DUP1 SWAP2 SUB SWAP1 RETURN JUMPDEST CALLVALUE DUP1 ISZERO PUSH2 0x1AB JUMPI PUSH0 DUP1 REVERT JUMPDEST POP PUSH2 0x1C6 PUSH1 0x4 DUP1 CALLDATASIZE SUB DUP2 ADD SWAP1 PUSH2 0x1C1 SWAP2 SWAP1 PUSH2 0x898 JUMP JUMPDEST PUSH2 0x4A7 JUMP JUMPDEST STOP JUMPDEST PUSH2 0x1D0 PUSH2 0x53F JUMP JUMPDEST STOP JUMPDEST CALLVALUE DUP1 ISZERO PUSH2 0x1DD JUMPI PUSH0 DUP1 REVERT JUMPDEST POP PUSH2 0x1F8 PUSH1 0x4 DUP1 CALLDATASIZE SUB DUP2 ADD SWAP1 PUSH2 0x1F3 SWAP2 SWAP1 PUSH2 0x920 JUMP JUMPDEST PUSH2 0x6AD JUMP JUMPDEST STOP JUMPDEST CALLVALUE DUP1 ISZERO PUSH2 0x205 JUMPI PUSH0 DUP1 REVERT JUMPDEST POP PUSH2 0x20E PUSH2 0x78F JUMP JUMPDEST PUSH1 0x40 MLOAD PUSH2 0x21B SWAP2 SWAP1 PUSH2 0x95A JUMP JUMPDEST PUSH1 0x40 MLOAD DUP1 SWAP2 SUB SWAP1 RETURN JUMPDEST PUSH1 0x2 PUSH1 0x20 MSTORE DUP1 PUSH0 MSTORE PUSH1 0x40 PUSH0 KECCAK256 PUSH0 SWAP2 POP SWAP1 POP SLOAD DUP2 JUMP JUMPDEST PUSH0 PUSH1 0x2 PUSH0 CALLER PUSH20 0xFFFFFFFFFFFFFFFFFFFFFFFFFFFFFFFFFFFFFFFF AND PUSH20 0xFFFFFFFFFFFFFFFFFFFFFFFFFFFFFFFFFFFFFFFF AND DUP2 MSTORE PUSH1 0x20 ADD SWAP1 DUP2 MSTORE PUSH1 0x20 ADD PUSH0 KECCAK256 SLOAD SWAP1 POP SWAP1 JUMP JUMPDEST PUSH0 ISZERO ISZERO PUSH1 0x3 PUSH0 SWAP1 SLOAD SWAP1 PUSH2 0x100 EXP SWAP1 DIV PUSH1 0xFF AND ISZERO ISZERO EQ PUSH2 0x2D1 JUMPI PUSH1 0x40 MLOAD PUSH32 0x8C379A000000000000000000000000000000000000000000000000000000000 DUP2 MSTORE PUSH1 0x4 ADD PUSH2 0x2C8 SWAP1 PUSH2 0x9CD JUMP JUMPDEST PUSH1 0x40 MLOAD DUP1 SWAP2 SUB SWAP1 REVERT JUMPDEST PUSH1 0x2 PUSH0 CALLER PUSH20 0xFFFFFFFFFFFFFFFFFFFFFFFFFFFFFFFFFFFFFFFF AND PUSH20 0xFFFFFFFFFFFFFFFFFFFFFFFFFFFFFFFFFFFFFFFF AND DUP2 MSTORE PUSH1 0x20 ADD SWAP1 DUP2 MSTORE PUSH1 0x20 ADD PUSH0 KECCAK256 SLOAD DUP2 GT ISZERO PUSH2 0x351 JUMPI PUSH1 0x40 MLOAD PUSH32 0x8C379A000000000000000000000000000000000000000000000000000000000 DUP2 MSTORE PUSH1 0x4 ADD PUSH2 0x348 SWAP1 PUSH2 0xA5B JUMP JUMPDEST PUSH1 0x40 MLOAD DUP1 SWAP2 SUB SWAP1 REVERT JUMPDEST DUP1 PUSH1 0x2 PUSH0 CALLER PUSH20 0xFFFFFFFFFFFFFFFFFFFFFFFFFFFFFFFFFFFFFFFF AND PUSH20 0xFFFFFFFFFFFFFFFFFFFFFFFFFFFFFFFFFFFFFFFF AND DUP2 MSTORE PUSH1 0x20 ADD SWAP1 DUP2 MSTORE PUSH1 0x20 ADD PUSH0 KECCAK256 PUSH0 DUP3 DUP3 SLOAD PUSH2 0x39D SWAP2 SWAP1 PUSH2 0xAA6 JUMP JUMPDEST SWAP3 POP POP DUP2 SWAP1 SSTORE POP PUSH0 CALLER PUSH20 0xFFFFFFFFFFFFFFFFFFFFFFFFFFFFFFFFFFFFFFFF AND DUP3 PUSH1 0x40 MLOAD PUSH2 0x3C9 SWAP1 PUSH2 0xB06 JUMP JUMPDEST PUSH0 PUSH1 0x40 MLOAD DUP1 DUP4 SUB DUP2 DUP6 DUP8 GAS CALL SWAP3 POP POP POP RETURNDATASIZE DUP1 PUSH0 DUP2 EQ PUSH2 0x403 JUMPI PUSH1 0x40 MLOAD SWAP2 POP PUSH1 0x1F NOT PUSH1 0x3F RETURNDATASIZE ADD AND DUP3 ADD PUSH1 0x40 MSTORE RETURNDATASIZE DUP3 MSTORE RETURNDATASIZE PUSH0 PUSH1 0x20 DUP5 ADD RETURNDATACOPY PUSH2 0x408 JUMP JUMPDEST PUSH1 0x60 SWAP2 POP JUMPDEST POP POP SWAP1 POP DUP1 PUSH2 0x44C JUMPI PUSH1 0x40 MLOAD PUSH32 0x8C379A000000000000000000000000000000000000000000000000000000000 DUP2 MSTORE PUSH1 0x4 ADD PUSH2 0x443 SWAP1 PUSH2 0xB64 JUMP JUMPDEST PUSH1 0x40 MLOAD DUP1 SWAP2 SUB SWAP1 REVERT JUMPDEST PUSH32 0xCCBD99BA6DA8F29B2A4F65E474E3C3973564D356C162C08D45F3DC7F0CB5B3AA CALLER DUP4 PUSH1 0x40 MLOAD PUSH2 0x47D SWAP3 SWAP2 SWAP1 PUSH2 0xB82 JUMP JUMPDEST PUSH1 0x40 MLOAD DUP1 SWAP2 SUB SWAP1 LOG1 POP POP JUMP JUMPDEST PUSH0 SLOAD DUP2 JUMP JUMPDEST PUSH0 SELFBALANCE SWAP1 POP SWAP1 JUMP JUMPDEST PUSH1 0x3 PUSH0 SWAP1 SLOAD SWAP1 PUSH2 0x100 EXP SWAP1 DIV PUSH1 0xFF AND DUP2 JUMP JUMPDEST PUSH1 0x1 PUSH0 SWAP1 SLOAD SWAP1 PUSH2 0x100 EXP SWAP1 DIV PUSH20 0xFFFFFFFFFFFFFFFFFFFFFFFFFFFFFFFFFFFFFFFF AND PUSH20 0xFFFFFFFFFFFFFFFFFFFFFFFFFFFFFFFFFFFFFFFF AND CALLER PUSH20 0xFFFFFFFFFFFFFFFFFFFFFFFFFFFFFFFFFFFFFFFF AND EQ PUSH2 0x536 JUMPI PUSH1 0x40 MLOAD PUSH32 0x8C379A000000000000000000000000000000000000000000000000000000000 DUP2 MSTORE PUSH1 0x4 ADD PUSH2 0x52D SWAP1 PUSH2 0xBF3 JUMP JUMPDEST PUSH1 0x40 MLOAD DUP1 SWAP2 SUB SWAP1 REVERT JUMPDEST DUP1 PUSH0 DUP2 SWAP1 SSTORE POP POP JUMP JUMPDEST PUSH0 ISZERO ISZERO PUSH1 0x3 PUSH0 SWAP1 SLOAD SWAP1 PUSH2 0x100 EXP SWAP1 DIV PUSH1 0xFF AND ISZERO ISZERO EQ PUSH2 0x593 JUMPI PUSH1 0x40 MLOAD PUSH32 0x8C379A000000000000000000000000000000000000000000000000000000000 DUP2 MSTORE PUSH1 0x4 ADD PUSH2 0x58A SWAP1 PUSH2 0x9CD JUMP JUMPDEST PUSH1 0x40 MLOAD DUP1 SWAP2 SUB SWAP1 REVERT JUMPDEST PUSH0 SLOAD CALLVALUE PUSH1 0x2 PUSH0 CALLER PUSH20 0xFFFFFFFFFFFFFFFFFFFFFFFFFFFFFFFFFFFFFFFF AND PUSH20 0xFFFFFFFFFFFFFFFFFFFFFFFFFFFFFFFFFFFFFFFF AND DUP2 MSTORE PUSH1 0x20 ADD SWAP1 DUP2 MSTORE PUSH1 0x20 ADD PUSH0 KECCAK256 SLOAD PUSH2 0x5DE SWAP2 SWAP1 PUSH2 0xC11 JUMP JUMPDEST GT ISZERO PUSH2 0x61F JUMPI PUSH1 0x40 MLOAD PUSH32 0x8C379A000000000000000000000000000000000000000000000000000000000 DUP2 MSTORE PUSH1 0x4 ADD PUSH2 0x616 SWAP1 PUSH2 0xC64 JUMP JUMPDEST PUSH1 0x40 MLOAD DUP1 SWAP2 SUB SWAP1 REVERT JUMPDEST CALLVALUE PUSH1 0x2 PUSH0 CALLER PUSH20 0xFFFFFFFFFFFFFFFFFFFFFFFFFFFFFFFFFFFFFFFF AND PUSH20 0xFFFFFFFFFFFFFFFFFFFFFFFFFFFFFFFFFFFFFFFF AND DUP2 MSTORE PUSH1 0x20 ADD SWAP1 DUP2 MSTORE PUSH1 0x20 ADD PUSH0 KECCAK256 PUSH0 DUP3 DUP3 SLOAD PUSH2 0x66B SWAP2 SWAP1 PUSH2 0xC11 JUMP JUMPDEST SWAP3 POP POP DUP2 SWAP1 SSTORE POP PUSH32 0x7034BB05CFE54B0D147FC0574ED166101E7F0313EB404E113974FBE2A998CA83 CALLER CALLVALUE PUSH1 0x40 MLOAD PUSH2 0x6A3 SWAP3 SWAP2 SWAP1 PUSH2 0xB82 JUMP JUMPDEST PUSH1 0x40 MLOAD DUP1 SWAP2 SUB SWAP1 LOG1 JUMP JUMPDEST PUSH1 0x1 PUSH0 SWAP1 SLOAD SWAP1 PUSH2 0x100 EXP SWAP1 DIV PUSH20 0xFFFFFFFFFFFFFFFFFFFFFFFFFFFFFFFFFFFFFFFF AND PUSH20 0xFFFFFFFFFFFFFFFFFFFFFFFFFFFFFFFFFFFFFFFF AND CALLER PUSH20 0xFFFFFFFFFFFFFFFFFFFFFFFFFFFFFFFFFFFFFFFF AND EQ PUSH2 0x73C JUMPI PUSH1 0x40 MLOAD PUSH32 0x8C379A000000000000000000000000000000000000000000000000000000000 DUP2 MSTORE PUSH1 0x4 ADD PUSH2 0x733 SWAP1 PUSH2 0xBF3 JUMP JUMPDEST PUSH1 0x40 MLOAD DUP1 SWAP2 SUB SWAP1 REVERT JUMPDEST DUP1 PUSH1 0x3 PUSH0 PUSH2 0x100 EXP DUP2 SLOAD DUP2 PUSH1 0xFF MUL NOT AND SWAP1 DUP4 ISZERO ISZERO MUL OR SWAP1 SSTORE POP PUSH32 0xC4783FF1AE7F4B4B2643279FBFE00092383A57F3C2D82509C81616C0B4C4F0A3 DUP2 PUSH1 0x40 MLOAD PUSH2 0x784 SWAP2 SWAP1 PUSH2 0x8DD JUMP JUMPDEST PUSH1 0x40 MLOAD DUP1 SWAP2 SUB SWAP1 LOG1 POP JUMP JUMPDEST PUSH1 0x1 PUSH0 SWAP1 SLOAD SWAP1 PUSH2 0x100 EXP SWAP1 DIV PUSH20 0xFFFFFFFFFFFFFFFFFFFFFFFFFFFFFFFFFFFFFFFF AND DUP2 JUMP JUMPDEST PUSH0 DUP1 REVERT JUMPDEST PUSH0 PUSH20 0xFFFFFFFFFFFFFFFFFFFFFFFFFFFFFFFFFFFFFFFF DUP3 AND SWAP1 POP SWAP2 SWAP1 POP JUMP JUMPDEST PUSH0 PUSH2 0x7E1 DUP3 PUSH2 0x7B8 JUMP JUMPDEST SWAP1 POP SWAP2 SWAP1 POP JUMP JUMPDEST PUSH2 0x7F1 DUP2 PUSH2 0x7D7 JUMP JUMPDEST DUP2 EQ PUSH2 0x7FB JUMPI PUSH0 DUP1 REVERT JUMPDEST POP JUMP JUMPDEST PUSH0 DUP2 CALLDATALOAD SWAP1 POP PUSH2 0x80C DUP2 PUSH2 0x7E8 JUMP JUMPDEST SWAP3 SWAP2 POP POP JUMP JUMPDEST PUSH0 PUSH1 0x20 DUP3 DUP5 SUB SLT ISZERO PUSH2 0x827 JUMPI PUSH2 0x826 PUSH2 0x7B4 JUMP JUMPDEST JUMPDEST PUSH0 PUSH2 0x834 DUP5 DUP3 DUP6 ADD PUSH2 0x7FE JUMP JUMPDEST SWAP2 POP POP SWAP3 SWAP2 POP POP JUMP JUMPDEST PUSH0 DUP2 SWAP1 POP SWAP2 SWAP1 POP JUMP JUMPDEST PUSH2 0x84F DUP2 PUSH2 0x83D JUMP JUMPDEST DUP3 MSTORE POP POP JUMP JUMPDEST PUSH0 PUSH1 0x20 DUP3 ADD SWAP1 POP PUSH2 0x868 PUSH0 DUP4 ADD DUP5 PUSH2 0x846 JUMP JUMPDEST SWAP3 SWAP2 POP POP JUMP JUMPDEST PUSH2 0x877 DUP2 PUSH2 0x83D JUMP JUMPDEST DUP2 EQ PUSH2 0x881 JUMPI PUSH0 DUP1 REVERT JUMPDEST POP JUMP JUMPDEST PUSH0 DUP2 CALLDATALOAD SWAP1 POP PUSH2 0x892 DUP2 PUSH2 0x86E JUMP JUMPDEST SWAP3 SWAP2 POP POP JUMP JUMPDEST PUSH0 PUSH1 0x20 DUP3 DUP5 SUB SLT ISZERO PUSH2 0x8AD JUMPI PUSH2 0x8AC PUSH2 0x7B4 JUMP JUMPDEST JUMPDEST PUSH0 PUSH2 0x8BA DUP5 DUP3 DUP6 ADD PUSH2 0x884 JUMP JUMPDEST SWAP2 POP POP SWAP3 SWAP2 POP POP JUMP JUMPDEST PUSH0 DUP2 ISZERO ISZERO SWAP1 POP SWAP2 SWAP1 POP JUMP JUMPDEST PUSH2 0x8D7 DUP2 PUSH2 0x8C3 JUMP JUMPDEST DUP3 MSTORE POP POP JUMP JUMPDEST PUSH0 PUSH1 0x20 DUP3 ADD SWAP1 POP PUSH2 0x8F0 PUSH0 DUP4 ADD DUP5 PUSH2 0x8CE JUMP JUMPDEST SWAP3 SWAP2 POP POP JUMP JUMPDEST PUSH2 0x8FF DUP2 PUSH2 0x8C3 JUMP JUMPDEST DUP2 EQ PUSH2 0x909 JUMPI PUSH0 DUP1 REVERT JUMPDEST POP JUMP JUMPDEST PUSH0 DUP2 CALLDATALOAD SWAP1 POP PUSH2 0x91A DUP2 PUSH2 0x8F6 JUMP JUMPDEST SWAP3 SWAP2 POP POP JUMP JUMPDEST PUSH0 PUSH1 0x20 DUP3 DUP5 SUB SLT ISZERO PUSH2 0x935 JUMPI PUSH2 0x934 PUSH2 0x7B4 JUMP JUMPDEST JUMPDEST PUSH0 PUSH2 0x942 DUP5 DUP3 DUP6 ADD PUSH2 0x90C JUMP JUMPDEST SWAP2 POP POP SWAP3 SWAP2 POP POP JUMP JUMPDEST PUSH2 0x954 DUP2 PUSH2 0x7D7 JUMP JUMPDEST DUP3 MSTORE POP POP JUMP JUMPDEST PUSH0 PUSH1 0x20 DUP3 ADD SWAP1 POP PUSH2 0x96D PUSH0 DUP4 ADD DUP5 PUSH2 0x94B JUMP JUMPDEST SWAP3 SWAP2 POP POP JUMP JUMPDEST PUSH0 DUP3 DUP3 MSTORE PUSH1 0x20 DUP3 ADD SWAP1 POP SWAP3 SWAP2 POP POP JUMP JUMPDEST PUSH32 0x436F6E7472616374206973207061757365640000000000000000000000000000 PUSH0 DUP3 ADD MSTORE POP JUMP JUMPDEST PUSH0 PUSH2 0x9B7 PUSH1 0x12 DUP4 PUSH2 0x973 JUMP JUMPDEST SWAP2 POP PUSH2 0x9C2 DUP3 PUSH2 0x983 JUMP JUMPDEST PUSH1 0x20 DUP3 ADD SWAP1 POP SWAP2 SWAP1 POP JUMP JUMPDEST PUSH0 PUSH1 0x20 DUP3 ADD SWAP1 POP DUP2 DUP2 SUB PUSH0 DUP4 ADD MSTORE PUSH2 0x9E4 DUP2 PUSH2 0x9AB JUMP JUMPDEST SWAP1 POP SWAP2 SWAP1 POP JUMP JUMPDEST PUSH32 0x43616E6E6F74207769746864726177206D6F7265207468616E20617661696C61 PUSH0 DUP3 ADD MSTORE PUSH32 0x626C652062616C616E6365000000000000000000000000000000000000000000 PUSH1 0x20 DUP3 ADD MSTORE POP JUMP JUMPDEST PUSH0 PUSH2 0xA45 PUSH1 0x2B DUP4 PUSH2 0x973 JUMP JUMPDEST SWAP2 POP PUSH2 0xA50 DUP3 PUSH2 0x9EB JUMP JUMPDEST PUSH1 0x40 DUP3 ADD SWAP1 POP SWAP2 SWAP1 POP JUMP JUMPDEST PUSH0 PUSH1 0x20 DUP3 ADD SWAP1 POP DUP2 DUP2 SUB PUSH0 DUP4 ADD MSTORE PUSH2 0xA72 DUP2 PUSH2 0xA39 JUMP JUMPDEST SWAP1 POP SWAP2 SWAP1 POP JUMP JUMPDEST PUSH32 0x4E487B7100000000000000000000000000000000000000000000000000000000 PUSH0 MSTORE PUSH1 0x11 PUSH1 0x4 MSTORE PUSH1 0x24 PUSH0 REVERT JUMPDEST PUSH0 PUSH2 0xAB0 DUP3 PUSH2 0x83D JUMP JUMPDEST SWAP2 POP PUSH2 0xABB DUP4 PUSH2 0x83D JUMP JUMPDEST SWAP3 POP DUP3 DUP3 SUB SWAP1 POP DUP2 DUP2 GT ISZERO PUSH2 0xAD3 JUMPI PUSH2 0xAD2 PUSH2 0xA79 JUMP JUMPDEST JUMPDEST SWAP3 SWAP2 POP POP JUMP JUMPDEST PUSH0 DUP2 SWAP1 POP SWAP3 SWAP2 POP POP JUMP JUMPDEST POP JUMP JUMPDEST PUSH0 PUSH2 0xAF1 PUSH0 DUP4 PUSH2 0xAD9 JUMP JUMPDEST SWAP2 POP PUSH2 0xAFC DUP3 PUSH2 0xAE3 JUMP JUMPDEST PUSH0 DUP3 ADD SWAP1 POP SWAP2 SWAP1 POP JUMP JUMPDEST PUSH0 PUSH2 0xB10 DUP3 PUSH2 0xAE6 JUMP JUMPDEST SWAP2 POP DUP2 SWAP1 POP SWAP2 SWAP1 POP JUMP JUMPDEST PUSH32 0x5769746864726177206661696C65640000000000000000000000000000000000 PUSH0 DUP3 ADD MSTORE POP JUMP JUMPDEST PUSH0 PUSH2 0xB4E PUSH1 0xF DUP4 PUSH2 0x973 JUMP JUMPDEST SWAP2 POP PUSH2 0xB59 DUP3 PUSH2 0xB1A JUMP JUMPDEST PUSH1 0x20 DUP3 ADD SWAP1 POP SWAP2 SWAP1 POP JUMP JUMPDEST PUSH0 PUSH1 0x20 DUP3 ADD SWAP1 POP DUP2 DUP2 SUB PUSH0 DUP4 ADD MSTORE PUSH2 0xB7B DUP2 PUSH2 0xB42 JUMP JUMPDEST SWAP1 POP SWAP2 SWAP1 POP JUMP JUMPDEST PUSH0 PUSH1 0x40 DUP3 ADD SWAP1 POP PUSH2 0xB95 PUSH0 DUP4 ADD DUP6 PUSH2 0x94B JUMP JUMPDEST PUSH2 0xBA2 PUSH1 0x20 DUP4 ADD DUP5 PUSH2 0x846 JUMP JUMPDEST SWAP4 SWAP3 POP POP POP JUMP JUMPDEST PUSH32 0x556E617574686F72697A65640000000000000000000000000000000000000000 PUSH0 DUP3 ADD MSTORE POP JUMP JUMPDEST PUSH0 PUSH2 0xBDD PUSH1 0xC DUP4 PUSH2 0x973 JUMP JUMPDEST SWAP2 POP PUSH2 0xBE8 DUP3 PUSH2 0xBA9 JUMP JUMPDEST PUSH1 0x20 DUP3 ADD SWAP1 POP SWAP2 SWAP1 POP JUMP JUMPDEST PUSH0 PUSH1 0x20 DUP3 ADD SWAP1 POP DUP2 DUP2 SUB PUSH0 DUP4 ADD MSTORE PUSH2 0xC0A DUP2 PUSH2 0xBD1 JUMP JUMPDEST SWAP1 POP SWAP2 SWAP1 POP JUMP JUMPDEST PUSH0 PUSH2 0xC1B DUP3 PUSH2 0x83D JUMP JUMPDEST SWAP2 POP PUSH2 0xC26 DUP4 PUSH2 0x83D JUMP JUMPDEST SWAP3 POP DUP3 DUP3 ADD SWAP1 POP DUP1 DUP3 GT ISZERO PUSH2 0xC3E JUMPI PUSH2 0xC3D PUSH2 0xA79 JUMP JUMPDEST JUMPDEST SWAP3 SWAP2 POP POP JUMP JUMPDEST PUSH0 PUSH2 0xC4F PUSH0 DUP4 PUSH2 0x973 JUMP JUMPDEST SWAP2 POP PUSH2 0xC5A DUP3 PUSH2 0xAE3 JUMP JUMPDEST PUSH0 DUP3 ADD SWAP1 POP SWAP2 SWAP1 POP JUMP JUMPDEST PUSH0 PUSH1 0x20 DUP3 ADD SWAP1 POP DUP2 DUP2 SUB PUSH0 DUP4 ADD MSTORE PUSH2 0xC7B DUP2 PUSH2 0xC44 JUMP JUMPDEST SWAP1 POP SWAP2 SWAP1 POP JUMP INVALID LOG2 PUSH5 0x6970667358 0x22 SLT KECCAK256 0xB8 RETURNDATACOPY 0xEE SDIV PUSH5 0xC4719E1E0 0xD4 MSTORE8 0x22 0xE4 0xD2 0xF6 0xFB DUP9 SIGNEXTEND PUSH19 0xB65DBB38A22E47290C466164736F6C634300 ADDMOD BYTE STOP CALLER "
				},
				"gasEstimates": {
					"creation": {
						"codeDepositCost": "651200",
						"executionCost": "infinite",
						"totalCost": "infinite"
					},
					"external": {
						"admin()": "2596",
						"contractPaused()": "2466",
						"deposit()": "infinite",
						"getBankBalance()": "423",
						"getMyAvailableBalance()": "2542",
						"maxBalance()": "2491",
						"modifyMaxBalance(uint256)": "24705",
						"pauseContract(bool)": "infinite",
						"userBalance(address)": "2803",
						"withdraw(uint256)": "infinite"
					}
				},
				"methodIdentifiers": {
					"admin()": "f851a440",
					"contractPaused()": "8a67456a",
					"deposit()": "d0e30db0",
					"getBankBalance()": "7b83b50b",
					"getMyAvailableBalance()": "0ffa58a8",
					"maxBalance()": "73ad468a",
					"modifyMaxBalance(uint256)": "a2ccd6ba",
					"pauseContract(bool)": "e272b892",
					"userBalance(address)": "0103c92b",
					"withdraw(uint256)": "2e1a7d4d"
				}
			},
			"storageLayout": {
				"storage": [
					{
						"astId": 3,
						"contract": "MyCryptoBank.sol:MyCryptoBank",
						"label": "maxBalance",
						"offset": 0,
						"slot": "0",
						"type": "t_uint256"
					},
					{
						"astId": 5,
						"contract": "MyCryptoBank.sol:MyCryptoBank",
						"label": "admin",
						"offset": 0,
						"slot": "1",
						"type": "t_address"
					},
					{
						"astId": 9,
						"contract": "MyCryptoBank.sol:MyCryptoBank",
						"label": "userBalance",
						"offset": 0,
						"slot": "2",
						"type": "t_mapping(t_address,t_uint256)"
					},
					{
						"astId": 11,
						"contract": "MyCryptoBank.sol:MyCryptoBank",
						"label": "contractPaused",
						"offset": 0,
						"slot": "3",
						"type": "t_bool"
					}
				],
				"types": {
					"t_address": {
						"encoding": "inplace",
						"label": "address",
						"numberOfBytes": "20"
					},
					"t_bool": {
						"encoding": "inplace",
						"label": "bool",
						"numberOfBytes": "1"
					},
					"t_mapping(t_address,t_uint256)": {
						"encoding": "mapping",
						"key": "t_address",
						"label": "mapping(address => uint256)",
						"numberOfBytes": "32",
						"value": "t_uint256"
					},
					"t_uint256": {
						"encoding": "inplace",
						"label": "uint256",
						"numberOfBytes": "32"
					}
				}
			},
			"userdoc": {
				"kind": "user",
				"methods": {},
				"version": 1
			}
		}
	}
}